:10000000027FED024E94FFFFFFFFFFFFFFFFFFFFA8
:10001000FFFFFFFFFFFFFFFFFFFFFF024CA8FFFFF7
:10002000FFFFFF02550EFFFFFFFFFFFFFFFFFFFF78
:10003000FFFFFFFFFFFFFFFFFFFFFFFFFFFFFFFFD0
:10004000FFFFFFFFFFFFFFFFFFFFFFFFFFFFFFFFC0
:10005000FFFFFFFFFFFFFFFFFFFFFF024C6DFFFFF2
:10006000FFFFFFFFFFFFFFFFFFFFFFFFFFFFFFFFA0
:10007000FFFFFFFFFFFFFFFFFFFFFF0245D2FFFF74
:1000800002427B02923B024A9202467D02467F0276
:10009000922B025F2202B76002472F02473D02B84F
:1000A000B902B8FD02B9AD02B83002C00D02C03AC3
:1000B00002BF4102C06922000022000002B44D02CA
:1000C000B6BD02D31A023DB102528A02D34D02C715
:1000D000E702D44F02D4A302D56B02216302249A13
:1000E00002245B0224620224F40223FB022A90020F
:1000F00029DD0254E4025FF302A46002615102A60A
:100100005A02B0C102AA0A025EC2025ED4220000F4
:1001100022000002A8ED02A8FF02A79302A7FD0299
:10012000A47E02ABDB02AC9602AB7C02AA8702A6DD
:10013000BD02AC6302AD0E02AEB502ADC102B31892
:1001400002B2AD02B1A102B165220000025FAD02B0
:10015000DC9002D98E024656025F4B02DC1702DDAC
:10016000C0025FC2025F94025F5C02D8A902A317BB
:100170000244C302454402A29002A1F70261C322D5
:10018000000022000002A2EB2200000244320244DE
:100190003602443A02443E02444102444402444787
:1001A00002444A02440F02442402444D02445302D2
:1001B000600302614802467422000022000022000F
:1001C0000002F3F702E6EE02E55F024675024677AB
:1001D00002467602F38F02F3F6024678024679026F
:1001E000467B02450C02EB2D02EB6C02467C02EED4
:1001F0003412428AB90003024278E479477808B899
:1002000000028004F709D8FCE4790878F8B8000205
:100210008004F709D8FCE49000007801791180028D
:10022000F0A3D8FCD9FA9005C5AA82AB83904A0402
:10023000780479018015E493A3AC82AD838A828B24
:1002400083F0A3AA82AB838C828D83D8E9D9E7900F
:100250000280AA82AB83904A04780179018015E478
:1002600093A3AC82AD838A828B83F0A3AA82AB83F3
:100270008C828D83D8E9D9E7124AA975D00075819F
:1002800000759B017500FF0241F17901221242B70E
:10029000742712429C43CF031242D622903061F061
:1002A000E4903062F01242A922903063F043CE0114
:1002B0007A05FB128ADF2212611E74FC55CB4401C1
:1002C000F5CB53CCF3E5CC53CEF6E5CE53CBDF22C2
:1002D0001242A953CFFCE5CF12432D7A01124338C5
:1002E0007A2C7B01128ADF2212433F907FF7E4933E
:1002F000540F903061F0907FF5E493903063F0906C
:100300007FF6E49312430822903062F043CE09E571
:10031000CE7A057B00128ADF53CFFCE5CF12432D46
:100320007A051243387A407B06128ADF2243CF8057
:10033000903058E0D2E5F02212438BD2E6F0221240
:10034000611E43CB20790112DF1443CB03E5CB536D
:10035000CCF3E5CC53CEFE22E9333354FCC0E07439
:10036000F355CCFAD0E04AF5CC53CCEF743F55CCE2
:100370004480F5CC74FC55CB4402F5CB124389C2C2
:10038000E6F0124389C2E5F0227A507B00128ADF40
:10039000903058E02243A304903064E04430F07A77
:1003A00007795912F66B43CB90E5CB53CBBBE5CB2A
:1003B0007544051242E87901124358754430754678
:1003C00000227A04795912F66B12428D7901124398
:1003D0005853CBDF22900500E07015790012DFE959
:1003E000500BA2A89232C2A8D2F0124656758800CD
:1003F00022900500E07017790012DFE9500D7900B6
:10040000125FC2758801A23292A82275880022125A
:1004100043D5903014E0D2E3F0903011E0D2E7F011
:1004200053BB7F22903011E0D2E7F043BB801243F0
:10043000F12253BEF72243BE082253BB7F22D2C310
:1004400022C2C322D29722C29722A2C322790A12C1
:10045000DEFD2280F874011288A0E9FE12615AE9DB
:10046000FF900500E0F530EE6F6011EFC39402508D
:100470000BA2A89200C2A8D2F0124656EEF9125F63
:10048000B112414C5006125330D38017EE6F6012F8
:10049000EFC39402500CA930125FB112414CA2007C
:1004A00092A8C37F010288B6EEC0E0E544FE754421
:1004B000301260E312A9D38E444003C38001D3D02D
:1004C000E0FE2274081288A08A308B318C328D3382
:1004D0001296DD8A348B358C368D37785AE260156A
:1004E000904A0078301285A5783479301282DF6026
:1004F00004E4785AF27F080288B62222C230C23160
:100500007401784CF274FF9002C4F022EEC0E01245
:10051000EAF0E9FE74046E7025900500E0700B7936
:100520000112DFE9500479018011900500E06401B7
:10053000700C790012DFE950057900125FB1EEF915
:10054000D0E0FE2274041288A08A308B318C328D68
:1005500033122AA9E9FE70739089C8783012832774
:1005600070697848E224BEF58208E23401F583E040
:1005700064806003E07054A3A3A3A3A3A3A3A37800
:100580003012873A9089C878301283277004790036
:10059000803BAA30AB31AC32AD33122AA9E9FE70F0
:1005A000177848E2F58208E2F583E0FA74EB6A60B6
:1005B0000774E96A60027E019089C8783012874921
:1005C000AA30AB31AC32AD33122AA9EEF97F040266
:1005D00088B6C08B538BFB0202C1A2AF92F0C2AFB0
:1005E00075AA009002C4E9F064FF6038E9543F2323
:1005F000239048782582F582E43583F5837402934D
:10060000C0E0740393C0E0E493F974019390304226
:10061000F0E9F09002C17402F0A3D0E0F0A3D0E0C2
:10062000F075AA02A2F092AF22D08B75E906D0E055
:10063000D0E074B4C0E074C6C0E03290048CE064D2
:10064000046003029E1574081288A08931FF7E079A
:10065000753244029F10C020A2F092007902125F0E
:100660004BA20092F012DD0292007900125F4BA2C1
:1006700000D020222222222222D3222222D322226E
:100680009002EFE0FA74016A70097A0F7B00125B46
:10069000E4801D74026A70047A1E80F074036A702C
:1006A000047A3C80E774046A7006756F077570768B
:1006B000756E0022125C472290059DE02401FAA38A
:1006C000E03400FB125BE4756E002274041288A013
:1006D000EAFEEBFF129B90E9FA90056AE0601B8E40
:1006E000828F8378007902E06463F0A3E824FF1826
:1006F000E934FFF9E87001E970EDEA60299005B48A
:10070000E06402600C9005A1E064017002A3E07057
:100710001B90496D7830128749AA30AB31AC32ADAD
:10072000337900129CEFD37F040288B6C380F8901F
:1007300002F3E06004126415221246CB22C030C0DE
:1007400031C032C0339002F3E060051264D7800EEE
:10075000129CEFE96004D2F08002C2F0A2F0D03324
:10076000D032D031D03022C030C031900595E05425
:1007700003F0A2935003D2E3F0A2925004E0D2E23D
:10078000F01247BC602874019002EB124867900594
:1007900094E02AF0790D12DE8F90059412486FC014
:1007A00082C0837AC27B49128E20D0E0D0E09005CF
:1007B00095E01313543FF0D031D03022E0540F2491
:1007C000A6F582E43449F583E493FA22C030C031BF
:1007D000900596E05433F0A2915003D2E7F0A29036
:1007E0005004E0D2E6F0A2825004E0D2E3F0A2810D
:1007F0005004E0D2E2F01247BC602E9002EDE070AF
:100800000874019002EA124867900592E02AF07994
:100810000912DE8F90059212486FC082C0837AC998
:100820007B49128E20D0E0D0E0900596E0C41247BC
:10083000BD602E9002ECE0700874019002E912484D
:1008400067900593E02AF0790B12DE8F90059312E2
:10085000486FC082C0837ACF7B49128E20D0E0D00F
:10086000E09005960247B1F074029002E8F022E0B1
:10087000F5823395E0F58322B1C6294604000000D5
:100880000002000000010102736420256420696EEB
:100890006974206661696C0A006D696E3A2025648E
:1008A0000A0046504F4E0A00762D0A00762B0A00A9
:1008B00053494E474C45204C6F6F700A004E6F20D5
:1008C0004465766963652100206F6E00546F746122
:1008D0006C3A25640A00427265616B20256C642CB9
:1008E00020256C640A006465766963655F636867E8
:1008F000203D2025640A007461736B20666C61736F
:100900006820657869740A007461736B5F666C6156
:1009100073680A0000040000000800004167616974
:100920006E0A007461736B5F69646C650A00736FB3
:1009300066745F706F776572646F776E0A00706FB0
:10094000776572206F6E2E2E2E0A00416761696EE8
:10095000206F6E0A006F6666007461736B5F706F64
:100960007765726F66660A0069646C650002000054
:10097000006972746320706F776572206F6E0A0071
:1009800073746172740A006E6F7420667269737496
:100990000A007379735F63746C2E766F6C756D6586
:1009A0003A2025640A0000010000FF00000000005A
:1009B00000FF000001006164635F63683A20256402
:1009C0000A0053333A25640A00533125640A005360
:1009D000323A25640A00B5CDB5E7B9D8BBFA2E0A7C
:1009E000002E00253032785F00524946469F90AB7A
:1009F000154572726F720A00FFFFFFFFFFFFFF00D5
:100A00000100000001E803CAC0E0E493A3C582CC62
:100A1000C582C583CDC583F0A3C582CCC582C583FD
:100A2000CDC583DAE5D0E0CA22C0E0E8C0E0E9C085
:100A3000E0EAC0E0EBC0E0C082C083E581C3940976
:100A4000F582E4E59B940054034400F583E0F8A3A9
:100A5000E0FAA3E0FBA3E0F9C3E5829403F582E5A5
:100A6000839400F583EAF0A3EBF0A3E9F0A3E8F0A8
:100A7000E5822406F582E43583F583D083D082D0E5
:100A8000E0FBD0E0FAD0E0F9D0E0F8D0E0A2E7D087
:100A9000E022A2AF500FA2AB500B7401299005BC0D
:100AA000F0E070FD2212DF142243F720124AF01208
:100AB000667D80FE795412F65EE9FAE490058BF0CB
:100AC000EAA2E4502574EF5AFA795512F66B7401D4
:100AD0009005BEF07A717B49128E20740190058BCF
:100AE000F0757A09792A12921822E49005BEF02254
:100AF000EEC0E01243951292027A807B49128E205A
:100B0000D289790112DF147588001244FC1292A375
:100B10007A1079B212DE7C127113752700752D00E0
:100B20007401900280F0E49005BAF09005B5F0747D
:100B30000190051BF090051AF0757B00E49005729A
:100B4000F0900585F0900587F0900588F09002F30D
:100B5000F07C03FDF97AF37B0212821E1273951268
:100B60008B47788A7600087600E4903029F0742F5D
:100B7000903028F0124AB412558974FF9005C1F0E4
:100B800075290A9005C3F012735F53A9EF43B9109A
:100B900075F117E490309CF090309BF090309AF013
:100BA0007409903099F043A91012714A1255D61267
:100BB00069F21265101264F912660FE492E0900275
:100BC000F4F0126514125D83D2AF7401900570F0D9
:100BD000C2F01268D9E4900570F0C2F01268D91220
:100BE0007228126A0153BAFEC28053BAFED2801232
:100BF000508543F7201243C27E0779011267C31E56
:100C0000EE70F71271C7789076019002F4E06014EC
:100C100090058BE06401600C7A877B49128E207509
:100C20007A068015790212E00D400E790012E00D6F
:100C30004007790112E00D50067401900585F074AB
:100C4000329005B6F0F91272B69005B5E0F912725D
:100C5000EF9005B6E0F582758300C082C0837A927A
:100C60007B49128E20D0E0D0E0D0E0FE22C0E0C070
:100C7000D0C082C083C08BC0865386C0C084C0856C
:100C800053F17F90056CE02547F547928590056DFF
:100C9000E02548F5489284D085D084D086D08BD08A
:100CA00083D082D0D0D0E032C0E0C0D075D010C0A8
:100CB00030C031C082C083C0F0C08BC0865386C0B4
:100CC000C084C08553C27F9002EAE06005125C35A3
:100CD00080199002E9E06005124680800E9002EBD8
:100CE000E060051246B880031246B4124767054E0D
:100CF0001259117403554E6003024E7F054D754E17
:100D000000E54DA2E05003024E7F054A754D00906C
:100D100005BCE06003E014F0E54AA2E04003125095
:100D2000F1E54A75F00584E5F06003024E7FE54584
:100D300060041545E5451270EA1257DD1247CC12E2
:100D400073C00549E549A2E04019754A001271EEE9
:100D500090056FE004F0C394974008E4F0740190AC
:100D6000057DF0E54975F06484E5F0701EE52A60C4
:100D700005752A008003752A019002ECE0600CE5FD
:100D80002B6005752B008003752B0174C8654960C5
:100D900003024E7F75490090058EE064017010904B
:100DA000056EE004F06404700B740190058DF0E4AE
:100DB00090056EF09005C3E0FA74FF6A6005EA6082
:100DC0000214F09005C1E0FA74FF6A6005EA60025F
:100DD00014F09002E8E0600214F0E0700DE490027C
:100DE000EAF09002E9F09002EBF0054BE54B75F06C
:100DF0003C84E5F06003024E7F054C788BE6943B23
:100E0000500306800B760018E6C3941740F4760072
:100E1000754B009002EFE0FA60659002F0E024016B
:100E2000F0A3E03400F074016A9002F07011E06405
:100E30000F7002A3E070347401900579F0802CE00B
:100E4000F8A3E0F974026A700A741E687001E97010
:100E50001A80E474036A7004743C80EF74046A704E
:100E60000A74A468700374016960CC9002F012895E
:100E7000017A997B48128E20D0E0D0E0754B00D0EB
:100E800085D084D086D08BD0F0D083D082D031D0A2
:100E900030024CA3C0E0C0D075D008C082C083C06F
:100EA000F0C08BC0865386C0C084C08553AD7F43DD
:100EB000F7201254D1D085D084D086D08BD0F0D0FA
:100EC00083D082D0D0D0E03274021288A0E5466987
:100ED00060738946A2AF5004D2008002C200C2AF44
:100EE000E91289190000ED4EEA4E8E300EE5CEA2D1
:100EF000E0400312428DEEF91243587403553079E5
:100F0000002484F582E43448F583E4932EFEE490D3
:100F10003029F0742F903028F07407C39EFA74F8CB
:100F200055E24AF5E274F855C24AF5C27530338984
:100F300031EE783012882BE530F5C575C670125F3A
:100F40004BA20092AF7F020288B675D91075E806F1
:100F50007C44E5EFA2E750FAEAF5EDEBF5ED1CEC89
:100F600070F0790112DEF322744C903052F074E28A
:100F7000903053F0903059E0D2E31250617AFF7B09
:100F80007F124F4A903053E0D2E2F07A051250714E
:100F900012502D50FB7A007B80124F4A7A0579045B
:100FA00012940A7AFF790312940A7A7F79021294D2
:100FB0000A12502D50FB790B125051D2E3F09030B1
:100FC00059E0C2E312504BC2E2F07A007B00124FAC
:100FD0004A903053E0C2E5F0E0C2E1F0790112DE60
:100FE000F3903052E0C2E6F0E0D2E712504BD2E08C
:100FF000F07903125051C2E3F0E0D2E5F0793412F7
:10100000DEF3125045D2E1125056125036790612D4
:1010100093FAE9A2E150F6903052E0C2E4F0C23B0C
:1010200074419003CCF01251BD1251892279021201
:1010300093FAE9A2E7227A05790512940A7A0179EE
:101040000612940A22903052E0D2E6F0903053E03B
:101050002212DEF380F6F0903052E0D2E4F0024F3C
:1010600062F09030A1E0D2E0F07A09790012940A9F
:1010700022790412940A7A00790312940A7A007988
:101080000212940A2253C97F129590124F6822903F
:1010900003CCE070089003D1E05403600B7480909F
:1010A00003D1F0E49003CDF0229003D1E05403602B
:1010B00008A23B501812517D229003CEE09003CD40
:1010C000F0A23B5002800774819003D1F022748318
:1010D0009003D1F02279031293FAE9700A7902128F
:1010E00093FAE9648060051251E2C32212508FD353
:1010F00022C030C031A238507F9003D1E0A2E75027
:101100002D9003CCE0FA9003CDE06A600D1292BB03
:101110009003CCE0F912931C805E9003D1E06483CD
:10112000700312517D9003D1E0C333F0804AA23D99
:10113000504685D930740F5530F53075310074073D
:10114000783012884EAC30AD312CF874023D13F972
:10115000E813F87A0F7B001287CEE8F9E49CFA7462
:10116000119DFB12DF7212DFDEE96007D23E1250E2
:10117000A98005C23E1250D5D031D030229003CF85
:10118000E0FAA3E0FB12927A22900280E0600E4324
:10119000F7209003D1E0A2E740F843F72022A2F025
:1011A000900280E06016923BA23C500974BF552724
:1011B0004420F52722C2381250A9D238229002804A
:1011C000E0601E5327DEA23B50121251E28003431F
:1011D000F72079021293FAE9A2E750F312508FD266
:1011E00038227A00790312940A7A00790212940A5A
:1011F000229003D1E0540360159003CEE09003CD1C
:10120000F0A23B50030250CE74819003D1F022C073
:1012100030C031C2389003CFE4F0A37478F0E91203
:1012200052509003CEF01251F1D238D031D030224A
:10123000C030C0318930A23B50077A007B781292CF
:101240007AE530125250F99003CEF012931C80DBF5
:10125000242CF582E43473F583E49322EEC0E0900D
:1012600002C4E0FE79001245DA12C67FEEF912459B
:10127000DAD0E0FE2274E345E6FA78A9E66401706C
:10128000038AE62274FD5AF5E622EEC0E012D5800C
:101290004004790080647405655C700C12D4AAE97E
:1012A000FE125495EEF98052740F655C700874FD5F
:1012B00055E644E0F5E6740E655C700C78A9E664CA
:1012C00001700578B5E670CA123DC3E960C47410B8
:1012D000655C700A12525C755C137901801C740B9A
:1012E000655C7005125275800F7402655C70099020
:1012F00002F3E06003755C037902D0E0FE2212D4B1
:1013000044E9FA701690053EE004F0C394335004AB
:10131000740580027401900526F02274026A60F45C
:10132000E490053EF0E5ED60E722900526E0F92225
:10133000900526E0604FA23F5003125461D23A90CC
:10134000053FE060061251BD125189C2A8C2AC75BA
:10135000E80475E70075EE0075EF0053AD7FE4908B
:10136000052612538E600512544D70051254588094
:1013700011125453600712545364017005D2F012D5
:10138000465612933CE4900525F022900525F01274
:101390005453640222C030C031C032C03312927341
:1013A000E490053EF01261C91254C812D5B7501529
:1013B0009003D4C3E09411A3E0940040047900802A
:1013C0003F7402801312B710E9646070F01254C8C1
:1013D00012D2AB50E812540912538B600512544DCF
:1013E00070057900126029D2ACD2A89089C87830F3
:1013F000128749900527783012877E900525E0F9FD
:10140000D033D032D031D030221254BB43AD800023
:10141000740122900526E064057005740212546D73
:1014200022C23A12538F600512544D70081260E3C5
:101430007900126029A2A8C2A8740290052612544D
:101440006D92A8A2394005D2F012519E2212545337
:1014500064032212615AE92212B1657901126029EE
:1014600022125189791012DEF322900526F043AD45
:1014700080002278F48A828B8312877E088A828B8E
:1014800083A3A3A3A312877E22E6FA08E6FB08E65D
:10149000FC08E6FD2278D812548912B7159005276A
:1014A000EAF0A3EBF0A3ECF0A3EDF022900527E027
:1014B000FAA3E0FBA3E0FCA3E0FD2212B3F378DC87
:1014C000125489790102C13DE4F9FAFBFCFD02479F
:1014D0003D900526E0FA74026A600574046A7003A0
:1014E0001252FE22EEC0E0EFC0E01225035003D3FB
:1014F00080157404C0E012BAF0D0E0F97CE97D49AF
:1015000012824CE960E9C3D0E0FFD0E0FE22C0E0E7
:10151000C0D075D008C082C083C0F0C08BC08653D5
:1015200086C0C084C08512D3AE43AD8000D085D0C4
:1015300084D086D08BD0F0D083D082D0D0D0E0328F
:101540007582FB7583FF12888DE0F8A3E0F9A2F0A5
:10155000501CC3E89AE99B4007C3EC9AED9B4005F9
:10156000E8FAE9FB2274FF2A1A74FF3BFB22C3EA64
:1015700098EB995007C3EA9CEB9D5005ECFAEDFB04
:101580002274012A0AE43BFB22538BEF438B01793F
:101590005412F65EE9FA9005BEE0600D748C4AFACA
:1015A000795512F66B74018001E4900573F0229076
:1015B000304CE0C2E2F0E0C2E1F0E0C2E0F0740CD6
:1015C00090304FF075D1882243BA0843BA4090302A
:1015D00010E04448F0227C127D0079007AE17B0221
:1015E00012821E7C067D0079007ADB7B0212821E4D
:1015F000742490300CF0903050E0D2E6F0903056E9
:10160000E0D2E0F075D18D74049002E1F01255AF94
:1016100074029002E1F01255C822E5D1A2E75023EE
:101620009002E1E0F582758300C082C0837AB67BC8
:1016300049128E20D0E0D0E074049002E1F075D120
:101640008DC322E5D49002E2F0D322A28340037935
:101650000C22A28640037907227900229002E2E060
:10166000FAC39420500FE49005C2F09005C3E070D7
:101670003074FFF0229005C2E0FBEAC394A0500E44
:1016800074016B601C7401F0E49005C3F022EAC39E
:1016900094B1400D74026B60087402F0E49005C3CD
:1016A000F022795412F65EE9A2E15014740190051B
:1016B00087F0790F900588E0FA70127401F08012BB
:1016C0007402900587F0900588F079002274016A11
:1016D0007002790022EEC0E0E9FE900590E0602BF8
:1016E00014F064017025900591E0640170047E8C13
:1016F000800EE0A2E050097E817AE17B49128E20C3
:10170000E4900591F0EEF9D0E0FE22748C6E70F555
:10171000900591E004F074C8900590F0790080E79E
:10172000E9FC79007A0060079002DBE06C6047908A
:1017300002DEE0C394055006E004F00257D09002A8
:10174000DCE0FAA3E0FBC3EA9490EB94014008903C
:1017500002DBE044C0800FC3EA9408EB940040072A
:101760009002DBE04480F99002DBE0FAECF09002BA
:10177000DCE4F0A380C49002DCE02401F0A3E034B8
:1017800000F09002DCE0FAA3E0FB74086A7001EB61
:10179000700CE49002DEF09002DBE0F9802D749092
:1017A0006A700374016B70089002DBE044A080EB68
:1017B00074AE6A700374016B70119002DBE044E058
:1017C000F99002DC7490F0A37401F09002DBE0FA6F
:1017D00074605A6007E9A2E75002790022EEC0E087
:1017E000C030C0317E0012561A50699002E1E012FA
:1017F000891902035458FE5735580C581F58125671
:101800005C74049002E1F075D18D80489002E2E0B2
:101810009002E5F074059002E1F075D18E8035906C
:1018200002E2E09002E6F074039002E1F075D189E3
:101830001273E8801F1256A2E9FEEE600B7403904B
:1018400002E1F075D189800C74029002E1F053D26C
:10185000DF75D188EE700512564BE9FEEEF912578E
:1018600020E9F91256D5E9FEEE602A8E3075310076
:10187000C030C0317AE37B49128E20D0E0D0E0EE58
:10188000F912DE8F9005C2E0600B748F6E700674E3
:101890000A9005C3F0D031D030D0E0FE2243BC0224
:1018A00043BC0443BC0843BC1043BC2043BC40437E
:1018B000BC802212589DE49002D8F0227B057A0069
:1018C000796E12DEED227884E6086024E64572F532
:1018D0007208E6FA740C5A600908E6F56E08E6F537
:1018E0006F2274035A602908E6F57008E6F5712244
:1018F000E6F45572F57208E6FA740C5A6007756ED4
:1019000000756F002274035A6006757000757100CF
:101910002274021288A090056BE0C394074008E48B
:10192000F09002D8E004F09002D8E0C3940740029F
:10193000E4F01258C6125A0990056BE0FA9002D8EA
:10194000E06A700690056BE004F07530018E31900E
:1019500002D8E0783012884EAA30753001F5319007
:10196000056BE0783012884E9002D8E02473F8E5D9
:1019700030564AFEEAFF12589DEEA2E0500EEFA24A
:10198000E05004D2A18002C2A153BCFDEEA2E150FE
:101990000EEFA2E15004D2A28002C2A253BCFBEE21
:1019A000A2E2500EEFA2E25004D2A38002C2A353DF
:1019B000BCF7EEA2E3500EEFA2E35004D2A48002E3
:1019C000C2A453BCEFEEA2E4500EEFA2E45004D246
:1019D000A58002C2A553BCDFEEA2E5500EEFA2E542
:1019E0005004D2A68002C2A653BCBFEEA2E6500E9F
:1019F000EFA2E65004D2A78002C2A753BC7F900595
:101A00006BE004F07F020288B6C2AF7B077A0079F0
:101A10007312DEED9002ECE060099002F2E06003E8
:101A2000025AF3E52B7066E56EA2E050034378405E
:101A3000A2E15003437740A2E25003437640A2E381
:101A40005003437540A2E45003437440A2E55003A1
:101A5000437340A2E65003437720E56FA2E05003B2
:101A6000437920A2E15003437910A2E25003437965
:101A700008A2E35003437904A2E45003437902A28D
:101A8000E55003437901A2E65003437810E570A2C4
:101A9000E05003437610A2E15003437510A2E250D8
:101AA00003437410A2E35003437310A2E4500343B2
:101AB0007508A2E55003437408A2E6500343730877
:101AC000E571A2E05003437708A2E1500343770495
:101AD000A2E25003437702A2E35003437701A2E45A
:101AE0005003437604A2E55003437602A2E6500376
:101AF0004376019002ECE0600B9002F2E06401603A
:101B000003025BD4E56EA2E05003437840A2E150AB
:101B100003437740A2E25003437640A2E3500343DD
:101B20007540A2E45003437440A2E5500343734060
:101B3000A2E65003437720E56FA2E05003437920EB
:101B4000A2E15003437910A2E25003437908A2E3D3
:101B50005003437904A2E45003437902A2E5500301
:101B6000437901A2E65003437810E52B7066E570D7
:101B7000A2E05003437610A2E15003437510A2E2A5
:101B80005003437410A2E35003437310A2E45003C4
:101B9000437508A2E55003437408A2E6500343735B
:101BA00008E571A2E05003437708A2E150034377B0
:101BB00004A2E25003437702A2E35003437701A259
:101BC000E45003437604A2E55003437602A2E650B4
:101BD000034376019002E8E07007E52A700343783A
:101BE00006D2AF22EEC0E0C030C031EAFCEBFD7E91
:101BF00002ECF8EDF97A0A7B001287CEEA24C7F5E9
:101C000082EB345CF583E493C0E0746E2EF8D0E090
:101C1000F6ECF8EDF97A0A7B001287CE883089312C
:101C2000AC30AD311E74FF6E70C7757100D031D00D
:101C300030D0E0FE22C0309005B6E0FA7B00125BA7
:101C4000E4756E00D03022C020A2AF5004D20080D4
:101C500002C200C2AF75F00A788AE684125CA5F56C
:101C60006E125C9EFA8A6F75F00A08E684125CA513
:101C7000FB8B70125C9EFC8C717572107886E6FD91
:101C8000740C5D600708A66E08EA800A74035D6044
:101C90000608EBF608ECF6A20092AFD02022E6751B
:101CA000F00A84E5F024C7F582E4345CF583E4931C
:101CB0002212615AE970044372082212615AE964DF
:101CC000027003437204223F065B4F666D7D077FFF
:101CD0006F777C395E79716F76061E703854373FA6
:101CE0007367506D783E3E1C366E5B1818762C0874
:101CF0007601D240227881760380F074041288A0A5
:101D00008E30EA2530F582EB3400F583E493F5302C
:101D1000746E2EF8E530C394304017E530C3943A22
:101D20005010E5302497F582E4345CF583E493F6B3
:101D30008043853032E53224D1FCE4345CFDE5306B
:101D4000C394414011E530C3945B500AEC24BFF5C5
:101D500082ED34FF80D5E530C39461400CE530C39B
:101D6000947B500FEC249F80E674206530700476DD
:101D700000800276400E74046E70857572007F04D8
:101D80000288B67C2A7D0079007A407B0512821E8B
:101D90007428900544F0900549F0743C900562F079
:101DA000742890054EF0900553F0900558F090057A
:101DB0005DF0900567F022EEC0E0E9FE12E00D5004
:101DC00003D3800FEEF912DFF84003C38005EEF96C
:101DD000125DDAD0E0FE22790922EEC0E0C030C008
:101DE00031E9FE600574016E701B12445540398E56
:101DF00030753100C030C0317A887B48128E20D0D7
:101E0000E0D0E0801674026E701E125F217900121D
:101E10006072E9FA70081244A84008C38023740273
:101E20006A60F87901126029EEF912E0227530013A
:101E3000753100EE783012884E900540E04530F064
:101E4000D3D031D030D0E0FE22EEC0E0EFC0E0C011
:101E5000307530007E00EEF912DFF85014EEF91202
:101E600067B0EEF9125DB75008EE90051BF07530C3
:101E7000010EEEC3940440DE12615AE9FF90051B87
:101E8000E064FF703274FF6F602D12E00D4028EFA8
:101E9000F91267B07530027E000FEFC39404400260
:101EA0007F00EFF912E00D5007EF90051BF080075F
:101EB0000EEEC3940340E2A930D030D0E0FFD0E072
:101EC000FE229002D2E07006900550E0F9229005C3
:101ED00055E0F9229002D2E0701EE9900550F074AE
:101EE00002699005407005E0D2E2F022E0C2E2F023
:101EF000E970057900126029229002D2E0701190F9
:101F00000550E0FA74026A600574036A7011D32206
:101F1000900555E0FA74026A60F474036A60EFC3D6
:101F20002222C3E9F5F0C0F0125DD7D0F0E5F099B8
:101F300040057A007B0022E5F075F005A42442FA02
:101F4000F582E5F03405FBF583D322740165467014
:101F500005E9C33304F9E9903000F022900500E070
:101F60007017E9900546F07402699005407005E02D
:101F7000D2E0F022E0C2E0F02264017016E99005A0
:101F80004BF07402699005407005E0D2E1F022E068
:101F9000C2E1F022900500E07006900546E0F922CB
:101FA0006401700690054BE0F92279002212DB40B3
:101FB00022E960057401697003125FE0E990050091
:101FC000F022125FE043BB8043BE08903014E0D2A1
:101FD000E3F0903011E0D2E7F053BEFB53BEFB229A
:101FE000903057E0D2E0F0903056E0D2E7F0E0C217
:101FF000E6F0229002D2E0700479028002790312A6
:10200000DFE92243F7209051F9E06403700579027B
:1020100012408612EA659051F9E064037005790276
:10202000124086790612DFE922E96009125EF95052
:102030000474808001E490051CF022E99030576020
:1020400005E0D2E2F022E0C2E2F022E9600543DCE2
:1020500010800353DCEF787DEAF6087600221260E8
:102060004B75FC0A227A0280F57A0312604B75FCEC
:10207000052274041288A089329002D2E0F533124E
:10208000615AE9FAE53365326045853330740225DB
:1020900030FEE43400FF8A82858230EE65307001C4
:1020A000EF700CA2A89200C2A812B16512610EE5F1
:1020B000321260D6500479018017EE65307001EF5E
:1020C0007009E5331260D6A20092A87902800279E5
:1020D000007F040288B69002D2F0E0F912603B1251
:1020E00044A8229002D2E0700FA2305016C23012E3
:1020F0006104700F7401F022A2315007C2311261E5
:102100000460F12212A3A9900550E064022290021B
:10211000D2E07004D2308002D23112A3D6229002D3
:10212000D2E07012900550E06402701B12610E74D0
:1021300001900550F022900555E06402700912618B
:102140000E7401900555F0229002D3E0F9126069F7
:10215000229002D2E0F91260652290051AE0F9227D
:10216000E490051EF074FF90051BF0E990051AF04D
:10217000C394045007E490051DF0D3227402900527
:102180001DF0C32290051BE0FA74FF6A60347402EC
:102190006A600574036A700974FE2AF9126072801D
:1021A00019EA600574016A70111244FB1244FA9036
:1021B000051BE0F9125FB112414C90051BE0F912CA
:1021C0006160227401784CF22279087A817B0212D4
:1021D000B41C2253C9FB43D602E490300BF043D623
:1021E0000175D5FF227A0A001AEA70FB2253D6DF66
:1021F00089D5E5D6A2E750FA2243D62075D5FFE56A
:10220000D6A2E750FAA9D52274081288A08A348B86
:10221000358A308B318C328D337410783012853E94
:10222000A93012654A853531A93112654A853430A5
:10223000A93012654A026281EEC0E0126526790576
:1022400012654A126546E9FE126536EEF9D0E0FEE7
:1022500022EEC0E07E0F80091E126238E9A2E05033
:102260000E43F7201261E5EE70EEE49002F4F0D038
:10227000E0FE22D0E0D033D032D031D0302212650F
:10228000367F080288B643D620EB903009F0EA90FA
:102290003008F0EDC313EC131490300AF0E5D6A229
:1022A000E750FA2274081288A08C308D317582EEC6
:1022B0007583FF12888D783412873AEAFEEBFF129D
:1022C000625112652679031263368003126345EE6C
:1022D00054036008E5307002E53170F0C3E53094D6
:1022E00004E53194004044C3E5309400E5319402A4
:1022F0004008753200753302800C74FC5530F5329D
:1023000074FF5531F533AC32AD33EEFAEFFB1262A8
:1023100086EE2532FEEF3533FFC3E5309532F530DA
:10232000E5319533F53180B4126345E5307002E54F
:102330003170F502627E12654AAA34AB35AC36AD17
:102340003712620822126546E98E828F83F0A3AEAF
:1023500082AF83E53024FFF530E53134FFF53122DB
:10236000C030C031C032C03374041288618A308BEF
:10237000318C328D3378301288CD7C04FD7582F734
:102380007583FF12888DAA82AB8312655C74FC1280
:1023900088757582FB7583FF12888D783012873AB5
:1023A000AA30AB31AC32AD3374FC12887502627561
:1023B00074081288A09089C878301287499002CD9D
:1023C000783012877E89308E318E328E3374037866
:1023D00030128557AA30AB31FCFD1263608A348B12
:1023E000358C368D379002C5783412877E90487CC4
:1023F00078301285A5AA30AB31AC32AD33126360B0
:102400008A308B318C328D339002C9783012877EBE
:102410007F080288B674081288A09002CD78341222
:10242000873A9002C9783012873A7830793412832B
:10243000734004C30264D49002C5740878341285D2
:1024400057783412858F78341288CDFC7D0212655E
:102450005C74FC12887590496D783012874990023F
:10246000CD78301285D8900525E0640270659048DB
:10247000807830128749795B78301285EE90057646
:10248000E0F530A3E0F5318E328E337408783012E7
:102490008557783079341283734038900574E0FCA6
:1024A000A3E0FDECCDCE9002C5F0A3EDF0A3EEF0DD
:1024B000A3E4F09002CD783012873A9002C97830C8
:1024C0001286519089C878301287499002CD7830B1
:1024D00012877ED3026410C030C031C032C0339046
:1024E00089C878301287499002CD783012877ED320
:1024F000D033D032D031D03022903058E0C2E4F026
:1025000075D61053BBDF53BBBF53BB7F1261D322C1
:1025100075880022790012DFE94007790112DFE9AE
:102520005003758801229005C4E012891901003515
:10253000653365C297229005C4E0128919010045F0
:10254000654365D297221261F9221261ED2274FC73
:10255000128875D033D032D031D03022C030C03163
:10256000C032C0337582F57583FF12888D783012C2
:10257000873A78301288CD1262A480D2740912880A
:10258000A07404128861E9FE9089C87834128749E2
:1025900012652674906E600574AB6E7013EEF912BE
:1025A00061ED79001261ED79001261ED7900800230
:1025B000EEF91261ED7538008538307582FB758350
:1025C000FF12888DE5822530FEE5833400FF126519
:1025D00046E98E828F83F074087834128557E0F5CF
:1025E00030753100753200753300783479301285DA
:1025F000790538E538C3940440BE126536AA34AB79
:1026000035AC36AD3774FC1288757F090288B67414
:10261000041288A043BB4043D62074019005C4F047
:10262000C2008E30E53024EDF582E43449F583E4D0
:1026300093F912657C8A308B318C328D339049F856
:102640007830128327601D9089C878301283276004
:10265000139049FC783012869478301283276004F6
:10266000D200800E0EEEC3940440B77AF17B49127B
:102670008E20A2007F040288B61263B0228003126B
:1026800070BC1271131251891273A6C23AE57AC353
:10269000940C50097409657A6003857A7BE57A1297
:1026A00089190603B8667F66B866B366AE66126AB5
:1026B0007580CF12692380CAE57B1289190000CE8C
:1026C00066C3669002F4E06005757A0680B4757A98
:1026D0000080AFA2684003790022C268125E4922DE
:1026E000125CF5229005B6E0FAE912894F01AEAF0F
:1026F0009D670E815367869567872B678A99678CDC
:102700005C67A69567A71F67AC3F67B19567CF9DCC
:1027100067E16267E37667EA6267EB7667A66774EC
:10272000019002ECF0E49002F2F0229002F2E00458
:10273000F0C394024070E4F09002ECF0F52B2274A8
:10274000019002EDF090056CE0705B742AF090054A
:102750006DF022E490056CF090056DF0E49002EDD0
:10276000F02274FF1267A79005B6E0700312739C05
:102770007AA87B48801B74011267A79002E7E0C328
:1027800094C850099005B6E060031273A07AAC7B40
:1027900048128E2022757A0C2212730E22757A0945
:1027A00074019005BFF0222AF91272C0125CF52262
:1027B000EEC0E0E9FE12615AE96E7003125330D0A8
:1027C000E0FE22EEC0E0E9FE90057DE06005E4F069
:1027D00043F72012716FC2AF90057BE02401F0A394
:1027E000E03400F0D2AF9005C1E064017006857A54
:1027F0007B757A0674016E70191266D3E9FA74015A
:102800006A7005757A00802874026A7023126184E8
:10281000801E74026E7019A268500E790012DFF8E3
:1028200040E1790212DFF840DA790112DFF840D393
:10283000D0E0FE22C020A2F092009262D260900509
:10284000B4E012891900007C684B689005A1E0246F
:10285000FFF8A3E034FFF9E8C0E0E9C0E07C007DC8
:102860000090059DE0FAA3E0FBA20092F012554013
:10287000D0E0D0E090059DEAF0A3EBF0D0202274E8
:102880000C1288A01254AC8A348B358C368D37905C
:1028900089D4783012874978347930128429853484
:1028A000308535318536328537339089E87838126E
:1028B000874978307938128429E5309005A4F09062
:1028C00089E8783012874978347930128429E530E4
:1028D0009005A5F07F0C0288B6C030C031C032C070
:1028E00033A2F050137AA67B051254731295F1901F
:1028F00005AEEAF0A3EB801E9089C87830128749B4
:102900009005AA783012877E9005A6783012877ECF
:102910009005AEE4F0A3F012729AD033D032D031E9
:10292000D030227A237B49128E20E4900584F080F7
:10293000061266E412715E7408657A7036790112C7
:1029400067C312DEB7E912894F012025576902AF2C
:102950006869CF686931697A1C7B49128E20E490DE
:102960000579F0757A0680CC757A0974019005BFF7
:10297000F080C1227A01795A12F66B75F73D7A0020
:102980007B20128ADF80ED9005BAE060647A2E7BAE
:1029900049128E207A8C795512F66B43CB10C2AF58
:1029A000903058E04460F01258B374FF90301AF041
:1029B000903012F075A00075BC00787479697A00C7
:1029C0007B007C1488828983E4938A828B83F0A3C2
:1029D000AA82AB8388828983A3A882A9831CEC7016
:1029E000E374FC55CB4401F5CB53CCF3E5CC12009A
:1029F000002279A112F65EE9445CFA795B12F66B6B
:102A000022EEC0E0800343F720900587E060F7796D
:102A1000411292187EFA790112DEF343F7201EEE7E
:102A200070F47401900589F07A3E7B49128E20D0B3
:102A3000E0FE2243F72012716F900587E0FA7402DE
:102A40006A700312698722E9128919AE015D6A531F
:102A50006A536A7A4B7B49128E20857B7A22D2CACE
:102A6000900589E0600B7A557B49125CFB43F720A7
:102A7000221258BC227A597B49128E20126A5E803B
:102A80000C12DEB7126A47127151126A337409656B
:102A90007A60EE2274081288A090057EF0A3F09070
:102AA00089C8783412874978341288CDFC7D047A3D
:102AB000007B0C12655C74FC128875F8F9F530E83F
:102AC0005407FA74046A70028E30E82400F582E933
:102AD000340CF583E0423074076A700DE530601AFB
:102AE00090057E126D94F08E30E8240108E93400E0
:102AF000F9C3E89400E9940440C59049147834126D
:102B000085A5904918783012874978307934128336
:102B1000734094126B1B7F080288B690057EE0FA22
:102B2000A3E0FB2274019002F3F053BBDF53BB7FA1
:102B3000EAF9126679125395E99005A3F0640160F1
:102B400002C322D3228008125421127277C261A2DA
:102B5000605022740190053FF0125330C26090051E
:102B60009D12704740E1A2625007D2F01268348093
:102B7000DEC2F080F722C262D2609005B4E0640247
:102B80006005C2F012683422C030C031C032C03398
:102B9000E912894F000609AA6B0B3A6C0DE86C7EAE
:102BA000496D86446DB1446D816DC2AF900592123E
:102BB0006D9D7003026D849002EDE070329005B659
:102BC000E0FB74FF6A70107401126D877003026D70
:102BD000841273A0026D8474016A6003026D8474B0
:102BE000FF126D876003026D8412739C026D847402
:102BF000FF6A702790056CE0647F700A74D4F090CF
:102C0000056DF0026D84E064D47004742A80EFE0F6
:102C1000642A6003026D84747F80E374016A600338
:102C2000026D8490056CE0647F60E0E0642A60CC13
:102C3000E064D46003026D8480DDC2AF900593121E
:102C40006D9D7003026D849002ECE0703F9002EF86
:102C5000E0FB74FF6A7016EBC394045004E0048038
:102C6000A174046B6003026D847401809574016A21
:102C70006003026D84EBC394024004E0148083740B
:102C8000016B6003026D847404026C029002F2E036
:102C9000FB702C788AE6FB74FF6A700FEBC3941705
:102CA000500406026D847600026D8474016A60032C
:102CB000026D84EB600416026D847617026D8474D5
:102CC000016B6003026D84788BE6FB74FF6A700809
:102CD000EBC3943B50D080CA74016A6003026D84D8
:102CE000EB70D3763B026D84C2AF900594126D9D5C
:102CF0007003026D8474FF6A7028D2F012683490F9
:102D000005A1E024FFF8A3E034FFF975830575827F
:102D10009DC3E098A3E099506B90059D126D9402BD
:102D20006C0274016A705DD2F012683490059DE007
:102D30007002A3E0604E90059DE024FFF0A3E03414
:102D4000FF026C02757A0C803B9005A1E0F8A3E0CD
:102D5000F975830575829DC3E098A3E099400790BB
:102D6000059DE4F0A3F0126E9B12873A9005AA78B5
:102D70003012877E7C087AA67B05790A128B0D803B
:102D8000031266E40270B32BF91272C01266E0906F
:102D900005B6E022E02401F0A3E0340022E0FAE4EA
:102DA000F0D2AFEA22C030C031C032C0339002F45A
:102DB000E060047902800279011267C3125413A201
:102DC000685009790012DFE94002C268A268400831
:102DD000900578E0A2E1502CE4900578F012533091
:102DE000432C09126E9B12873A9005AA78301287FD
:102DF0007E7C087AA67B05790A128B0D1272777594
:102E00007A0C80067406657A600B125330E49002E7
:102E1000F3F0026E98A2635003127283126B45A204
:102E2000635010C26312703612873A9002CD783028
:102E300012877E12687F9002CD783012873A900513
:102E400080783012830F6008900580783012877E7A
:102E50009002C9783012873A7583027582CD783036
:102E600012839940339005B4E064026005126B76DA
:102E70008026A26140227AB07B48128E209089C8B9
:102E800078301287499002CD783012877E12532A0B
:102E9000E9C394025002D2600270B37AA67B051295
:102EA00054739002CD78302274041288A0F9124E27
:102EB000C81265101264F912660FE492E09002F4F1
:102EC000F0700302701574019002F3F0E490056A4B
:102ED000F0900586E0700E125CB1793212DEF37468
:102EE00001900586F079001272FDC23CE490053F26
:102EF000F0D23BF91252307C177D0079007A9D7B2D
:102F00000512821EC261432C09126A949005A1EA3F
:102F1000F0A3EBF09005A11289017ACC7B48128EC8
:102F200020D0E0D0E0E49002F5F09005BDF0127200
:102F30008390059DE0F8A3E0F97583057582A1C330
:102F4000E098A3E0995009C26390059DE4F0A3F0D6
:102F500078907601A2634008900578E0A2E05024C2
:102F600012703612873A78301288CD9005A67830E4
:102F700012873A78301288CD7AD67B48128E207428
:102F8000F8128875C26090059D127047500812545F
:102F900021C26112730E7C027A9D7B057912128B1D
:102FA0000D900578E0F5828E83C082C0837AE67B3F
:102FB00048128E20D0E0D0E0A2634008900578E06F
:102FC000A2E0501FC2639005AA783012873A90029F
:102FD000CD783012877E7C067D0079007ACB7B032A
:102FE00012821E78907601790012520F1273B37C10
:102FF0001A7B647A20790A12DFAC7E3C790112DEFA
:10300000F31254131EEE70F49005B6E0F912520F4D
:103010007F040288B6790112E00D4015790112E0B3
:103020000D400E7ABD7B48128E207AC87B48125C18
:10303000FB757A0C80DA7C087AA67B05790A127116
:10304000FB9005AA783022126B1E126B2422C0302E
:10305000C031C032C03374019005C5F0740C657A7C
:103060006019126E9B12873A9005AA783012877EFB
:103070007C087AA67B05790A128B0D7AF77B4812B9
:103080008E20740190053FF0125330C23C79141227
:10309000DEF31251BD12518979001272B6792812ED
:1030A000DEF31273A69002F4E06003126514E4905C
:1030B00002F3F0D033D032D031D030227A087B49BD
:1030C000128E20126EA88009126DA512DEB7126B47
:1030D000887406657A7006900579E060EB12704E90
:1030E0007409657A6003757A0822787FE6700208B1
:1030F000E6600B787FE624FFF608E634FFF6788377
:10310000E6600A16E6646470090876002276C8084C
:103110007601227884760008760008760078817639
:1031200000D24022787FE6700208E6700F7881E6D0
:103130006402700478897601788176007881E6FAF5
:1031400008E66A6004EAF6D240221258B31258BC6C
:1031500022127124A2405005C2401258BC221271A2
:1031600024A2405009C2407A687B49125CFB22903D
:103170000572E064017010E4F0900571E0A2E15086
:1031800006C2E1F012724C12615AE9900570F02209
:1031900074229005B6F0E49005BBF090059DF0A375
:1031A000F074011271BAE41271BA12724C12728F79
:1031B00074029005B4F012724122900570F0C2F0D2
:1031C0001268D9127262221272285021127257E4C8
:1031D0009005BBF07C017AB47B0579221271FB90DB
:1031E00005B4E064026006E060037402F02290051A
:1031F00072E0C394024003E014F022E9CEC0E0EC98
:10320000CFC0E08A828B83EEF9128B30E9F00EA3F7
:10321000DFF5D0E0FED0E0FF22EAC0E0AA81AB9B60
:103220007C01128B0DD0E022900573E060117AA230
:103230007B48128E20E4900573F0127190C322D364
:10324000229005B4E0FA7922127219229005B6E0B4
:10325000FA7921127219227921128B30E99005B680
:10326000F0227C027A9D7B0575F00A900570E0A43F
:103270002408F9128B0D227C027A9D7B05791212AB
:103280008B0D227C027A9D7B0579121271FB2290B4
:1032900005BBE0FA792012721922900570E06403F0
:1032A00070047914800675F00AE0A4F97C087AA607
:1032B0007B05128B0D22E9C39433500312520F2267
:1032C000EEC0E0E9FE9005B6E06E7003C3801C120C
:1032D00072B6EEC394335012EE9005B6F074FF90C0
:1032E0000572F0900571E0D2E1F0D3D0E0FE22EE5D
:1032F000C0E0E9FE1295DFEEF9D0E0FE221272EF97
:10330000E9FAC394065005EA9005B5F0D322A23934
:1033100050131273B3740C5527640C600EA23B92C9
:10332000F012519E221251BD1273A62200050A0FFF
:10333000101214161718191A1B1C1D1E1F202122EB
:10334000232425262728292A2B2C2D2E2F303132D5
:10335000333435363738393A3B3C3D3E3F404153B4
:10336000BAFE43BA0143BA06E5BA903010E044060B
:10337000F043BB0FE5BB903011E0440FF053BADFD0
:10338000C28553BAEFC284747F90056CF090056DCE
:10339000F01264F92253BAFE43BA012243BA012261
:1033A00053BAFEC28022A2394008D2397401900576
:1033B0007AF022A2395008C239740190057AF022BD
:1033C00090057AE0601CA239500643BA01E4F0226D
:1033D00090058CE070091273A0E490057AF0221435
:1033E000F022E490058CF0229002E5E0F890059937
:1033F000C3E098A3E094005008900599E8F0A3E496
:10340000F09002E6E0FA9005C6E0F8A3E0F9C3EA1E
:1034100098E49950089005C6EAF0A3E4F090059866
:10342000E004F0C39432500302756D900599E0F802
:10343000A3E0F9E875F07BA4F8AAF075F07BE9A4A5
:103440002AF912756E75F096A4FAACF075F096EB49
:10345000A42CFBC3E89AE99B5017740490059BF0D9
:10346000740190058EF090058FF0789076020274CA
:10347000F312756E75F0A0A4FAACF075F0A0EBA491
:103480002CFBC3E89AE99B5018740790059BF074D5
:10349000019005C0F09005C1E064FF7056741E8075
:1034A0005112756E75F0DCA4FAACF075F0DCEBA48B
:1034B0002CFBC3EA98EB995007741090059B80325F
:1034C000740190059BF074FF9005C1F0E49005C075
:1034D000F090058FE06401700CA261789050047642
:1034E0000380027601E4F090058EF090058DF09057
:1034F000058AF09005C674E8F0A37403F09005996E
:10350000E4F0A3F0900598F090059CE0FA90059BFC
:10351000E06A600BE090059CF0E4900597800590D0
:103520000597E004F09005BAE0700990059BE090E3
:1035300005BAF022900597E0C39405400AE4F090A4
:10354000059BE09005BAF09005BAE06404701E9007
:10355000058DE0640170167409657A6010757A094A
:1035600074019005BFF07AD67B49128E2022900517
:10357000C6E0FAA3E0FBEA22FFFFFFFFFFFFFFFF29
:10358000FFFFFFFFFFFFFFFFFFFFFFFFFFFFFFFF4B
:10359000FFFFFFFFFFFFFFFFFFFFFFFFFFFFFFFF3B
:1035A000FFFFFFFFFFFFFFFFFFFFFFFFFFFFFFFF2B
:1035B000FFFFFFFFFFFFFFFFFFFFFFFFFFFFFFFF1B
:103FF000FFFFFFFFFFFFFFFF0000000000000000C9
:00000001FF
