:10000000027FED024E22FFFFFFFFFFFFFFFFFFFF1A
:10001000FFFFFFFFFFFFFFFFFFFFFF024C35FFFF6A
:10002000FFFFFF0255DB8A828B8375F0077B04A9F3
:10003000F01293F5E9F005F0A3DBF4228A828B83BA
:1000400079077B04E030F001E4FA12940509A3DBA0
:10005000F3E030F0026404FA7905129405097A019C
:10006000029405FFFFFFFFFFFFFFFFFFFFFFFFFF02
:10007000FFFFFFFFFFFFFFFFFFFFFF02446FFFFFD8
:10008000024275029337024A550245FE02460002BB
:100090009327025D7802D65302469C0246AA02D7F5
:1000A000AC02D7F002D8A002D72302DF0002DF2D76
:1000B00002DE3402DF5C22000022000002D3400294
:1000C000D5B002F20D023FA50252D302F24002E681
:1000D000DA02F31402F36802F43002216302249A74
:1000E00002245B0224620224F40223FB022A90020F
:1000F00029DD0255B1025DEE0244C602446102C52B
:10010000950249E602C911025D16025D282200002F
:1001100022000002C80502C81702C6BC024434020D
:10012000C40C02CB0702CBC202CAA8025E62025D07
:10013000B202FB2402F89202459D025DA102FA9CE4
:1001400002FAAC025DC702A83302456602A84D025E
:10015000AB8202AB8B02ABBD02B00202AEFB02B1BE
:100160001B02B27D02B57E02964702BB1D02A7AC00
:1001700002C07A02BFDE02A713025FF02200002253
:10018000000002A807024562024564220000024303
:10019000B90243BD0243C10243C50243C80243CB77
:1001A0000243CE0243D10243990243AB0243D4023D
:1001B0005DFE025F750245F522000022000002325A
:1001C0004A0233820224B902232A0245F60245F884
:1001D0000245F70231E20232490245FA0245F902CC
:1001E00045FB0245FC0232BC0245FD124284B900C7
:1001F00003024272E479477806B800028004F709E6
:10020000D8FCE4790878F8B800028004F709D8FC33
:10021000E4900000780179118002F0A3D8FCD9FAAB
:100220009005C4AA82AB839049577805790180155F
:10023000E493A3AC82AD838A828B83F0A3AA82ABC2
:10024000838C828D83D8E9D9E7900280AA82AB8320
:10025000904957780179018015E493A3AC82AD836E
:100260008A828B83F0A3AA82AB838C828D83D8E9A8
:10027000D9E7124A7575D000758100759B0175002C
:10028000FF0241EB790122903062F043CE09E5CEC6
:100290007A057B00128B9953CFFCE5CF1242AC7AE2
:1002A000051242B77A407B06128B992243CF809089
:1002B0003058E0D2E5F022124333D2E6F022EEC00D
:1002C000E0EFC0E0C030E9FEEAFF8B301242E7EE1B
:1002D000903061F0EF903063F0E530124287D0301B
:1002E000D0E0FFD0E0FE22125F4D43CB2079011217
:1002F000FD4443CB03E5CB53CCF3E5CC53CEFE22F8
:10030000E9333354FCC0E074F355CCFAD0E04AF53D
:10031000CC53CCEF743F55CC4480F5CC74FC55CB1A
:100320004402F5CB124331C2E6F0124331C2E5F08C
:10033000227A507B00128B99903058E02243A3041C
:10034000903064E04430F07544057B677A087905A5
:100350001242BE7901124300754430754600229066
:100360000500E07015790012FE3C500BA2A89233F4
:10037000C2A8D2F012459D75880022900500E07059
:1003800017790012FE3C500D7900125DC775880187
:10039000A23392A8227588002212435F903011E0A8
:1003A000D2E2F0E0D2E4F053BBEF22903011E0D281
:1003B000E4F043BB1012437B2253BBFB2243BB043C
:1003C0002253BBEF22D29222C29222D29422C29412
:1003D00022A29222790A12442C22EEC0E0E9FE7495
:1003E000046E702E900500E0700E790112FE3C50F4
:1003F000071291F179018014900500E064017012F8
:10040000790012FE3C500B1291F17900125DB61288
:1004100091E3EEF9D0E0FE227900124477C231C2B6
:10042000327401784CF2E49002D1F022800100E9AC
:100430001970FB2274021288B58930EAFEEBFF9036
:100440000283E0F5317901124477EEFAEFFBA9302F
:1004500012C7269200A931124477A2007F020288B7
:10046000CB125F7E740180BF1292FE75C51922C047
:100470008B538BFB020280A2AF92F0C2AF75AA0031
:10048000900283E9F064FF6038E9543F23239047EA
:10049000762582F582E43583F583740293C0E07497
:1004A0000393C0E0E493F9740193903042F0E9F0D3
:1004B0009002807402F0A3D0E0F0A3D0E0F075AA1F
:1004C00002A2F092AF22E930E20CD0E0D0E0E4905A
:1004D000049CF002C44A02C3EE90048CE064046001
:1004E0000302A32D74081288B58931FF7E07856D3C
:1004F0003202A42874011288B5E9FE125F87E9FF71
:10050000900500E0F530EE6F6011EFC39402500BE0
:10051000A2A89200C2A8D2F012459DEEF9125DB6D3
:1005200012412E5006125379D38017EE6F6012EFEE
:10053000C39402500CA930125DB612412EA2009253
:10054000A8C37F010288CBEEC0E0E544FE754430CD
:10055000125F1312C8DA8E444003C38001D3D0E087
:10056000FE22D322D32274081288B58A308B318CB4
:10057000328D33129BED8A348B358C368D37785A19
:10058000E2601590495378301285A578347930129D
:1005900082DF6004E4785AF27F080288CBC020A290
:1005A000F092007902125DA1A20092F012FBA292D9
:1005B000007900125DA1A200D020225386C043869C
:1005C000088A828B837A00E0F8E0600764FF701F7E
:1005D000E8F4F8E8C39A4002E8FAC3741C2582F5EF
:1005E00082E5833400F583D9DEEAF95386C22279A5
:1005F000FF5386C222222222222222222222D32218
:1006000022C08B538BEF438B011236788027C08B2F
:10061000538BEF438B01123685801AC08B538BEFBF
:10062000438B01128B3C800DC08B538BEF438B01AE
:10063000128B5F8000D08B2274041288B5EAFEEB27
:10064000FF12A0AAE9FA90058BE0601B8E828F83CF
:1006500078007902E06463F0A3E824FF18E934FF2E
:10066000F9E87001E970EDEA60299005B3E06402F1
:10067000600C9005A0E064017002A3E0701B90483C
:10068000DC7830128749AA30AB31AC32AD33790017
:1006900012A207D37F040288CBC380F89002ECE05B
:1006A00060041262422212463822C030C031C03289
:1006B000C0339002ECE06005126304800E12A207C2
:1006C000E96004D2F08002C2F0A2F0D033D032D080
:1006D00031D03022C030C031900594E05433F0A2C4
:1006E000915003D2E7F0A2905004E0D2E6F0A2824B
:1006F0005004E0D2E3F0A2815004E0D2E2F0900591
:1007000095E05403F0A2935003D2E3F0A292500478
:10071000E0D2E2F0900594124766600B900591E0FC
:100720002AF07909128DFC900594E0C412476760A5
:100730000B900592E02AF0790B128DFC9005951232
:100740004766600B900593E02AF0790D128DFC90BE
:100750000594E01313543FF0900595E01313543FB4
:10076000F0D031D03022E0540F2415F582E4344922
:10077000F583E493FA2273CDF0491BC63C4A05FD8C
:10078000034AA4E5434A682C294A040000000002F9
:10079000000076636D6275665F666C61673A20255E
:1007A000640A006D696E3A2025640A00636F756EF5
:1007B000745F6C65645F6F66663A2025640A006941
:1007C000646C650046504F4E0A00000101027364DC
:1007D00020256420696E6974206661696C0A007660
:1007E0002D0A00762B0A00706F7765725F6B657952
:1007F0005F636E743A2564200A006E756D3D256452
:100800002C746F74616C3D25640A00463A253032C1
:10081000785F0053494E474C45204C6F6F700A007B
:100820004E6F204465766963652100206F6E005429
:100830006F74616C3A25640A00427265616B202511
:100840006C642C20256C640A006465766963655FBE
:10085000636867203D2025640A007461736B20661D
:100860006C61736820657869740A007461736B5FEA
:10087000666C6173680A0000040000000800001A3A
:10088000000000200000006C65645F6F66660A006F
:10089000416761696E0A007461736B5F69646C65BE
:1008A0000A00736F66745F706F776572646F776E3E
:1008B0000A00706F776572206F6E2E2E2E0A00412F
:1008C0006761696E206F6E0A006F666600746173FF
:1008D0006B5F706F7765726F66660A0002000000DA
:1008E0006972746320706F776572206F6E0A00738F
:1008F000746172740A006E6F742066726973740A90
:10090000007379735F63746C2E766F6C756D653AE6
:100910002025640A0000010000FF00000000000024
:10092000FF000001006164635F63683A2025640A88
:1009300000B5CDB5E7B9D8BBFA2E0A0052494646F4
:100940009F90AB154572726F720A00FFFFFFFFFFA9
:10095000FFFF00010000000101E803CAC0E0E493CA
:10096000A3C582CCC582C583CDC583F0A3C582CC87
:10097000C582C583CDC583DAE5D0E0CA22C0E0E8F0
:10098000C0E0E9C0E0EAC0E0EBC0E0C082C083E5BF
:1009900081C39409F582E4E59B940054034400F577
:1009A00083E0F8A3E0FAA3E0FBA3E0F9C3E58294B7
:1009B00003F582E5839400F583EAF0A3EBF0A3E965
:1009C000F0A3E8F0E5822406F582E43583F583D0D0
:1009D00083D082D0E0FBD0E0FAD0E0F9D0E0F8D0CC
:1009E000E0A2E7D0E02275AA0012CFCD75AA0222BC
:1009F000D08BD0E0D0E05002D2307408C0E074CD8B
:100A0000C0E032D08B9004F8E0F532740128F53064
:100A1000E439F531E43532F532753300D0E0D0E019
:100A20007408C0E074FDC0E032D08B1243DAD0E02D
:100A3000D0E07469C0E0742CC0E0E932D08BD0E023
:100A4000D0E032D08B75E906D0E0D0E074A7C0E0EA
:100A500074E5C0E0329002D1E06003E4F022A2AF7E
:100A6000500FA2AB500B7401299005BBF0E070FD54
:100A70002212FD442243F720124AB91264AA80FED2
:100A80007954124601E9FAE490058CF0EAA2E450A8
:100A90002274EF5AFA795512460E74019005BDF092
:100AA0007AE07B48128ED3740190058CF0792A127B
:100AB000931422E49005BDF022EEC0E012433D12F3
:100AC000446890309FE0D2E1F07AEF7B48128ED3F9
:100AD000D289790112FD44758800124418125035EC
:100AE0007A1079B2128DE9126E6D752700752F009C
:100AF0007401900284F0E49005B9F09005B4F074AC
:100B00000190051BF090051AF0757B00E4900547F5
:100B1000F0900586F0900588F0900589F09002EC41
:100B2000F07C03FDF97AEC7B0212821E1270BB127C
:100B30008B76788A7600087600E4903029F0742F5E
:100B4000903028F0124A8012565674FF9005C0F07B
:100B5000752C0A9005C2F01270A5126EA41256B040
:100B600012688E12633D12632612643CE492E09098
:100B700002EDF0126341125BD7D2AF7401900545CC
:100B8000F0C2F012674BE4900545F0C2F012674BDB
:100B9000126F821268AB53BAFEC28053BAFED28083
:100BA00012500B43F7207E0779011266151EEE7076
:100BB000F7126F21789076019002EDE0602E90059B
:100BC0008CE0640160267AF67B48128ED3757A0633
:100BD0007401900586F0F529F52AF52B7996129186
:100BE000FE752900752A00752B00801B790212FE04
:100BF0005E400E790012FE5E4007790112FE5E50E3
:100C0000067401900586F0741E9005B5F0F9127017
:100C1000109005B4E0F91270499005B5E0F58275C1
:100C20008300C082C0837A017B49128ED3D0E0D08A
:100C3000E0D0E0FE22C0E0C0D075D010C082C083FA
:100C4000C0F0C08BC0865386C0C084C08553C27FAD
:100C5000125A9B054C1258C27403554C6003024E45
:100C600005054B754C00E54BA2E05003024E05050F
:100C700048754B009005BBE06003E014F0E548A226
:100C8000E040031250F8A2C140199005C4E064018D
:100C90007011E4F0C0E0C0E07A927B47128ED3D0AE
:100CA000E0D0E0E54875F00584E5F06003024E050C
:100CB000E54560041545E545126E441257B61246E7
:100CC000D41270E60547E547A2E0401975480012C6
:100CD0006F48900542E004F0C394974008E4F07434
:100CE0000190057DF0E54775F06484E5F0700E74C1
:100CF00001652D7005752D008003752D0174C86583
:100D0000476003024E0575470090058FE06401704F
:100D100010900541E004F06404700B740190058E9E
:100D2000F0E4900541F09005C2E0FA74FF6A6005B6
:100D3000EA600214F09005C0E0FA74FF6A6005EA08
:100D4000600214F00549E54975F03C84E5F0600364
:100D5000024E05054A788BE6943B500306800B76DD
:100D60000018E6C3941740F47600754900900579A1
:100D7000E0606D792D129314900540E004F0900529
:100D80007EE06401700D900540E0640F702F7941A2
:100D9000124E1890057EE06402700D900540E064EC
:100DA0001E701A7942124E1890057EE06403700D91
:100DB000900540E0643C70057943124E1890054060
:100DC000E0C3943D4002E4F0E0F582758300C08208
:100DD000C0837AA37B47128ED3D0E0D0E075490060
:100DE000900585E004F0F582758300C082C0837AA7
:100DF000AC7B47128ED3D0E0D0E0900585E0C39461
:100E0000104002E4F0D085D084D086D08BD0F0D0D2
:100E100083D082D0D0D0E032129314740190057840
:100E2000F022C0E0C0D075D008C082C083C0F0C03E
:100E30008BC0865386C0C084C08553AD7F43F720E6
:100E400012559ED085D084D086D08BD0F0D083D060
:100E500082D0D0D0E03274021288B5E54669606C69
:100E60008946A2AF5004D2008002C200C2AFE9128C
:100E7000892E00007B4E784E8E300EE5CEEEF912B4
:100E8000430074035530790024CAF582E43447F5F1
:100E900083E4932EFEE4903029F0742F903028F0F4
:100EA0007407C39EFA74F855E24AF5E274F855C225
:100EB0004AF5C27530338931EE7830128840E5301A
:100EC000F5C575C670125DA1A20092AF7F020288BF
:100ED000CB75D91075E8067C44E5EFA2E750FAEA35
:100EE000F5EDEBF5ED1CEC70F079011291FE22743A
:100EF0004C903052F074E2903053F0903059E0D280
:100F0000E3124FC37AFF7B7F124ED1903053E0D271
:100F1000E2F07A05124FF7124FBA50FB7A007B804D
:100F2000124ED17A0579041294057AFF790312944E
:100F3000057A7F7902129405124FBA50FB790B1291
:100F40004FE7D2E3F0903059E0C2E3124FE1C2E242
:100F5000F07A007B00124ED1903053E0C2E5F0E011
:100F6000C2E1F079011291FE903052E0C2E6F0E069
:100F7000D2E7124FE1D2E0F07903124FE7C2E3F07B
:100F8000E0D2E5F079341291FE124FDBD2E1124F3C
:100F9000EC124FCC79061293F5E9A2E150F69030AD
:100FA00052E0C2E4F0125056C23B74419003CCF0C0
:100FB0001252001251C512504B2279021293F5E9D8
:100FC000A2E722F07A017900129405227A057905C8
:100FD0001294057A01790612940522903052E0D2DB
:100FE000E6F0903053E0221291FE80F6F0903052FD
:100FF000E0D2E4F0024EE979041294057A00790314
:101000001294057A0079021294052253C97F125472
:10101000E3124EEF22E99030526005E0545F800306
:10102000E044A0F0E92478F582E43481F583E49388
:10103000903098F0221293AB7895768022C2F07AA5
:10104000077B0712403C7895768122D2F07A077BA5
:101050000712403C80E2789576017A077B071240C0
:1010600026900708E0A2E75004740B8002740F90EA
:10107000070BF02275E8067840790BE5EFA2E75000
:10108000FA75ED0075ED00E824FF18E934FFF9E882
:101090007001E970E6229003CCE070089003D1E083
:1010A0005403600B74809003D1F0E49003CDF022E0
:1010B0009003D1E054036008A23B50181251B922AA
:1010C0009003CEE09003CDF0A23B500280077481E4
:1010D0009003D1F02274839003D1F022790312930C
:1010E000F5E9700A79021293F5E9648060051252FD
:1010F00025C322125096D322C030C031A2384003FB
:101100000251B47895E6A2E7501379061293F5E9F7
:10111000A2E140030251B47895E6C2E7F69003D10C
:10112000E0A2E7503BE6A2E0400612503D0251B477
:101130009003CCE0FA9003CDE06A600D12943090F9
:1011400003CCE0F9125015806B9003D1E0648370FA
:10115000031251B912504B9003D1E0C333F08054C5
:10116000A23D505085D930740F5530F5307531009F
:1011700074077830128863AC30AD312CF874023DBE
:1011800013F9E813F87A0F7B001287E3E8F9E49C7F
:10119000FA74119DFB1245BB8930AA307B007C009C
:1011A0007D0012FE31E96007D23E1250B08005C2C8
:1011B0003E1250DCD031D030229003CFE0FAA3E0D1
:1011C000FB12939F22900284E0601543F720900366
:1011D000D1E0A2E740F87895E6A2E740F943F7208E
:1011E00022A2F0900284E06016923BA23C50097467
:1011F000BF55274420F52722C2381250B0D23822DA
:10120000900284E0601E5327DEA23B50121252254A
:10121000800343F72079021293F5E9A2E750F31215
:101220005096D238227A0079031294057A00790216
:10123000129405229003D1E0540360159003CEE090
:101240009003CDF0A23B50030250D574819003D19E
:10125000F022C030C031C2389003CFE4F0A37472E2
:10126000F0E91252999003CEF0125234D238D031B4
:10127000D03022C030C031893012503DA23B5007DF
:101280007A007B7212939FE530125299F99003CE47
:10129000F012501512504B80D52486F582E434703C
:1012A000F583E49322EEC0E0900283E0FE7903121E
:1012B000447712E572EEF9124477D0E0FE2274E32F
:1012C00045E6FA78A9E6640170038AE62274FD5ABD
:1012D000F5E622EEC0E012F4454004790080647423
:1012E00005655C700C12F36FE9FE125550EEF98043
:1012F00052740F655C700874FD55E644E0F5E674C1
:101300000E655C700C78A9E66401700578B5E6702E
:10131000CA123FB7E960C47410655C700A1252A526
:10132000755C137901801C740B655C70051252BEEC
:10133000800F7402655C70099002ECE06003755CDC
:10134000037902D0E0FE2212F309E9FA7016900543
:101350003EE004F0C394335004740580027401909D
:101360000526F02274026A60F4E490053EF0E5ED93
:1013700060E722900526E0F922900526E0604FA262
:101380003F50031254AAD23A90053FE06006125231
:10139000001251C5C2A8C2AC75E80475E70075EE2D
:1013A0000075EF0053AD7FE49005261253D760051A
:1013B00012549670051254A1801112549C600712A9
:1013C000549C64017005D2F012459D125074E49053
:1013D0000525F022900525F012549C640222C030AD
:1013E000C031C032C03312936FE490053EF0125FFB
:1013F000F612558312F48750159003D4C3E094116C
:10140000A3E0940040047900803F7402801312D658
:1014100003E9646070F012558312F19E50E8125493
:10142000521253D4600512549670057900125E4032
:10143000D2ACD2A89089DD78301287499005277800
:1014400030128793900525E0F9D033D032D031D0D7
:10145000302212557643AD8000740122900526E0BB
:101460006405700574021254B622C23A1253D86051
:10147000051254967008125F137900125E40A2A8FC
:10148000C2A874029005261254B692A8A23940054B
:10149000D2F01251E12212549C640322125F87E9B8
:1014A0002212D0717901125E40221251C5791012B8
:1014B00091FE22900526F043AD80002278F48A82C6
:1014C0008B83128793088A828B83A3A3A3A312879B
:1014D0009322D030D0E0FFD0E0FE227A01790012D2
:1014E000940522EEC0E0EFC0E0C030753000E5307A
:1014F000C333FEE433FFEE2449F582EF3480125506
:1015000010244AF582EF348012551C40E10254D277
:10151000F583E493FA791F129405EE22F583E493A0
:10152000FA791E12940574204530FA791D1294053B
:101530000530E530C3941B22E97002809E12957A33
:101540001294D622E6FA08E6FB08E6FC08E6FD223D
:1015500078D812554412D608900527EAF0A3EBF08C
:10156000A3ECF0A3EDF022900527E0FAA3E0FBA3A3
:10157000E0FCA3E0FD2212D2E678DC1255447901AA
:1015800002E030E4F9FAFBFCFD0246AAE4FAFB793A
:10159000687C04E3092AFAE3093BFBDCF6229005A8
:1015A00026E0FA74026A600574046A7003125347F5
:1015B00022EEC0E0EFC0E01225035003D380157483
:1015C00004C0E012D9E3D0E0F97C3C7D4912824CA2
:1015D000E960E9C3D0E0FFD0E0FE22C0E0C0D075F2
:1015E000D008C082C083C0F0C08BC0865386C0C004
:1015F00084C08512F27343AD8000D085D084D0863C
:10160000D08BD0F0D083D082D0D0D0E0327582FBA6
:101610007583FF1288A2E0F8A3E0F9A2F0501CC382
:10162000E89AE99B4007C3EC9AED9B4005E8FAE98C
:10163000FB2274FF2A1A74FF3BFB22C3EA98EB9942
:101640005007C3EA9CEB9D5005ECFAEDFB227401B8
:101650002A0AE43BFB22538BEF438B017954124659
:1016600001E9FA9005BDE0600D740C4AFA79551253
:10167000460E74018001E4900548F02243BB0153FB
:101680009CDF90304CE0C2E2F0903044E090304C6F
:10169000E0C2E1F0E0C2E0F0740490304FF075D1A8
:1016A000882243BE0243BE01903014E04403F0227E
:1016B0007C0C7D0079007AE07B0212821E7C057D25
:1016C0000079007ADB7B0212821E742490300CF0C9
:1016D00043BA02539CFD75D18974039002E0F090E7
:1016E0003050E0D2E6F0903056E0D2E0F075D18D87
:1016F00074049002E0F012567C74029002E0F01242
:1017000056A243BE03E5BE22E5D1A2E750239002D4
:10171000E0E0F582758300C082C0837A257B4912A0
:101720008ED3D0E0D0E074049002E0F075D18DC388
:1017300022E5D49002E1F0D3229002E1E0FAC394D2
:1017400020500FE49005C1F09005C2E0703074FFA6
:10175000F0229005C1E0FBEAC394A0500E74016B27
:10176000601C7401F0E49005C2F022EAC394B14019
:101770000D74026B60087402F0E49005C2F022431D
:10178000BA80903010E0D2E7F0A287401474019044
:101790000588F0790F900589E0FA70127401F080E5
:1017A000127402900588F0900589F0790022740186
:1017B0006A7002790022EEC0E07E0012570850697C
:1017C0009002E0E012892E02032958D3570A58E10B
:1017D00057F45712573974049002E0F075D18D8098
:1017E000699002E1E09002E4F074059002E0F07587
:1017F000D18E80569002E1E09002E5F074039002F1
:10180000E0F075D18912710E804012577FE9FEEE2B
:10181000600B74039002E0F075D189800C74029023
:1018200002E0F053D2DF75D188EE700512577FE9E0
:10183000FEEE6016EEF9128DFC9005C1E0600B74AF
:101840008F6E7006740A9005C2F0D0E0FE2243BD90
:101850000243BD0843BD1043BC8043BC0443BC02EB
:1018600043BC012212584EE49002D8F0227B057A44
:1018700000796E12FD3D227884E6086024E6457208
:10188000F57208E6FA740C5A600908E6F56E08E687
:10189000F56F2274035A602908E6F57008E6F571C1
:1018A00022E6F45572F57208E6FA740C5A60077570
:1018B0006E00756F002274035A60067570007571B2
:1018C000002274021288B5900543E0C394074008D3
:1018D000E4F09002D8E004F09002D8E0C39407400E
:1018E00002E4F01258771259BA900543E0FA9002D8
:1018F000D8E06A7006900543E004F07530018E313F
:101900009002D8E07830128863AA30753001F53142
:10191000900543E078301288639002D8E02473F891
:10192000E530564AFEEAFF12584EEEA2E0500EEFA6
:10193000A2E05004D2B18002C2B153BDFDEEA2E1DB
:10194000500EEFA2E15004D2B38002C2B353BDF7F0
:10195000EEA2E2500EEFA2E25004D2B48002C2B472
:1019600053BDEFEEA2E3500EEFA2E35004D2A780E6
:1019700002C2A753BC7FEEA2E4500EEFA2E45004D3
:10198000D2A28002C2A253BCFBEEA2E5500EEFA28F
:10199000E55004D2A18002C2A153BCFDEEA2E650E4
:1019A0000EEFA2E65004D2A08002C2A053BCFE906B
:1019B0000543E004F07F020288CBC2AF7B077A00C8
:1019C000797312FD3DE56EA2E05003437840A2E139
:1019D0005003437740A2E25003437640A2E3500312
:1019E000437540A2E45003437440A2E5500343739F
:1019F00040A2E65003437720E56FA2E0500343790D
:101A000020A2E15003437910A2E25003437908A2D7
:101A1000E35003437904A2E45003437902A2E55062
:101A200003437901A2E65003437810E570A2E05029
:101A300003437610A2E15003437510A2E250034322
:101A40007410A2E35003437310A2E45003437508DB
:101A5000A2E55003437408A2E65003437308E571FE
:101A6000A2E05003437708A2E15003437704A2E2C7
:101A70005003437702A2E35003437701A2E45003EB
:101A8000437604A2E55003437602A2E65003437670
:101A900001E52D7003437806D2AF22C020A2AF50DB
:101AA00004D2008002C200C2AF75F00A788AE684D0
:101AB000125AF9F56E125AF2FA8A6F75F00A08E6B0
:101AC00084125AF9FB8B70125AF2FC8C71757210E9
:101AD0007886E6FD740C5D600708A66E08EA800A49
:101AE00074035D600608EBF608ECF6A20092AFD036
:101AF0002022E675F00A84E5F0241BF582E4345BCD
:101B0000F583E49322125F87E9700443720822127E
:101B10005F87E964027003437204223F065B4F66ED
:101B20006D7D077F6F777C395E79716F76061E70E9
:101B30003854373F7367506D783E3E1C366E5B18E5
:101B400018762C087601D240227881760380F074D2
:101B5000041288B58E30EA2530F582EB3400F58327
:101B6000E493F530746E2EF8E530C394304017E5F9
:101B700030C3943A5010E53024EBF582E4345AF542
:101B800083E493F68043853032E5322425FCE43447
:101B90005BFDE530C394414011E530C3945B500ACE
:101BA000EC24BFF582ED34FF80D5E530C39461406D
:101BB0000CE530C3947B500FEC249F80E6742065C5
:101BC0003070047600800276400E74046E70857565
:101BD00072007F040288CB7C2A7D0079007A497BE1
:101BE0000512821E742890054DF0900552F0743C49
:101BF00090056BF07428900557F090055CF0900507
:101C000061F0900566F0900570F022EEC0E0E9FE0C
:101C100012FE5E5003D3800FEEF912FE4B4003C359
:101C20008005EEF9125C2ED0E0FE22790922EEC08A
:101C3000E0C030C031E9FE600574016E701B1244D3
:101C4000F440398E30753100C030C0317ACE7B47D8
:101C5000128ED3D0E0D0E0801674026E701E125D3A
:101C6000777900125EA2E9FA70081245474008C36E
:101C7000802374026A60F87901125E40EEF912FE68
:101C800073753001753100EE783012886390054924
:101C9000E04530F0D3D031D030D0E0FE22EEC0E0CD
:101CA000EFC0E0C0307530007E00EEF912FE4B5000
:101CB00014EEF9126602EEF9125C0B5008EE900574
:101CC0001BF07530010EEEC3940440DE125F87E90D
:101CD000FF90051BE064FF703274FF6F602D12FEF1
:101CE0005E4028EFF91266027530027E000FEFC3E6
:101CF000940440027F00EFF912FE5E5007EF90055A
:101D00001BF080070EEEC3940340E2A930D030D020
:101D1000E0FFD0E0FE229002D2E07006900559E08C
:101D2000F92290055EE0F9229002D2E07020E9905D
:101D30000559F07401699005497005E0D2E2F0227E
:101D4000E0C2E2F074026970057900125E402290F0
:101D500002D2E07011900559E0FA74016A600574CE
:101D6000036A7011D32290055EE0FA74016A60F490
:101D700074036A60EFC32222C3E9F5F0C0F0125C7D
:101D80002BD0F0E5F09940057A007B0022E5F07554
:101D9000F005A4244BFAF582E5F03405FBF583D376
:101DA00022740165467005E9C33304F9E9903000F7
:101DB000F02212F9E322E960057401697003125DF3
:101DC000E2E9900500F022125DE243BB1043BB0440
:101DD000903011E0D2E2F0E0D2E4F053BBF753BB15
:101DE000F722903056E0C2E7F0E0D2E6F02290020F
:101DF000D2E0700479028002790312FE3C2243F79C
:101E0000209051F9E0640370149003A1E0700E5328
:101E1000A9FE9003B0E014F043A901C3229051F948
:101E2000E06403700579021240861228AD9051F9E2
:101E3000E0640370057902124086790612FE3C22A6
:101E4000E96009125D4F500474808001E490051C24
:101E5000F022E99030576005E0D2E2F022E0C2E2E1
:101E6000F022EEC0E07E0012C98D5003D380080E30
:101E7000EEC3940840F1C3D0E0FE22E9600543DCE4
:101E800010800353DCEF787DEAF608760022125EBC
:101E90007B75FC0A227A0280F57A03125E7B75FC60
:101EA000052274041288B589329002D2E0F533120B
:101EB0005F87E9FAE5336532604585333074022582
:101EC00030FEE43400FF8A82858230EE6530700196
:101ED000EF700CA2A89200C2A812D071125F3DE56B
:101EE00032125F06500479018017EE65307001EF01
:101EF0007009E533125F06A20092A8790280027988
:101F0000007F040288CB9002D2F0E0F9125E5212F8
:101F10004547229002D2E0700EA2315015C2311214
:101F20005F33700EE4F022A2325007C232125F33E8
:101F300060F22212C334900559E06401229002D26B
:101F4000E07004D2318002D23212C361229002D2F8
:101F5000E07011900559E064017019125F3DE49042
:101F60000559F02290055EE064017008125F3DE4BF
:101F700090055EF0229002D3E0F9125E9922900261
:101F8000D2E0F9125E952290051AE0F922E490055C
:101F90001EF074FF90051BF0E990051AF0C394043D
:101FA0005007E490051DF0D322740290051DF0C384
:101FB0002290051BE0FA74FF6A603474026A6005BF
:101FC00074036A700974FE2AF9125EA28019EA602D
:101FD0000574016A70111291F11291E390051BE0F2
:101FE000F9125DB612412E90051BE0F9125F8D22A9
:101FF0007401784CF22279087A857B0212D30F2281
:1020000053C9FB43D602E490300BF043D60175D59B
:10201000FF227A0A001AEA70FB2253D6DF89D5E53F
:10202000D6A2E750FA2243D62075D5FFE5D6A2E71F
:1020300050FAA9D52274081288B58A348B358A30B3
:102040008B318C328D337410783012853EA930126A
:102050006377853531A931126377853430A9301221
:1020600063770260AEEEC0E01263537905126377C6
:10207000126373E9FE126363EEF9D0E0FE22EEC054
:10208000E07E0F80091E126065E9A2E0500E43F762
:1020900020126012EE70EEE49002EDF0D0E0FE222D
:1020A000D0E0D033D032D031D030221263637F08F9
:1020B0000288CB43D620EB903009F0EA903008F04C
:1020C000EDC313EC131490300AF0E5D6A2E750FAF2
:1020D0002274081288B58C308D317582EE7583FFBD
:1020E0001288A2783412873AEAFEEBFF12607E1261
:1020F000635379031261638003126172EE540360CB
:1021000008E5307002E53170F0C3E5309404E53144
:1021100094004044C3E5309400E5319402400875D2
:102120003200753302800C74FC5530F53274FF5563
:1021300031F533AC32AD33EEFAEFFB1260B3EE257E
:1021400032FEEF3533FFC3E5309532F530E531959A
:1021500033F53180B4126172E5307002E53170F50B
:102160000260AB126377AA34AB35AC36AD37126080
:102170003522126373E98E828F83F0A3AE82AF8320
:10218000E53024FFF530E53134FFF53122C030C0B1
:1021900031C032C03374041288768A308B318C326D
:1021A0008D3378301288E27C04FD7582F77583FFE9
:1021B0001288A2AA82AB8312638974FC12888A7582
:1021C00082FB7583FF1288A2783012873AAA30AB5F
:1021D00031AC32AD3374FC12888A0260A2740812EA
:1021E00088B59089DD78301287499002CD78301219
:1021F000879389308E318E328E3374037830128516
:1022000057AA30AB31FCFD12618D8A348B358C3688
:102210008D379002C5783412879390478A783012B0
:1022200085A5AA30AB31AC32AD3312618D8A308BCB
:10223000318C328D339002C978301287937F080237
:1022400088CB74081288B59002CD783412873A9002
:1022500002C9783012873A78307934128373400497
:10226000C30263019002C57408783412855778342C
:1022700012858F78341288E2FC7D0212638974FC27
:1022800012888A9048DC78301287499002CD7830E5
:102290001285D8900525E06402706590478E7830ED
:1022A000128749795B78301285EE900575E0F5303C
:1022B000A3E0F5318E328E3374087830128557786A
:1022C0003079341283734038900573E0FCA3E0FD4D
:1022D000ECCDCE9002C5F0A3EDF0A3EEF0A3E4F0B8
:1022E0009002CD783012873A9002C9783012865128
:1022F0009089DD78301287499002CD78301287932B
:10230000D302623DC030C031C032C0339089DD7825
:10231000301287499002CD7830128793D3D033D0D2
:1023200032D031D03022903058E0C2E4F075D6106F
:1023300053BBDF53BBBF53BB7F12600022758800C5
:1023400022790012FE3C4007790112FE3C500375D1
:102350008801229005C3E012892E01006263606348
:10236000C297229005C3E012892E01007263706348
:10237000D297221260262212601A2274FC12888AD6
:10238000D033D032D031D03022C030C031C032C092
:10239000337582F57583FF1288A2783012873A78F8
:1023A000301288E21260D180D274091288B57404A8
:1023B000128876E9FE9089DD7834128749126353DA
:1023C00074906E600574AB6E7013EEF912601A793A
:1023D0000012601A790012601A79008002EEF91278
:1023E000601A7538008538307582FB7583FF128856
:1023F000A2E5822530FEE5833400FF126373E98E87
:10240000828F83F074087834128557E0F530753187
:1024100000753200753300783479301285790538CB
:10242000E538C3940440BE126363AA34AB35AC36BE
:10243000AD3774FC12888A7F090288CB7404128835
:10244000B543BB4043D62074019005C3F0C2008E53
:1024500030E5302440F582E43449F583E493F91201
:1024600063A98A308B318C328D3390494B7830128E
:102470008327601D9089DD7830128327601390498F
:102480004F783012869478301283276004D200800F
:102490000E0EEEC3940440B77A447B49128ED3A249
:1024A000007F040288CB1261DD228003126E1612B7
:1024B0006E6D1251C51270CCC23AE57AC3940C50BD
:1024C000097409657A6003857A7BE57A12892E069C
:1024D00003E564AC64E564E064DB6412691F80CFEB
:1024E00012679580CAE57B12892E0000FB64F064B8
:1024F0009002EDE06005757A0680B4757A0080AFD1
:10250000A2784003790022C278125C9D229005B522
:10251000E0FAE912896401AEAF77650A866F658AD1
:1025200073658F8165A66F65B16F65CF7765E13C97
:1025300065E35065EA3C65EB5065F86574FF12652C
:10254000F99005B5E070031270C27ADF7B47801BFB
:1025500074011265F99002E6E0C394C85009900531
:10256000B5E060031270C67AE37B47128ED3227502
:102570007A0C2212706822757A0974019005BEF0F7
:102580002290057EE004F0900579E0700E90057EC3
:10259000E0640460067401900579F090057EE0F532
:1025A00082758300C082C0837AE77B47128ED3D0C6
:1025B000E0D0E090057EE064017008752901752A7D
:1025C00000800BE06402700A752900752A01752BE2
:1025D0000022E06403700A752900752A00752B013A
:1025E00022E064047012752900752A00752B00E43E
:1025F000900579F090057EF0222AF912701A125B8C
:102600004922EEC0E0E9FE125F87E96E70031253C3
:1026100079D0E0FE22EEC0E0E9FE90057DE06005A5
:10262000E4F043F720126EC9C2AF90057BE02401AD
:10263000F0A3E03400F0D2AF9005C0E06401700672
:10264000857A7B757A0674016E7019126500E9FA55
:1026500074016A7005757A00802874026A7023120A
:102660005FB1801E74026E7019A278500E7900124C
:10267000FE4B40E1790212FE4B40DA790112FE4B2B
:1026800040D3D0E0FE22C030C031C020A2F0920082
:102690009272D2709005A012891690059C1289162C
:1026A0007AFA7B47128ED374FC12888A9005B3E0C5
:1026B00012892E0000EA66B9669005A0E024FFF8B2
:1026C000A3E034FFF9E8C0E0E9C0E07C007D0090C1
:1026D000059CE0FAA3E0FBA20092F012560DD0E0B8
:1026E000D0E090059CEAF0A3EBF0D020D031D030C0
:1026F00022740C1288B51255678A348B358C368D4E
:10270000379089E9783012874978347930128429F2
:102710008534308535318536328537339089FD787B
:102720003812874978307938128429E5309005A32A
:10273000F09089FD783012874978347930128429F5
:10274000E5309005A4F07F0C0288CBC030C031C0CA
:1027500032C033A2F050137AA57B051254BC125537
:102760008C9005ADEAF0A3EB801E9089DD783012E5
:1027700087499005A978301287939005A578301283
:1027800087939005ADE4F0A3F0126FF4D033D0320C
:10279000D031D030227A977B48128ED3E4900585D1
:1027A000F0800612650D126EB87408657A7057795C
:1027B00001126615128E24900585E0640F70157560
:1027C0002900752A00752B00757A097A877B4812D3
:1027D0008ED380D2E9128964012025E66702AFFB1F
:1027E00067CFFB67A3677A907B48128ED3E490058E
:1027F00078F0900540F0757A0680AB757A0974011F
:102800009005BEF080A0227A01795A12460E75F723
:102810003D7A007B20128B9980ED9005B9E0606DC8
:10282000752900752A00752B007AA27B48128ED379
:102830007A0C795512460E43CB10C2AF903058E057
:102840004460F012586474FF90301AF0903012F027
:1028500075A00075BC00780779687A007B007C144D
:1028600088828983E4938A828B83F0A3AA82AB83D4
:1028700088828983A3A882A9831CEC70E374FC5529
:10288000CB4401F5CB53CCF3E5CC1200002279A167
:10289000124601E9FA43CD8074BF5A441CFA795BB1
:1028A00012460E7A0679A212460E22EEC0E080038E
:1028B00043F720900588E060F779411293147EFA7F
:1028C00079011291FE43F7201EEE70F47401900519
:1028D0008AF07AB27B48128ED3D0E0FE2243F720F2
:1028E000126EC9900588E0FA74026A700312681AC1
:1028F00022E912892EAE010769FD68FD687ABF7B67
:1029000048128ED3857B7A22D2CA90058AE0600B6A
:102910007AC97B48125B4F43F7202212586D227A06
:10292000CD7B48128ED3126908800C128E24126857
:10293000F1126EAB1268DD7409657A60EE227408DC
:102940001288B590057FF0A3F09089DD7834128766
:102950004978341288E2FC7D047A007B0C1263898A
:1029600074FC12888AF8F9F530E85407FA74046A9E
:1029700070028E30E82400F582E9340CF583E042E1
:102980003074076A7012E530601F90057FE0240103
:10299000F0A3E03400F08E30E8240108E93400F9B7
:1029A000C3E89400E9940440C090487778341285D5
:1029B000A590487B78301287497830793412837338
:1029C000408F1269CA7F080288CB90057FE0FAA386
:1029D000E0FB2274019002ECF053BBDF53BB7FEAB3
:1029E000F91264A61253DEE99005A2F064016002B8
:1029F000C322D322800812546A126FD1C271A2700E
:102A00005022740190053FF0125379C27090059CDA
:102A1000126DA740E1A2725007D2F012668680DEE6
:102A2000C2F080F722C272D2709005B3E0640260F7
:102A300005C2F01266862274041288B5E9FE60258C
:102A40009002EAF0FA9002E9E06A7003026ADCEAB6
:102A5000F08E30753100C030C0317A0B7B48128E59
:102A6000D3D0E0D0E0EE1289640006097F6A0B8AB9
:102A70006A0D926A7E9F6A869A6AB19A6AD76AC21A
:102A8000AFE4900591F0D2AF8052C2AFE4900592CE
:102A900080F3C2AFE490059380EB757A0C803D9093
:102AA00005A0E0F8A3E0F975830575829CC3E09862
:102AB000A3E099400790059CE4F0A3F0126BDD12AF
:102AC000873A9005A978301287937C087AA57B0510
:102AD000790A12461B8005EEF912650D7F04028803
:102AE000CBC030C031C032C0339002EDE060047919
:102AF000028002790112661512545CA2785009799D
:102B00000012FE3C4002C278A2784008900577E0AF
:102B1000A2E1502CE4900577F0125379432E09126C
:102B20006BDD12873A9005A978301287937C087A7A
:102B3000A57B05790A12461B126FD1757A0C8006A7
:102B40007406657A600B125379E49002ECF0026B24
:102B5000D4A2735003126FDD1269F4A2735010C235
:102B600073126D9612873A9002CD783012879312C5
:102B700066F19002CD783012873A90058178301254
:102B8000830F600890058178301287939002C9788E
:102B90003012873A7583027582CD7830128399405E
:102BA000339005B3E064026005126A258026A271A5
:102BB00040227A137B48128ED39089DD78301287B9
:102BC000499002CD7830128793125373E9C394026F
:102BD0005002D270D033D032D031D030227AA57B9F
:102BE000051254BC9002CD78302274041288B5F9D5
:102BF000124E5612633D12632612643CE492E0903A
:102C000002EDF07003026D7574019002ECF0E49037
:102C1000058BF0900587E0700E125B0579321291FA
:102C2000FE7401900587F07900127057C23CE49061
:102C3000053FF0D23BF91252737C177D0079007A80
:102C40009C7B0512821EC271432E0912693E9005BB
:102C5000A0EAF0A3EBF09005A01289167A2F7B482A
:102C6000128ED3D0E0D0E0E49002EEF09005BCF0FC
:102C7000126FDD90059CE0F8A3E0F975830575827D
:102C8000A0C3E098A3E0995009C27390059CE4F0BA
:102C9000A3F078907601A2734008900577E0A2E057
:102CA0005024126D9612873A78301288E29005A56A
:102CB000783012873A78301288E27A397B48128E5F
:102CC000D374F812888AC27090059C126DA75008C0
:102CD00012546AC2711270687C027A9C7B05791268
:102CE00012461B900577E0F5828E83C082C0837AFE
:102CF000497B48128ED3D0E0D0E0A2734008900503
:102D000077E0A2E0501FC2739005A9783012873A8D
:102D10009002CD78301287937C067D0079007ACBC3
:102D20007B0312821E789076017900125252127043
:102D3000D990487F783012874978301288E27464DD
:102D4000C0E09048837830128749AA30AB31AC326A
:102D5000AD33790A12FDD274FB12888A7E3C790168
:102D60001291FE12545C1EEE70F49005B5E0F9125B
:102D70005252026ADC790112FE5E4015790112FEA0
:102D80005E400E7A207B48128ED37A2B7B48125BF2
:102D90004F757A0C80DC7C087AA57B05790A126F66
:102DA000559005A97830221269CD1269D322C0301E
:102DB000C031C032C03374019005C5F0740C657A1F
:102DC0006019126BDD12873A9005A978301287934B
:102DD0007C087AA57B05790A12461B7A5A7B481231
:102DE0008ED3740190053FF0125379C23C791412CE
:102DF00091FE1252001251C57900127010792812FA
:102E000091FE1270CC9002EDE06003126341E490F9
:102E100002ECF0026BD47A6B7B48128ED3126BEA11
:102E20008009126AE1128E24126A377406657A707C
:102E300006900578E060EB126DAE7409657A600368
:102E4000757A0822787FE6700208E6600B787FE6E4
:102E500024FFF608E634FFF67883E6600A16E66497
:102E60006470090876002276C80876012278847694
:102E70000008760008760078817600D24022787FBC
:102E8000E6700208E6700F7881E6640270047889C3
:102E90007601788176007881E6FA08E66A6004EACD
:102EA000F6D2402212586412586D22126E7EA24051
:102EB0005005C24012586D22126E7EA2405009C2C7
:102EC000407ABF7B47125B4F22900547E064017058
:102ED00010E4F0900546E0A2E15006C2E1F0126F66
:102EE000A6125F87E9900545F02274189005B5F0A9
:102EF000E49005BAF090059CF0A3F07401126F14F1
:102F0000E4126F14126FA6126FE974029005B3F009
:102F1000126F9B22900545F0C2F012674B126FBCF6
:102F200022126F825021126FB1E49005BAF07C0139
:102F30007AB37B057922126F559005B3E064026085
:102F400006E060037402F022900547E0C39402405B
:102F500003E014F022E9CEC0E0ECCFC0E08A828B1F
:102F600083EEF9124628E9F00EA3DFF5D0E0FED09B
:102F7000E0FF22EAC0E0AA81AB9B7C0112461BD095
:102F8000E022900548E060117AC47B47128ED3E4BA
:102F9000900548F0126EEAC322D3229005B3E0FAFE
:102FA0007922126F73229005B5E0FA7921126F73BE
:102FB000227921124628E99005B5F0227C027A9CFC
:102FC0007B0575F00A900545E0A42408F912461B1C
:102FD000227C027A9C7B05791212461B227C027AA3
:102FE0009C7B057912126F55229005BAE0FA792080
:102FF000126F7322900545E0640370047914800613
:1030000075F00AE0A4F97C087AA57B0512461B221C
:10301000E9C3941F500312525222EEC0E0E9FE9021
:1030200005B5E06E7003C3801C127010EEC3941FD0
:103030005012EE9005B5F074FF900547F0900546EC
:10304000E0D2E1F0D3D0E0FE22EEC0E0E9FE12557E
:1030500038EEF9D0E0FE22127049E9FAC394065026
:1030600005EA9005B4F0D322A23950131270D97436
:103070000C5527640C600EA23B92F01251E1221213
:1030800052001270CC22000A1114171A1C1E2123A0
:10309000242526292A2C2D2E2F3031323334353653
:1030A0003738393A3C53BAFE43BA0143BE0CE5BE49
:1030B000903014E0440CF01263262253BAFE43BA57
:1030C000012243BA012253BAFEC28022A23940082B
:1030D000D239740190057AF022A2395008C23974AD
:1030E0000190057AF02290057AE0601CA239500622
:1030F00043BA01E4F02290058DE070091270C6E435
:1031000090057AF02214F022E490058DF0229002CE
:10311000E4E0F8900598C3E098A3E094005008908C
:103120000598E8F0A3E4F09002E5E0FA9005C6E027
:10313000F8A3E0F9C3EA98E49950089005C6EAF0CC
:10314000A3E4F0900597E004F0C3943250030272B8
:1031500093900598E0F8A3E0F9E875F07BA4F8AA4D
:10316000F075F07BE9A42AF912729475F0A0A4FA24
:10317000ACF075F0A0EBA42CFBC3E89AE99B5017C8
:10318000740490059AF0740190058FF0900590F00A
:103190007890760202721912729475F0AAA4FAACB1
:1031A000F075F0AAEBA42CFBC3E89AE99B501874C5
:1031B0000790059AF074019005BFF09005C0E06497
:1031C000FF7056741E805112729475F0DCA4FAAC34
:1031D000F075F0DCEBA42CFBC3EA98EB9950077474
:1031E0001090059A8032740190059AF074FF900552
:1031F000C0F0E49005BFF0900590E06401700CA26F
:103200007178905004760380027601E4F090058F87
:10321000F090058EF0900544F09005C674E8F0A398
:103220007403F0900598E4F0A3F0900597F09005F2
:103230009BE0FA90059AE06A600BE090059BF0E451
:103240009005968005900596E004F09005B9E07031
:103250000990059AE09005B9F022900596E0C39494
:1032600005400AE4F090059AE09005B9F09005B9A0
:10327000E06404701E90058EE064017016740965A8
:103280007A6010757A0974019005BEF07A317B4935
:10329000128ED3229005C6E0FAA3E0FBEA22FFFFDC
:1032A000FFFFFFFFFFFFFFFFFFFFFFFFFFFFFFFF2E
:1032B000FFFFFFFFFFFFFFFFFFFFFFFFFFFFFFFF1E
:1032C000FFFFFFFFFFFFFFFFFFFFFFFFFFFFFFFF0E
:1032D000FFFFFFFFFFFFFFFFFFFFFFFFFFFFFFFFFE
:103FF000FFFFFFFFFFFFFFFF0000000000000000C9
:00000001FF
