:10000000027FED024CAAFFFFFFFFFFFFFFFFFFFF94
:10001000FFFFFFFFFFFFFFFFFFFFFF024ACEFFFFD3
:10002000FFFFFF02531DFFFFFFFFFFFFFFFFFFFF6B
:10003000FFFFFFFFFFFFFFFFFFFFFFFFFFFFFFFFD0
:10004000FFFFFFFFFFFFFFFFFFFFFFFFFFFFFFFFC0
:10005000FFFFFFFFFFFFFFFFFFFFFFFFFFFFFFFFB0
:10006000FFFFFFFFFFFFFFFFFFFFFFFFFFFFFFFFA0
:10007000FFFFFFFFFFFFFFFFFFFFFF024550FFFFF6
:1000800002427B02923B0249020245FB0245FD020D
:10009000922B025B7402B76002466202467002B89D
:1000A000B902B8FD02B9AD02B83002C00D02C03AC3
:1000B00002BF4102C06922000022000002B44D02CA
:1000C000B6BD02D31A023DB102509902D34D02C708
:1000D000E702D44F02D4A302D56B02216302249A13
:1000E00002245B0224620224F40223FB022A90020F
:1000F00029DD0252F3025C3B02A460025D9902A674
:100100005A02B0C102AA0A025B14025B2622000056
:1001100022000002A8ED02A8FF02A79302A7FD0299
:10012000A47E02ABDB02AC9602AB7C02AA8702A6DD
:10013000BD02AC6302AD0E02AEB502ADC102B31892
:1001400002B2AD02B1A102B165220000025BFF0262
:10015000DC9002D98E0245D4025B9D02DC1702DDE1
:10016000C0025C14025BE6025BAE02D8A902A317D0
:100170000244410244C202A29002A1F7025E0B2295
:10018000000022000002A2EB2200000243B0024362
:10019000B40243B80243BC0243BF0243C20243C598
:1001A0000243C80243900243A20243CB0243D1025E
:1001B0005C4B025D900245F222000022000022000A
:1001C0000002F3F702E6EE02E55F0245F30245F5B1
:1001D0000245F402F38F02F3F60245F60245F702F8
:1001E00045F902448A02EB2D02EB6C0245FA02EE5D
:1001F0003412428AB90003024278E479477805B89C
:1002000000028004F709D8FCE4790878F8B8000205
:100210008004F709D8FCE49000007801791180028D
:10022000F0A3D8FCD9FA9005BFAA82AB839048739B
:10023000780579018015E493A3AC82AD838A828B23
:1002400083F0A3AA82AB838C828D83D8E9D9E7900F
:100250000280AA82AB83904873780179018015E40B
:1002600093A3AC82AD838A828B83F0A3AA82AB83F3
:100270008C828D83D8E9D9E712491975D000758130
:1002800000759B017500FF0241F17901221242E4E1
:10029000907FF7E493540F903061F0907FF5E493F2
:1002A000903063F0907FF6E4931242AD229030627A
:1002B000F043CE09E5CE7A057B00128ADF53CFFCEE
:1002C000E5CF1242D27A051242DD7A407B06128ACD
:1002D000DF2243CF80903058E0D2E5F02212433045
:1002E000D2E6F022125D6643CB20790112DF14437F
:1002F000CB03E5CB53CCF3E5CC53CEFE22E933332D
:1003000054FCC0E074F355CCFAD0E04AF5CC53CCA1
:10031000EF743F55CC4480F5CC74FC55CB4402F5CA
:10032000CB12432EC2E6F012432EC2E5F0227A50E1
:100330007B00128ADF903058E02243A3049030649F
:10034000E04430F075440512428D79011242FD758A
:10035000443075460022900500E07015790012DFE8
:10036000E9500BA2A89232C2A8D2F01245D47588E7
:100370000022900500E07017790012DFE9500D7936
:1003800000125C14758801A23292A822758800229E
:10039000124356903011E0D2E2F0E0D2E4F053BBC9
:1003A000EF22903011E0D2E4F043BB1012437222EE
:1003B00053BBFB2243BB042253BBEF22D29222C287
:1003C0009222D29422C29422A29222790A12DEFDB3
:1003D0002280F874011288A0E9FE125DA2E9FF9064
:1003E0000500E0F530EE6F6011EFC39402500BA2F0
:1003F000A89200C2A8D2F01245D4EEF9125C031202
:10040000414C500612513FD38017EE6F6012EFC37C
:100410009402500CA930125C0312414CA20092A825
:10042000C37F010288B6EEC0E0E544FE7544301299
:100430005D2B12A9D38E444003C38001D3D0E0FECC
:100440002274081288A08A308B318C328D33129638
:10045000DD8A348B358C368D37785AE260159048BA
:100460006F78301285A5783479301282DF6004E429
:10047000785AF27F080288B62222C230C231740153
:10048000784CF274FF9002C4F022EEC0E012EAF061
:10049000E9FE74046E7025900500E0700B7901127E
:1004A000DFE9500479018011900500E06401700CCF
:1004B000790012DFE950057900125C03EEF9D0E013
:1004C000FE2274041288A08A308B318C328D331254
:1004D0002AA9E9FE70739089C87830128327706961
:1004E0007848E224BEF58208E23401F583E06480B6
:1004F0006003E07054A3A3A3A3A3A3A3A378301223
:10050000873A9089C8783012832770047900803B3D
:10051000AA30AB31AC32AD33122AA9E9FE7017789C
:1005200048E2F58208E2F583E0FA74EB6A6007744A
:10053000E96A60027E019089C87830128749AA3042
:10054000AB31AC32AD33122AA9EEF97F040288B682
:10055000C08B538BFB0202C1A2AF92F0C2AF75AA4F
:10056000009002C4E9F064FF6038E9543F2323900F
:10057000469A2582F582E43583F583740293C0E0C0
:10058000740393C0E0E493F9740193903042F0E96E
:10059000F09002C17402F0A3D0E0F0A3D0E0F075B7
:1005A000AA02A2F092AF22D08B75E906D0E0D0E08B
:1005B00074B4C0E074C6C0E03290048CE06404609F
:1005C00003029E1574081288A08931FF7E077532D8
:1005D00044029F10C020A2F092007902125B9DA2FB
:1005E0000092F012DD0292007900125B9DA200D011
:1005F00020222222222222D3222222D32222740447
:100600001288A0EAFEEBFF129B90E9FA90056AE0DF
:10061000601B8E828F8378007902E06463F0A3E828
:1006200024FF18E934FFF9E87001E970EDEA602968
:100630009005AEE06402600C90059BE064017002DE
:10064000A3E0701B9048007830128749AA30AB3184
:10065000AC32AD337900129CEFD37F040288B6C36D
:1006600080F89002ECE0600412605D221245FE22E8
:10067000C030C031C032C0339002ECE0600512617E
:100680001F800E129CEFE96004D2F08002C2F0A23B
:10069000F0D033D032D031D03022B1C6A7450400DB
:1006A00000000002000000010102736420256420A4
:1006B000696E6974206661696C0A0076636D6275A3
:1006C000665F666C61673A2025640A000A25645FEC
:1006D00025640A006D696E3A2025640A00636F750F
:1006E0006E745F6C65645F6F66663A2025640A000D
:1006F00046504F4E0A00762D0A00762B0A00706F86
:100700007765725F6B65795F636E743A2564200A62
:10071000006E756D3D25642C746F74616C3D2564AD
:100720000A00463A253032785F004B65793A2564F5
:100730000A0053494E474C45204C6F6F700A004EDB
:100740006F204465766963652100206F6E00546FE9
:1007500074616C3A25640A00427265616B20256CF5
:10076000642C20256C640A006465766963655F63A8
:100770006867203D2025640A007461736B20666CF5
:1007800061736820657869740A007461736B5F66D1
:100790006C6173680A0000040000000800006C65CA
:1007A000645F6F66660A00416761696E0A00746182
:1007B000736B5F69646C650A00736F66745F706F5A
:1007C000776572646F776E0A00706F776572206F5D
:1007D0006E2E2E2E0A00206F6E00416761696E201A
:1007E0006F6E0A006F6666007461736B5F706F777F
:1007F00065726F66660A0069646C6500202070008F
:10080000020000006972746320706F776572206F58
:100810006E0A0073746172740A006E6F74206672DF
:100820006973740A007379735F63746C2E766F6CEE
:10083000756D653A2025640A006164635F63683AF8
:100840002025640A00202025645F256400B5CDB50D
:10085000E7B9D8BBFA2E0A00524946469F90AB151D
:100860004572726F720A00FFFFFFFFFFFFFF00017A
:100870000000000101E803CAC0E0E493A3C582CCF4
:10088000C582C583CDC583F0A3C582CCC582C5838F
:10089000CDC583DAE5D0E0CA22C0E0E8C0E0E9C017
:1008A000E0EAC0E0EBC0E0C082C083E581C3940908
:1008B000F582E4E59B940054034400F583E0F8A33B
:1008C000E0FAA3E0FBA3E0F9C3E5829403F582E537
:1008D000839400F583EAF0A3EBF0A3E9F0A3E8F03A
:1008E000E5822406F582E43583F583D083D082D077
:1008F000E0FBD0E0FAD0E0F9D0E0F8D0E0A2E7D019
:10090000E022A2AF500FA2AB500B7401299005B6A4
:10091000F0E070FD2212DF142243F720124960122A
:1009200062C580FE795412F65EE9FAE490058CF017
:10093000EAA2E4502574EF5AFA795512F66B740165
:100940009005B8F07A047B48128E20740190058CD3
:10095000F0757A09792A12921822E49005B8F022EB
:10096000EEC0E012433A1292027A137B48128E20B4
:10097000D289790112DF1475880012447A1292A389
:100980007A1079B212DE7C126C94752700752E00F5
:100990007401900280F0E49005B4F09005AFF0741B
:1009A0000190051BF090051AF0757B00E49005712D
:1009B000F0900586F0900588F0900589F09002ECA3
:1009C000F07C03FDF97AEC7B0212821E126F4E124C
:1009D0008B47E4903029F0742F903028F01249248E
:1009E00012539874FF9005BBF0752C0A9005BDF06A
:1009F000126F44126CDB1253DD1266A91261581299
:100A00006141126257E492E09002EDF012615C12D3
:100A100059D5D2AF740190056FF0C2F0126566E44B
:100A200090056FF0C2F0126566126E211266BF5318
:100A3000BAFEC28053BAFED280124E9443F7207E93
:100A40000779011264301EEE70F7126DC07890764F
:100A5000019002EDE0602E90058CE0640160267A42
:100A60001A7B48128E20757A067401900586F0F57F
:100A700029F52AF52B799612DEF3752900752A00DF
:100A8000752B00801B790212E00D400E790012E0F8
:100A90000D4007790112E00D50067401900586F0B3
:100AA000741E9005B0F0F9126EAF9005AFE0F91228
:100AB0006EE89005B0E0F582758300C082C0837A4D
:100AC000257B48128E20D0E0D0E0D0E0FE22C0E0AE
:100AD000C0D075D010C082C083C0F0C08BC0865318
:100AE00086C0C084C08553C27F054B12570474036F
:100AF000554B6003024C86054A754B00E54AA2E05F
:100B00005003024C860548754A009005B6E0600324
:100B1000E014F0E548A2E04003124F00A2C14019E2
:100B20009005BFE064017011E4F0C0E0C0E07ABB62
:100B30007B46128E20D0E0D0E0E54875F00584E5D4
:100B4000F06003024C86E54560041545E545126CEE
:100B50006B12551D126F790547E547A2E0401975E4
:100B60004800126DE790056EE004F0C394974008CA
:100B7000E4F0740190057DF074C865476003024C91
:100B80008675470090058FE06401701090056DE058
:100B900004F06404700B740190058EF0E490056D10
:100BA000F09005BDE0FA74FF6A6005EA600214F097
:100BB0009005BBE0FA74FF6A6005EA600214F090E9
:100BC00002E8124C99C082C0839002E7124C99C08F
:100BD00082C0837ACC7B46128E2074FC1288750505
:100BE00049E54975F03C84E5F06003024C8675499F
:100BF00000900579E0606A792D12921890056CE0FA
:100C000004F090057EE06401700D90056CE0640FC7
:100C1000702F7941124CA090057EE06402700D9017
:100C2000056CE0641E701A7942124CA090057EE0BB
:100C30006403700D90056CE0643C70057943124CC0
:100C4000A090056CE0C3943D4002E4F0124C99C0C2
:100C500082C0837AD47B46128E20D0E0D0E07549E2
:100C600000900585E004F0F582758300C082C083A2
:100C70007ADD7B46128E20D0E0D0E0900585E0C37F
:100C800094104002E4F0D085D084D086D08BD0F090
:100C9000D083D082D0D0D0E032E0F58275830022BC
:100CA0001292187401900578F022C0E0C0D075D07F
:100CB00008C082C083C0F0C08BC0865386C0C08489
:100CC000C08553AD7F43F7201252E0D085D084D049
:100CD00086D08BD0F0D083D082D0D0D0E0327402D6
:100CE0001288A0E54669606C8946A2AF5004D20024
:100CF0008002C200C2AFE91289190000034D004D05
:100D00008E300EE5CEEEF91242FD740355307900B7
:100D100024A6F582E43446F583E4932EFEE4903075
:100D200029F0742F903028F07407C39EFA74F85598
:100D3000E24AF5E274F855C24AF5C275303389319A
:100D4000EE783012882BE530F5C575C670125B9DC4
:100D5000A20092AF7F020288B675D91075E8067CB2
:100D600044E5EFA2E750FAEAF5EDEBF5ED1CEC7087
:100D7000F0790112DEF322744C903052F074E2905C
:100D80003053F0903059E0D2E3124E707AFF7B7FFF
:100D9000124D59903053E0D2E2F07A05124E801293
:100DA0004E3C50FB7A007B80124D597A0579041233
:100DB000940A7AFF790312940A7A7F790212940ACC
:100DC000124E3C50FB790B124E60D2E3F09030593A
:100DD000E0C2E3124E5AC2E2F07A007B00124D5993
:100DE000903053E0C2E5F0E0C2E1F0790112DEF3A9
:100DF000903052E0C2E6F0E0D2E7124E5AD2E0F074
:100E00007903124E60C2E3F0E0D2E5F0793412DEED
:100E1000F3124E54D2E1124E65124E4579061293EA
:100E2000FAE9A2E150F6903052E0C2E4F0C23B741D
:100E3000419003CCF0124FCC124F982279021293BA
:100E4000FAE9A2E7227A05790512940A7A0179066D
:100E500012940A22903052E0D2E6F0903053E02211
:100E600012DEF380F6F0903052E0D2E4F0024D71E1
:100E7000F09030A1E0D2E0F07A09790012940A22D1
:100E8000790412940A7A00790312940A7A0079029A
:100E900012940A2253C97F129590124D7722900323
:100EA000CCE070089003D1E05403600B7480900391
:100EB000D1F0E49003CDF0229003D1E05403600818
:100EC000A23B5018124F8C229003CEE09003CDF03D
:100ED000A23B5002800774819003D1F0227483906A
:100EE00003D1F02279031293FAE9700A790212937E
:100EF000FAE964806005124FF1C322124E9ED3229C
:100F0000C030C031A238507F9003D1E0A2E7502D0D
:100F10009003CCE0FA9003CDE06A600D1292BB9092
:100F200003CCE0F912931C805E9003D1E0648370DF
:100F300003124F8C9003D1E0C333F0804AA23D509E
:100F40004685D930740F5530F53075310074077807
:100F50003012884EAC30AD312CF874023D13F9E8F4
:100F600013F87A0F7B001287CEE8F9E49CFA74112B
:100F70009DFB12DF7212DFDEE96007D23E124EB82F
:100F80008005C23E124EE4D031D030229003CFE033
:100F9000FAA3E0FB12927A22900280E0600E43F7FF
:100FA000209003D1E0A2E740F843F72022A2F0907E
:100FB0000280E06016923BA23C500974BF55274462
:100FC00020F52722C238124EB8D23822900280E093
:100FD000601E5327DEA23B5012124FF1800343F7ED
:100FE0002079021293FAE9A2E750F3124E9ED2380A
:100FF000227A00790312940A7A00790212940A2262
:101000009003D1E0540360159003CEE09003CDF03F
:10101000A23B5003024EDD74819003D1F022C03018
:10102000C031C2389003CFE4F0A37478F0E91250D5
:101030005F9003CEF0125000D238D031D03022C0B1
:1010400030C0318930A23B50077A007B7812927A07
:10105000E53012505FF99003CEF012931C80DB2430
:1010600025F582E4346FF583E49322EEC0E090022C
:10107000C4E0FE790012455812C67FEEF9124558B9
:10108000D0E0FE2274E345E6FA78A9E66401700335
:101090008AE62274FD5AF5E622EEC0E012D58040C1
:1010A00004790080647405655C700C12D4AAE9FEB2
:1010B0001252A4EEF98052740F655C700874FD55ED
:1010C000E644E0F5E6740E655C700C78A9E6640110
:1010D000700578B5E670CA123DC3E960C474106546
:1010E0005C700A12506B755C137901801C740B657F
:1010F0005C7005125084800F7402655C7009900268
:10110000ECE06003755C037902D0E0FE2212D44467
:10111000E9FA701690053EE004F0C394335004746D
:101120000580027401900526F02274026A60F4E4DE
:1011300090053EF0E5ED60E722900526E0F922906B
:101140000526E0604FA23F5003125270D23A90053C
:101150003FE06006124FCC124F98C2A8C2AC75E8AF
:101160000475E70075EE0075EF0053AD7FE4900560
:101170002612519D600512525C7005125267801153
:10118000125262600712526264017005D2F0124579
:10119000D412933CE4900525F022900525F01252DC
:1011A00062640222C030C031C032C033129273E494
:1011B00090053EF0125E111252D712D5B75015901D
:1011C00003D4C3E09411A3E0940040047900803F6D
:1011D0007402801312B710E9646070F01252D712D3
:1011E000D2AB50E812521812519A600512525C703C
:1011F000057900125C71D2ACD2A89089C8783012FF
:101200008749900527783012877E900525E0F9D030
:1012100033D032D031D030221252CA43AD80007464
:101220000122900526E064057005740212527C22AA
:10123000C23A12519E600512525C7008125D2B7901
:1012400000125C71A2A8C2A8740290052612527CFA
:1012500092A8A2394005D2F0124FAD221252626418
:101260000322125DA2E92212B1657901125C71229A
:10127000124F98791012DEF322900526F043AD80CC
:10128000002278F48A828B8312877E088A828B837D
:10129000A3A3A3A312877E22E6FA08E6FB08E6FCD6
:1012A00008E6FD2278D812529812B715900527EA61
:1012B000F0A3EBF0A3ECF0A3EDF022900527E0FA09
:1012C000A3E0FBA3E0FCA3E0FD2212B3F378DC1261
:1012D0005298790102C13DE4F9FAFBFCFD02467027
:1012E000900526E0FA74026A600574046A700312BD
:1012F000510D22EEC0E0EFC0E01225035003D38071
:10130000157404C0E012BAF0D0E0F97C587D4812A0
:10131000824CE960E9C3D0E0FFD0E0FE22C0E0C02B
:10132000D075D008C082C083C0F0C08BC086538601
:10133000C0C084C08512D3AE43AD8000D085D084B8
:10134000D086D08BD0F0D083D082D0D0D0E0327590
:1013500082FB7583FF12888DE0F8A3E0F9A2F050BC
:101360001CC3E89AE99B4007C3EC9AED9B4005E853
:10137000FAE9FB2274FF2A1A74FF3BFB22C3EA98A6
:10138000EB995007C3EA9CEB9D5005ECFAEDFB226C
:1013900074012A0AE43BFB22538BEF438B017954FF
:1013A00012F65EE9FA9005B8E0600D740C4AFA791D
:1013B0005512F66B74018001E4900572F02243BB74
:1013C00001539CDF90304CE0C2E2F0E0C2E1F0E07B
:1013D000C2E0F0740490304FF075D188227C0C7D0F
:1013E0000079007AE07B0212821E7C057D00790084
:1013F0007ADB7B0212821E742490300CF090305005
:10140000E0D2E6F0903056E0D2E0F075D18D740471
:101410009002E0F01253BE74029002E0F043BE0C62
:10142000E5BE903057E044C0F022E5D1A2E750235A
:101430009002E0E0F582758300C082C0837A397B38
:1014400048128E20D0E0D0E074049002E0F075D114
:101450008DC322E5D49002E1F0D3229002E1E0FABC
:10146000C39420500FE49005BCF09005BDE07030AF
:1014700074FFF0229005BCE0FBEAC394A0500E7408
:10148000016B601C7401F0E49005BDF022EAC39486
:10149000B1400D74026B60087402F0E49005BDF079
:1014A000227A009002E7E0FB80010AEAC333F8E405
:1014B00033F9E82470F582E93456F583E493C39B4D
:1014C00040E8A3E493F9227A009002E8E0FB80016F
:1014D0000AEAC333F8E433F9E82486F582E934569E
:1014E000F583E493C39B40E880D8795412F65EE913
:1014F000A2E150147401900588F0790F900589E0FD
:10150000FA70127401F080127402900588F0900550
:1015100089F079002274016A7002790022EEC0E03D
:101520007E0012542A400302564B9002E1E0F582FD
:10153000758300C082C0839002E0E0F5827583006D
:10154000C082C0837A457B48128E2074FC12887555
:101550009002E0E012891902074B566B55A5557AA7
:10156000558E554B564B56CE55F25512545B74045E
:101570009002E0F075D18D02566C9002E1E090028D
:10158000E4F074059002E0F075D18E02566C900282
:10159000E1E09002E5F074039002E0F075D1891269
:1015A0006FA102566C1254EAE9FEEE600C740390CF
:1015B00002E0F075D18902564B74089002E0F09079
:1015C0003057E044C0F043D22075D189807D90022D
:1015D000E1E09002E7F01254A1E92401FE740990C1
:1015E00002E0F0903057E044C0F043D22075D18A39
:1015F00080599002E1E09002E8F01254C7E9FE74CD
:10160000029002E0F053D2DF75D188EEC3940B4014
:101610002F740B6E7008740190057EF0804E740C70
:101620006E7008740290057EF08041740D6E700833
:10163000740390057EF08034740090057EF0802C59
:10164000EE7029740090057EF08021EE7005125432
:10165000EAE9FEEE6016EEF912DE8F9005BCE0605E
:101660000B748F6E7006740A9005BDF0D0E0FE22F8
:101670000D002901460262037E049A05B706D307CE
:10168000EF08FF09FF002A007E0BD30CFE0DFF00C0
:1016900043BD1043BD0843BD0243BC8043BC04436B
:1016A000BC0243BC0122125690E49002D8F0227B87
:1016B000057A00796E12DEED227884E6086024E671
:1016C0004572F57208E6FA740C5A600908E6F56E80
:1016D00008E6F56F2274035A602908E6F57008E6FB
:1016E000F57122E6F45572F57208E6FA740C5A6048
:1016F00007756E00756F002274035A6006757000DE
:101700007571002274021288A090056BE0C39406E4
:101710004008E4F09002D8E004F09002D8E0C394CE
:10172000074002E4F01256B912581F90056BE0FA18
:101730009002D8E06A700690056BE004F075300105
:101740008E319002D8E0783012884EAA3075300180
:10175000F53190056BE0783012884E9002D8E02485
:1017600073F8E530564AFEEAFF125690EEA2E050BA
:101770000EEFA2E05004D2B48002C2B453BDEFEE2B
:10178000A2E1500EEFA2E15004D2B38002C2B353E3
:10179000BDF7EEA2E2500EEFA2E25004D2B18002F9
:1017A000C2B153BDFDEEA2E3500EEFA2E35004D24E
:1017B000A78002C2A753BC7FEEA2E4500EEFA2E4C2
:1017C0005004D2A28002C2A253BCFBEEA2E5500E8E
:1017D000EFA2E55004D2A18002C2A153BCFDEEA24B
:1017E000E6500EEFA2E65004D2A08002C2A053BC85
:1017F000FE90056BE004F09002D8E0C39403500A19
:1018000090056BE064047012800DE06405700B902D
:10181000056BE0640570037406F07F020288B6C2AF
:10182000AF7B077A00797312DEED756EFF756FFF7F
:101830007570FF7571FF7572FF4374014375014345
:10184000760143770143780143790143750243737D
:101850000E437602437702437802437404437604CE
:101860004377044378044379044377084378084373
:1018700079084375084378404377204378084376D6
:1018800030437740437520437320437802437310FD
:10189000437548437440D2AF22EEC0E0C030C0313F
:1018A000EAFCEBFD7E02ECF8EDF97A0A7B00128788
:1018B000CEEA2419F582EB3459F583E493C0E07441
:1018C0006E2EF8D0E0F6ECF8EDF97A0A7B0012877C
:1018D000CE88308931AC30AD311E74FF6E70C77563
:1018E0007100D031D030D0E0FE22C0309005B0E0A1
:1018F000FA7B00125899756E3ED03022125DA2E933
:10190000700443720822125DA2E9640270034372FC
:1019100004227572401258FC223F065B4F666D7DB3
:10192000077F6F777C395E79716F76061E70385449
:10193000373F7367506D783E3E1C366E5B181876E5
:101940002C087601D240227881760380F07404124C
:1019500088A08E30EA2530F582EB3400F583E493DD
:10196000F530746E2EF8E530C394304017E530C37F
:10197000943A5010E53024E9F582E43458F583E4D4
:1019800093F68043853032E5322423FCE43459FD5C
:10199000E530C394414011E530C3945B500AEC2418
:1019A000BFF582ED34FF80D5E530C39461400CE58E
:1019B00030C3947B500FEC249F80E6742065307018
:1019C000047600800276400E74046E708575720095
:1019D0007F040288B67C2A7D0079007A407B05125C
:1019E000821E7428900544F0900549F0743C9005DF
:1019F00062F0742890054EF0900553F0900558F071
:101A000090055DF0900567F022EEC0E0E9FE12E07F
:101A10000D5003D3800FEEF912DFF84003C38005A9
:101A2000EEF9125A2CD0E0FE22790922EEC0E0C075
:101A300030C031E9FE600574016E701B1243D34063
:101A4000398E30753100C030C0317AAA7B46128E93
:101A500020D0E0D0E0801674026E701E125B7379A5
:101A600000125CBAE9FA70081244264008C38023C9
:101A700074026A60F87901125C71EEF912E0227565
:101A80003001753100EE783012884E900540E04507
:101A900030F0D3D031D030D0E0FE22EEC0E0EFC045
:101AA000E0C0307530007E00EEF912DFF85014EE21
:101AB000F912641DEEF9125A095008EE90051BF058
:101AC0007530010EEEC3940440DE125DA2E9FF9072
:101AD000051BE064FF703274FF6F602D12E00D4053
:101AE00028EFF912641D7530027E000FEFC39404D5
:101AF00040027F00EFF912E00D5007EF90051BF058
:101B000080070EEEC3940340E2A930D030D0E0FF4E
:101B1000D0E0FE229002D2E07006900550E0F9225B
:101B2000900555E0F9229002D2E0701EE990055030
:101B3000F07402699005407005E0D2E2F022E0C244
:101B4000E2F0E970057900125C71229002D2E07037
:101B500011900550E0FA74026A600574036A70110E
:101B6000D322900555E0FA74026A60F474036A6047
:101B7000EFC32222C3E9F5F0C0F0125A29D0F0E5F4
:101B8000F09940057A007B0022E5F075F005A42469
:101B900042FAF582E5F03405FBF583D32274016542
:101BA000467005E9C33304F9E9903000F02290054E
:101BB00000E07017E9900546F074026990054070E6
:101BC00005E0D2E0F022E0C2E0F02264017016E904
:101BD00090054BF07402699005407005E0D2E1F089
:101BE00022E0C2E1F022900500E07006900546E098
:101BF000F9226401700690054BE0F9227900221267
:101C0000DB4022E960057401697003125C2FE990E2
:101C10000500F022125C2F43BB1043BB049030112F
:101C2000E0D2E2F0E0D2E4F053BBF753BBF72290EE
:101C30003056E0C2E7F0E0D2E6F0229002D2E07047
:101C40000479028002790312DFE92243F7209051E0
:101C5000F9E064037005790212408612EA6590513A
:101C6000F9E0640370057902124086790612DFE913
:101C700022E96009125B4B500474808001E49005F6
:101C80001CF022E99030576005E0D2E2F022E0C279
:101C9000E2F022E9600543DC10800353DCEF787D3D
:101CA000EAF608760022125C9375FC0A227A02801A
:101CB000F57A03125C9375FC052274041288A089DE
:101CC000329002D2E0F533125DA2E9FAE5336532D3
:101CD000604585333074022530FEE43400FF8A828B
:101CE000858230EE65307001EF700CA2A89200C2C0
:101CF000A812B165125D56E532125D1E50047901DD
:101D00008017EE65307001EF7009E533125D1EA299
:101D10000092A87902800279007F040288B69002BE
:101D2000D2F0E0F9125C83124426229002D2E070D5
:101D30000FA2305016C230125D4C700F7401F022A9
:101D4000A2315007C231125D4C60F12212A3A9905A
:101D50000550E06402229002D2E07004D23080028A
:101D6000D23112A3D6229002D2E07012900550E038
:101D70006402701B125D567401900550F0229005AC
:101D800055E064027009125D567401900555F02209
:101D90009002D3E0F9125CB1229002D2E0F9125C19
:101DA000AD2290051AE0F922E490051EF074FF9030
:101DB000051BF0E990051AF0C394045007E4900560
:101DC0001DF0D322740290051DF0C32290051BE084
:101DD000FA74FF6A603474026A600574036A7009F9
:101DE00074FE2AF9125CBA8019EA600574016A70FF
:101DF0001112447912447890051BE0F9125C031229
:101E0000414C90051BE0F9125DA8227401784CF258
:101E10002279087A817B0212B41C2253C9FB43D673
:101E200002E490300BF043D60175D5FF227A0A0008
:101E30001AEA70FB2253D6DF89D5E5D6A2E750FA1D
:101E40002243D62075D5FFE5D6A2E750FAA9D522C0
:101E500074081288A08A348B358A308B318C328D8D
:101E6000337410783012853EA93012619285353175
:101E7000A931126192853430A930126192025EC993
:101E8000EEC0E012616E790512619212618EE9FE78
:101E900012617EEEF9D0E0FE22EEC0E07E0F8009F6
:101EA0001E125E80E9A2E0500E43F720125E2DEE76
:101EB00070EEE49002EDF0D0E0FE22D0E0D033D01E
:101EC00032D031D0302212617E7F080288B643D6EC
:101ED00020EB903009F0EA903008F0EDC313EC13DA
:101EE0001490300AF0E5D6A2E750FA22740812885E
:101EF000A08C308D317582EE7583FF12888D783419
:101F000012873AEAFEEBFF125E9912616E790312B4
:101F10005F7E8003125F8DEE54036008E53070022F
:101F2000E53170F0C3E5309404E53194004044C3DA
:101F3000E5309400E53194024008753200753302B3
:101F4000800C74FC5530F53274FF5531F533AC32EA
:101F5000AD33EEFAEFFB125ECEEE2532FEEF3533F7
:101F6000FFC3E5309532F530E5319533F53180B476
:101F7000125F8DE5307002E53170F5025EC61261C8
:101F800092AA34AB35AC36AD37125E502212618E58
:101F9000E98E828F83F0A3AE82AF83E53024FFF514
:101FA00030E53134FFF53122C030C031C032C033AA
:101FB00074041288618A308B318C328D3378301200
:101FC00088CD7C04FD7582F77583FF12888DAA8207
:101FD000AB831261A474FC1288757582FB7583FF54
:101FE00012888D783012873AAA30AB31AC32AD33DB
:101FF00074FC128875025EBD74081288A09089C8AE
:1020000078301287499002CD783012877E89308EE1
:10201000318E328E3374037830128557AA30AB314B
:10202000FCFD125FA88A348B358C368D379002C543
:10203000783412877E90469E78301285A5AA30AB00
:1020400031AC32AD33125FA88A308B318C328D3394
:102050009002C9783012877E7F080288B674081211
:1020600088A09002CD783412873A9002C978301255
:10207000873A783079341283734004C302611C902C
:1020800002C574087834128557783412858F7834F5
:102090001288CDFC7D021261A474FC1288759048F0
:1020A0000078301287499002CD78301285D890059B
:1020B00025E0640270659046A27830128749795B0A
:1020C00078301285EE900575E0F530A3E0F5318E9D
:1020D000328E337408783012855778307934128311
:1020E000734038900573E0FCA3E0FDECCDCE900288
:1020F000C5F0A3EDF0A3EEF0A3E4F09002CD7830AC
:1021000012873A9002C978301286519089C8783087
:102110001287499002CD783012877ED3026058C072
:1021200030C031C032C0339089C8783012874990AE
:1021300002CD783012877ED3D033D032D031D03038
:1021400022903058E0C2E4F075D61053BBDF53BB89
:10215000BF53BB7F125E1B2275880022790012DFFD
:10216000E94007790112DFE95003758801229005E3
:10217000BEE012891901007D617B61C29722900542
:10218000BEE012891901008D618B61D29722125E27
:102190004122125E352274FC128875D033D032D0C1
:1021A00031D03022C030C031C032C0337582F575B5
:1021B00083FF12888D783012873A78301288CD12DA
:1021C0005EEC80D274091288A07404128861E9FE62
:1021D0009089C8783412874912616E74906E6005D8
:1021E00074AB6E7013EEF9125E357900125E3579BC
:1021F00000125E3579008002EEF9125E3575380006
:102200008538307582FB7583FF12888DE582253015
:10221000FEE5833400FF12618EE98E828F83F074B5
:10222000087834128557E0F5307531007532007545
:102230003300783479301285790538E538C3940451
:1022400040BE12617EAA34AB35AC36AD3774FC1299
:1022500088757F090288B674041288A043BB404386
:10226000D62074019005BEF0C2008E30E530245CAB
:10227000F582E43448F583E493F91261C48A308B23
:10228000318C328D339048677830128327601D90EF
:1022900089C87830128327601390486B7830128693
:1022A0009478301283276004D200800E0EEEC3941F
:1022B0000440B77A607B48128E20A2007F04028817
:1022C000B6125FF8228003126C20126C94124F98A1
:1022D000126F5FC23AE57AC3940C50097409657AAB
:1022E0006003857A7BE57A12891906030063C76269
:1022F0000063FB62F66212673F80CF1265B080CA4E
:10230000E57B128919000016630B639002EDE06013
:1023100005757A0680B4757A0080AFA270400379A3
:102320000022C270125A9B229005B0E0FAE912898D
:102330004F01AEAF92630A868A638A8E638F9C6375
:10234000A68A63B18A63CF9263E15763E36B63EA62
:102350005763EB6B63136474FF1264149005B0E071
:102360007003126F557AF67B46801B740112641459
:102370009002E6E0C394C850099005B0E0600312F3
:102380006F597AFA7B46128E2022757A0C22126FD0
:102390000722757A0974019005B9F02290057EE054
:1023A00004F0900579E0700E90057EE0640460060C
:1023B0007401900579F090057EE0F582758300C088
:1023C00082C0837AFE7B46128E20D0E0D0E090055A
:1023D0007EE064017008752901752A00800BE064B5
:1023E00002700A752900752A01752B0022E064032A
:1023F000700A752900752A00752B0122E0640470AB
:1024000012752900752A00752B00E4900579F0906B
:10241000057EF0222AF9126EB912594722EEC0E069
:10242000E9FE125DA2E96E700312513FD0E0FE2278
:10243000EEC0E0E9FE90057DE06005E4F043F720A2
:10244000126D68C2AF90057BE02401F0A3E0340078
:10245000F0D2AF9005BBE064017006857A7B757A97
:102460000674016E701912631BE9FA74016A700533
:10247000757A00802874026A7023125DCC801E7405
:10248000026E7019A270500E790012DFF840E179E7
:102490000212DFF840DA790112DFF840D3D0E0FE13
:1024A00022C030C031C020A2F09200926AD268905F
:1024B000059B1289019005971289017A117B4712B9
:1024C0008E2074FC1288759005AEE0128919000008
:1024D0000565D46490059BE024FFF8A3E034FFF980
:1024E000E8C0E0E9C0E07C007D00900597E0FAA339
:1024F000E0FBA20092F012534FD0E0D0E09005979D
:10250000EAF0A3EBF0D020D031D03022740C128846
:10251000A01252BB8A348B358C368D379089D47893
:1025200030128749783479301284298534308535E2
:10253000318536328537339089E878381287497883
:10254000307938128429E53090059EF09089E8783A
:102550003012874978347930128429E53090059F0C
:10256000F07F0C0288B6C030C031C032C033A2F058
:1025700050137AA07B051252821295F19005A8EAB9
:10258000F0A3EB801E9089C878301287499005A48B
:10259000783012877E9005A0783012877E9005A84B
:1025A000E4F0A3F0126E93D033D032D031D0302289
:1025B0007AAE7B47128E20E4900585F08006126388
:1025C00028126D577408657A7057790112643012B9
:1025D000DEB7900585E0640F7015752900752A0037
:1025E000752B00757A097A9E7B47128E2080D2E97E
:1025F00012894F012025016602AF1666CF1666BE0E
:10260000657AA77B47128E20E4900578F090056CE0
:10261000F0757A0680AB757A0974019005B9F0807F
:10262000A0227A01795A12F66B75F73D7A007B2069
:10263000128ADF80ED9005B4E0606D752900752A7F
:1026400000752B007AB97B47128E207A0C795512CF
:10265000F66B43CB10C2AF903058E04460F0125696
:10266000A674FF90301AF0903012F075A00075BC7F
:1026700000782279667A007B007C1488828983E462
:10268000938A828B83F0A3AA82AB8388828983A3F7
:10269000A882A9831CEC70E374FC55CB4401F5CBF4
:1026A00053CCF3E5CC1200002279A112F65EE9FAD0
:1026B00043CD8074BF5A441CFA795B12F66B22EE4C
:1026C000C0E0800343F720900588E060F77941126D
:1026D00092187EFA790112DEF343F720793C1292C8
:1026E000181EEE70EF740190058AF07AC97B4712CC
:1026F0008E207AD67B4712594DD0E0FE2243F72038
:10270000126D68900588E0FA74026A7003126635EB
:1027100022E9128919AE0127671D671D677ADA7BE6
:1027200047128E20857B7A22D2CA90058AE0600B00
:102730007AE47B4712594D43F720221256AF227A92
:10274000E87B47128E20126728800C12DEB71267D2
:1027500011126D4A1266FD7409657A60EE227408E2
:102760001288A090057FF0A3F09089C87834128772
:102770004978341288CDFC7D047A007B0C1261A468
:1027800074FC128875F8F9F530E85407FA74046A95
:1027900070028E30E82400F582E9340CF583E042C3
:1027A0003074076A7012E530601F90057FE02401E5
:1027B000F0A3E03400F08E30E8240108E93400F999
:1027C000C3E89400E9940440C09047967834128599
:1027D000A590479A783012874978307934128373FC
:1027E000408F1267EA7F080288B690057FE0FAA35F
:1027F000E0FB2274019002ECF053BBDF53BB7FEA95
:10280000F91262C11251A4E990059DF064016002C1
:10281000C322D3228008125230126E70C269A2689D
:102820005022740190053FF012513FC26890059705
:10283000126BB140E1A26A5007D2F01264A180DEAF
:10284000C2F080F722C26AD2689005AEE0640260EE
:1028500005C2F01264A12274041288A08930898212
:10286000AE82E960219002EAF0FA9002E9E06A7033
:1028700003026906EAF0C0E0E4C0E07A227B471276
:102880008E20D0E0D0E0EE12894F01010A9B680350
:102890007EC96886C468B1C4680169EEC0E0E4C05E
:1028A000E07A2A7B47128E20D0E0D0E0D2F012648A
:1028B000A174FF2EF874FF3400F9900597E8F0A397
:1028C000E9F08042757A0C803D90059BE0F8A3E02A
:1028D000F9758305758297C3E098A3E09940079046
:1028E0000597E4F0A3F0126A0712873A9005A478DE
:1028F0003012877E7C087AA07B05790A128B0D80C6
:1029000005A9301263287F040288B6C030C031C0E8
:1029100032C0339002EDE060047902800279011246
:102920006430125222A2705009790012DFE940028D
:10293000C270A2704008900577E0A2E1502CE490AC
:102940000577F012513F432D09126A0712873A901A
:1029500005A4783012877E7C087AA07B05790A125C
:102960008B0D126E70757A0C80067406657A600B9A
:1029700012513FE49002ECF00269FEA26B50031288
:102980006E7C126814A26B5010C26B126BA012877F
:102990003A9002CD783012877E12650C9002CD7885
:1029A0003012873A900581783012830F60089005C5
:1029B00081783012877E9002C9783012873A758309
:1029C000027582CD783012839940339005AEE06471
:1029D0000260051268458026A26940227A327B4750
:1029E000128E209089C878301287499002CD7830B5
:1029F00012877E125139E9C394025002D268D03353
:102A0000D032D031D030227AA07B0512528290028F
:102A1000CD78302274041288A0F9124CDE1261586D
:102A2000126141126257E492E09002EDF0700302ED
:102A30006B7F74019002ECF0E490056AF0900587DA
:102A4000E0700E1258FC793212DEF37401900587A3
:102A5000F07900126EF6C23CE490053FF0D23BF9EB
:102A600012503F7C177D0079007A977B0512821EF9
:102A7000C269432D0912675E90059BEAF0A3EBF053
:102A800090059B1289017A4E7B47128E20D0E0D0B0
:102A9000E0E49002EEF09005B7F0126E7C9005979E
:102AA000E0F8A3E0F975830575829BC3E098A3E085
:102AB000995009C26B900597E4F0A3F078907601E5
:102AC000A26B4008900577E0A2E05024126BA012A0
:102AD000873A78301288CD9005A0783012873A78FE
:102AE000301288CD7A587B47128E2074F812887580
:102AF000C268900597126BB15008125230C2691229
:102B00006F077C027A977B057912128B0D900577FF
:102B1000E0F5828E83C082C0837A687B47128E2064
:102B2000D0E0D0E0A26B4008900577E0A2E0501F13
:102B3000C26B9005A4783012873A9002CD7830129B
:102B4000877E7C067D0079007ACB7B0312821E781B
:102B5000907601790012501E126F6C7C1A7B647A99
:102B600020790A12DFAC7E3C790112DEF312522288
:102B70001EEE70F49005B0E0F912501E026906795D
:102B80000112E00D4015790112E00D400E7A3F7BF5
:102B900047128E207A4A7B4712594D757A0C80DC99
:102BA0007C087AA07B05790A126DF49005A4783030
:102BB000221267ED1267F322C030C031C032C03339
:102BC00074019005C0F0740C657A6019126A0712DE
:102BD000873A9005A4783012877E7C087AA07B051E
:102BE000790A128B0D7A797B47128E207401900539
:102BF0003FF012513FC23C791412DEF3124FCC1257
:102C00004F987900126EAF792812DEF3126F5F9041
:102C100002EDE0600312615CE49002ECF00269FEF8
:102C20007A8A7B47128E20126A14800C12690B126A
:102C3000DEB7126857126CE27406657A700690056A
:102C400078E060E8126BB87409657A6003757A08F9
:102C5000227882E67014788AE669700508E66A6070
:102C600009788AE9F608EAF6D24022787FE670020F
:102C700008E6600B787FE624FFF608E634FFF67876
:102C800083E6600A16E6646470090876002276C856
:102C9000087601227884760008760008760078812C
:102CA0007600D24022787FE6700208E6700F7881C5
:102CB000E66402700478897601788176007881E68E
:102CC000FA08E66A6004EAF6D240227882E61289BF
:102CD000190300DA6CD76C1258EA221256A6125663
:102CE000AF22126CA590059FE0FA90059EE0F912C4
:102CF0006C51A2405053C2407882E61289190001FB
:102D0000466D066D386D90058BE07028A269401CF9
:102D10007406657A900597700AE02401FAA3E034FE
:102D2000008004E0FAA3E0FB125899227AFC7B476A
:102D300012594D221256AF22788CE6FA08E6FB12A1
:102D4000589912591222126CCB22126CA5A2405033
:102D500005C2401256AF22126CA5A2405009C240D3
:102D60007AF77B4712594D22900571E0640170108B
:102D7000E4F0900570E0A2E15006C2E1F0126E4569
:102D8000125DA2E990056FF02274189005B0F0E48E
:102D90009005B5F0900597F0A3F07401126DB3E4BF
:102DA000126DB3126E45126E8874029005AEF01269
:102DB0006E3A2290056FF0C2F0126566126E5B22C9
:102DC000126E215021126E50E49005B5F07C017A0C
:102DD000AE7B057922126DF49005AEE064026006C8
:102DE000E060037402F022900571E0C39402400396
:102DF000E014F022E9CEC0E0ECCFC0E08A828B8301
:102E0000EEF9128B30E9F00EA3DFF5D0E0FED0E052
:102E1000FF22EAC0E0AA81AB9B7C01128B0DD0E0BF
:102E200022900572E060117AF07B46128E20E490C9
:102E30000572F0126D89C322D3229005AEE0FA79B3
:102E400022126E12229005B0E0FA7921126E12223F
:102E50007921128B30E99005B0F0227C027A977BC1
:102E60000575F00A90056FE0A42408F9128B0D2275
:102E70007C027A977B057912128B0D227C027A975D
:102E80007B057912126DF4229005B5E0FA792012D3
:102E90006E122290056FE064037004791480067549
:102EA000F00AE0A4F97C087AA07B05128B0D22E9D8
:102EB000C3941F500312501E22EEC0E0E9FE90059D
:102EC000B0E06E7003C3801C126EAFEEC3941F504F
:102ED00012EE9005B0F074FF900571F0900570E06F
:102EE000D2E1F0D3D0E0FE22EEC0E0E9FE1295DFA1
:102EF000EEF9D0E0FE22126EE8E9FAC3940650051E
:102F0000EA9005AFF0D322A2395013126F6C740C03
:102F10005527640C600EA23B92F0124FAD22124F67
:102F2000CC126F5F22000A1114171A1C1E212324D1
:102F30002526292A2C2D2E2F3031323334353637A1
:102F400038393A3C53BAFE43BA011261412253BAAE
:102F5000FE43BA012243BA012253BAFEC28022A222
:102F6000394008D239740190057AF022A23950080C
:102F7000C239740190057AF02290057AE0601CA2B3
:102F800039500643BA01E4F02290058DE070091231
:102F90006F59E490057AF02214F022E490058DF048
:102FA000229002E4E0F8900593C3E098A3E0940037
:102FB0005008900593E8F0A3E4F09002E5E0FA9061
:102FC00005C1E0F8A3E0F9C3EA98E4995008900538
:102FD000C1EAF0A3E4F0900592E004F0C39432500B
:102FE00003027126900593E0F8A3E0F9E875F07B01
:102FF000A4F8AAF075F07BE9A42AF912712775F0FC
:1030000096A4FAACF075F096EBA42CFBC3E89AE911
:103010009B50177404900595F0740190058FF09003
:103020000590F0789076020270AC12712775F0A0CE
:10303000A4FAACF075F0A0EBA42CFBC3E89AE99BD2
:1030400050187407900595F074019005BAF090053A
:10305000BBE064FF7056741E805112712775F0DC5E
:10306000A4FAACF075F0DCEBA42CFBC3EA98EB9966
:103070005007741090059580327401900595F07496
:10308000FF9005BBF0E49005BAF0900590E0640174
:10309000700CA26978905004760380027601E4F007
:1030A00090058FF090058EF090058BF09005C1741F
:1030B000E8F0A37403F0900593E4F0A3F090059278
:1030C000F0900596E0FA900595E06A600BE09005B7
:1030D00096F0E49005918005900591E004F090054C
:1030E000B4E07009900595E09005B4F02290059148
:1030F000E0C39405400AE4F0900595E09005B4F033
:103100009005B4E06404701E90058EE064017016B2
:103110007409657A6010757A0974019005B9F07ABE
:103120004D7B48128E20229005C1E0FAA3E0FBEA15
:1031300022FFFFFFFFFFFFFFFFFFFFFFFFFFFFFF7C
:10314000FFFFFFFFFFFFFFFFFFFFFFFFFFFFFFFF8F
:10315000FFFFFFFFFFFFFFFFFFFFFFFFFFFFFFFF7F
:10316000FFFFFFFFFFFFFFFFFFFFFFFFFFFFFFFF6F
:10317000FFFFFFFFFFFFFFFFFFFFFFFFFFFFFFFF5F
:103FF000FFFFFFFFFFFFFFFF0000000000000000C9
:00000001FF
