:10000000027FED024C94FFFFFFFFFFFFFFFFFFFFAA
:10001000FFFFFFFFFFFFFFFFFFFFFF024AB8FFFFE9
:10002000FFFFFF025307FFFFFFFFFFFFFFFFFFFF81
:10003000FFFFFFFFFFFFFFFFFFFFFFFFFFFFFFFFD0
:10004000FFFFFFFFFFFFFFFFFFFFFFFFFFFFFFFFC0
:10005000FFFFFFFFFFFFFFFFFFFFFFFFFFFFFFFFB0
:10006000FFFFFFFFFFFFFFFFFFFFFFFFFFFFFFFFA0
:10007000FFFFFFFFFFFFFFFFFFFFFF024550FFFFF6
:1000800002427B02923B0248EC0245FB0245FD0224
:10009000922B025B0F02B76002466202467002B802
:1000A000B902B8FD02B9AD02B83002C00D02C03AC3
:1000B00002BF4102C06922000022000002B44D02CA
:1000C000B6BD02D31A023DB102508302D34D02C71E
:1000D000E702D44F02D4A302D56B02216302249A13
:1000E00002245B0224620224F40223FB022A90020F
:1000F00029DD0252DD025BD602A460025D3402A655
:100100005A02B0C102AA0A025AAF025AC122000022
:1001100022000002A8ED02A8FF02A79302A7FD0299
:10012000A47E02ABDB02AC9602AB7C02AA8702A6DD
:10013000BD02AC6302AD0E02AEB502ADC102B31892
:1001400002B2AD02B1A102B165220000025B9A02C7
:10015000DC9002D98E0245D4025B3802DC1702DD46
:10016000C0025BAF025B81025B4902D8A902A31700
:100170000244410244C202A29002A1F7025DA622FB
:10018000000022000002A2EB2200000243B0024362
:10019000B40243B80243BC0243BF0243C20243C598
:1001A0000243C80243900243A20243CB0243D1025E
:1001B0005BE6025D2B0245F22200002200002200D5
:1001C0000002F3F702E6EE02E55F0245F30245F5B1
:1001D0000245F402F38F02F3F60245F60245F702F8
:1001E00045F902448A02EB2D02EB6C0245FA02EE5D
:1001F0003412428AB90003024278E479477805B89C
:1002000000028004F709D8FCE4790878F8B8000205
:100210008004F709D8FCE49000007801791180028D
:10022000F0A3D8FCD9FA9005BFAA82AB8390485DB1
:10023000780579018015E493A3AC82AD838A828B23
:1002400083F0A3AA82AB838C828D83D8E9D9E7900F
:100250000280AA82AB8390485D780179018015E421
:1002600093A3AC82AD838A828B83F0A3AA82AB83F3
:100270008C828D83D8E9D9E712490375D000758146
:1002800000759B017500FF0241F17901221242E4E1
:10029000907FF7E493540F903061F0907FF5E493F2
:1002A000903063F0907FF6E4931242AD229030627A
:1002B000F043CE09E5CE7A057B00128ADF53CFFCEE
:1002C000E5CF1242D27A051242DD7A407B06128ACD
:1002D000DF2243CF80903058E0D2E5F02212433045
:1002E000D2E6F022125D0143CB20790112DF1443E4
:1002F000CB03E5CB53CCF3E5CC53CEFE22E933332D
:1003000054FCC0E074F355CCFAD0E04AF5CC53CCA1
:10031000EF743F55CC4480F5CC74FC55CB4402F5CA
:10032000CB12432EC2E6F012432EC2E5F0227A50E1
:100330007B00128ADF903058E02243A3049030649F
:10034000E04430F075440512428D79011242FD758A
:10035000443075460022900500E07015790012DFE8
:10036000E9500BA2A89232C2A8D2F01245D47588E7
:100370000022900500E07017790012DFE9500D7936
:1003800000125BAF758801A23292A8227588002204
:10039000124356903011E0D2E2F0E0D2E4F053BBC9
:1003A000EF22903011E0D2E4F043BB1012437222EE
:1003B00053BBFB2243BB042253BBEF22D29222C287
:1003C0009222D29422C29422A29222790A12DEFDB3
:1003D0002280F874011288A0E9FE125D3DE9FF90C9
:1003E0000500E0F530EE6F6011EFC39402500BA2F0
:1003F000A89200C2A8D2F01245D4EEF9125B9E1268
:10040000414C5006125129D38017EE6F6012EFC392
:100410009402500CA930125B9E12414CA20092A88B
:10042000C37F010288B6EEC0E0E544FE7544301299
:100430005CC612A9D38E444003C38001D3D0E0FE32
:100440002274081288A08A308B318C328D33129638
:10045000DD8A348B358C368D37785AE260159048BA
:100460005978301285A5783479301282DF6004E43F
:10047000785AF27F080288B62222C230C231740153
:10048000784CF274FF9002C4F022EEC0E012EAF061
:10049000E9FE74046E7025900500E0700B7901127E
:1004A000DFE9500479018011900500E06401700CCF
:1004B000790012DFE950057900125B9EEEF9D0E079
:1004C000FE2274041288A08A308B318C328D331254
:1004D0002AA9E9FE70739089C87830128327706961
:1004E0007848E224BEF58208E23401F583E06480B6
:1004F0006003E07054A3A3A3A3A3A3A3A378301223
:10050000873A9089C8783012832770047900803B3D
:10051000AA30AB31AC32AD33122AA9E9FE7017789C
:1005200048E2F58208E2F583E0FA74EB6A6007744A
:10053000E96A60027E019089C87830128749AA3042
:10054000AB31AC32AD33122AA9EEF97F040288B682
:10055000C08B538BFB0202C1A2AF92F0C2AF75AA4F
:10056000009002C4E9F064FF6038E9543F2323900F
:10057000469A2582F582E43583F583740293C0E0C0
:10058000740393C0E0E493F9740193903042F0E96E
:10059000F09002C17402F0A3D0E0F0A3D0E0F075B7
:1005A000AA02A2F092AF22D08B75E906D0E0D0E08B
:1005B00074B4C0E074C6C0E03290048CE06404609F
:1005C00003029E1574081288A08931FF7E077532D8
:1005D00044029F10C020A2F092007902125B38A260
:1005E0000092F012DD0292007900125B38A200D076
:1005F00020222222222222D3222222D32222740447
:100600001288A0EAFEEBFF129B90E9FA90056AE0DF
:10061000601B8E828F8378007902E06463F0A3E828
:1006200024FF18E934FFF9E87001E970EDEA602968
:100630009005AEE06402600C90059BE064017002DE
:10064000A3E0701B9047FE7830128749AA30AB3187
:10065000AC32AD337900129CEFD37F040288B6C36D
:1006600080F89002ECE06004125FF8221245FE224E
:10067000C030C031C032C0339002ECE0600512607F
:10068000BA800E129CEFE96004D2F08002C2F0A2A0
:10069000F0D033D032D031D03022B1C6A7450400DB
:1006A00000000002000000010102736420256420A4
:1006B000696E6974206661696C0A0076636D6275A3
:1006C000665F666C61673A2025640A0025645F25D1
:1006D00064006D696E3A2025640A00636F756E745C
:1006E0005F6C65645F6F66663A2025640A00465059
:1006F0004F4E0A00762D0A00762B0A00706F776540
:10070000725F6B65795F636E743A2564200A006ED0
:10071000756D3D25642C746F74616C3D25640A0011
:10072000463A253032785F004B65793A25640A00F5
:1007300053494E474C45204C6F6F700A004E6F2056
:100740004465766963652100206F6E00546F7461A3
:100750006C3A25640A00427265616B20256C642C3A
:1007600020256C640A006465766963655F63686769
:10077000203D2025640A007461736B20666C6173F0
:100780006820657869740A007461736B5F666C61D8
:1007900073680A0000040000000800006C65645FD4
:1007A0006F66660A00416761696E0A007461736B67
:1007B0005F69646C650A00736F66745F706F77655C
:1007C00072646F776E0A00706F776572206F6E2E9D
:1007D0002E2E0A00206F6E00416761696E206F6ED9
:1007E0000A006F6666007461736B5F706F77657285
:1007F0006F66660A0069646C650020207000020064
:1008000000006972746320706F776572206F6E0AE2
:100810000073746172740A006E6F7420667269737B
:10082000740A007379735F63746C2E766F6C756DE8
:10083000653A2025640A00B5CDB5E7B9D8BBFA2ED4
:100840000A00524946469F90AB154572726F720A74
:1008500000FFFFFFFFFFFFFF00010000000101E8B4
:1008600003CAC0E0E493A3C582CCC582C583CDC5CD
:1008700083F0A3C582CCC582C583CDC583DAE5D01C
:10088000E0CA22C0E0E8C0E0E9C0E0EAC0E0EBC0B6
:10089000E0C082C083E581C39409F582E4E59B94BE
:1008A0000054034400F583E0F8A3E0FAA3E0FBA3BF
:1008B000E0F9C3E5829403F582E5839400F583EAC9
:1008C000F0A3EBF0A3E9F0A3E8F0E5822406F582BB
:1008D000E43583F583D083D082D0E0FBD0E0FAD03A
:1008E000E0F9D0E0F8D0E0A2E7D0E022A2AF500FCC
:1008F000A2AB500B7401299005B6F0E070FD2212F6
:10090000DF142243F72012494A12626080FE7954B4
:1009100012F65EE9FAE490058CF0EAA2E450257440
:10092000EF5AFA795512F66B74019005B8F07A0215
:100930007B48128E20740190058CF0757A09792A13
:1009400012921822E49005B8F022EEC0E012433A69
:100950001292027A117B48128E20D289790112DF1D
:100960001475880012447A1292A37A1079B212DEBA
:100970007C126C26752700752E007401900280F0A1
:10098000E49005B4F09005AFF0740190051BF09071
:10099000051AF0757B00E4900571F0900586F090E3
:1009A0000588F0900589F09002ECF07C03FDF97A5F
:1009B000EC7B0212821E126EE0128B47E49030290B
:1009C000F0742F903028F012490E12538274FF9069
:1009D00005BBF0752C0A9005BDF0126ED6126C6D39
:1009E0001253C71266441260F31260DC1261F2E423
:1009F00092E09002EDF01260F7125970D2AF7401DC
:100A000090056FF0C2F0126501E490056FF0C2F03E
:100A1000126501126DB312665A53BAFEC28053BA00
:100A2000FED280124E7E43F7207E0779011263CBFF
:100A30001EEE70F7126D52789076019002EDE06034
:100A40002E90058CE0640160267A187B48128E2077
:100A5000757A067401900586F0F529F52AF52B794B
:100A60009612DEF3752900752A00752B00801B791C
:100A70000212E00D400E790012E00D4007790112DC
:100A8000E00D50067401900586F0741E9005B0F0DC
:100A9000F9126E419005AFE0F9126E7A9005B0E060
:100AA000F582758300C082C0837A237B48128E2032
:100AB000D0E0D0E0D0E0FE22C0E0C0D075D010C0C1
:100AC00082C083C0F0C08BC0865386C0C084C085FE
:100AD00053C27F054B12569F7403554B6003024C63
:100AE00070054A754B00E54AA2E05003024C7005C0
:100AF00048754A009005B6E06003E014F0E548A2AE
:100B0000E04003124EEAA2C140199005BFE0640123
:100B10007011E4F0C0E0C0E07ABB7B46128E20D0BA
:100B2000E0D0E0E54875F00584E5F06003024C7024
:100B3000E54560041545E545126BFD1254E5126F5D
:100B40000B0547E547A2E04019754800126D799002
:100B5000056EE004F0C394974008E4F0740190053A
:100B60007DF074C865476003024C707547009005BE
:100B70008FE06401701090056DE004F06404700B68
:100B8000740190058EF0E490056DF09005BDE0FADB
:100B900074FF6A6005EA600214F09005BBE0FA7425
:100BA000FF6A6005EA600214F09002E8124C83C00C
:100BB00082C0839002E7124C83C082C0837ACC7BD0
:100BC00046128E2074FC1288750549E54975F03C83
:100BD00084E5F06003024C70754900900579E0608F
:100BE0006A792D12921890056CE004F090057EE071
:100BF0006401700D90056CE0640F702F7941124C08
:100C00008A90057EE06402700D90056CE0641E70B1
:100C10001A7942124C8A90057EE06403700D9005AB
:100C20006CE0643C70057943124C8A90056CE0C31B
:100C3000943D4002E4F0124C83C082C0837AD27BA0
:100C400046128E20D0E0D0E0754900900585E00482
:100C5000F0F582758300C082C0837ADB7B46128EFA
:100C600020D0E0D0E0900585E0C394104002E4F08D
:100C7000D085D084D086D08BD0F0D083D082D0D015
:100C8000D0E032E0F5827583002212921874019050
:100C90000578F022C0E0C0D075D008C082C083C003
:100CA000F0C08BC0865386C0C084C08553AD7F43DF
:100CB000F7201252CAD085D084D086D08BD0F0D005
:100CC00083D082D0D0D0E03274021288A0E5466989
:100CD000606C8946A2AF5004D2008002C200C2AF4D
:100CE000E91289190000ED4CEA4C8E300EE5CEEE8B
:100CF000F91242FD74035530790024A6F582E434DC
:100D000046F583E4932EFEE4903029F0742F903062
:100D100028F07407C39EFA74F855E24AF5E274F8B5
:100D200055C24AF5C27530338931EE783012882BBE
:100D3000E530F5C575C670125B38A20092AF7F0230
:100D40000288B675D91075E8067C44E5EFA2E75035
:100D5000FAEAF5EDEBF5ED1CEC70F0790112DEF33B
:100D600022744C903052F074E2903053F09030592D
:100D7000E0D2E3124E5A7AFF7B7F124D43903053FC
:100D8000E0D2E2F07A05124E6A124E2650FB7A004B
:100D90007B80124D437A05790412940A7AFF790315
:100DA00012940A7A7F790212940A124E2650FB7925
:100DB0000B124E4AD2E3F0903059E0C2E3124E4497
:100DC000C2E2F07A007B00124D43903053E0C2E55E
:100DD000F0E0C2E1F0790112DEF3903052E0C2E6B9
:100DE000F0E0D2E7124E44D2E0F07903124E4AC24C
:100DF000E3F0E0D2E5F0793412DEF3124E3ED2E1B8
:100E0000124E4F124E2F79061293FAE9A2E150F6D4
:100E1000903052E0C2E4F0C23B74419003CCF01237
:100E20004FB6124F822279021293FAE9A2E7227A90
:100E300005790512940A7A01790612940A229030F3
:100E400052E0D2E6F0903053E02212DEF380F6F06A
:100E5000903052E0D2E4F0024D5BF09030A1E0D24D
:100E6000E0F07A09790012940A22790412940A7A3D
:100E700000790312940A7A00790212940A2253C963
:100E80007F129590124D61229003CCE07008900380
:100E9000D1E05403600B74809003D1F0E49003CD53
:100EA000F0229003D1E054036008A23B5018124F87
:100EB00076229003CEE09003CDF0A23B5002800753
:100EC00074819003D1F02274839003D1F0227903CE
:100ED0001293FAE9700A79021293FAE964806005C4
:100EE000124FDBC322124E88D322C030C031A23849
:100EF000507F9003D1E0A2E7502D9003CCE0FA9010
:100F000003CDE06A600D1292BB9003CCE0F912931E
:100F10001C805E9003D1E064837003124F769003CF
:100F2000D1E0C333F0804AA23D504685D930740FDA
:100F30005530F5307531007407783012884EAC307A
:100F4000AD312CF874023D13F9E813F87A0F7B00E9
:100F50001287CEE8F9E49CFA74119DFB12DF72123D
:100F6000DFDEE96007D23E124EA28005C23E124E7D
:100F7000CED031D030229003CFE0FAA3E0FB129222
:100F80007A22900280E0600E43F7209003D1E0A225
:100F9000E740F843F72022A2F0900280E06016922A
:100FA0003BA23C500974BF55274420F52722C23884
:100FB000124EA2D23822900280E0601E5327DEA299
:100FC0003B5012124FDB800343F72079021293FA51
:100FD000E9A2E750F3124E88D238227A0079031240
:100FE000940A7A00790212940A229003D1E0540301
:100FF00060159003CEE09003CDF0A23B5003024E6B
:10100000C774819003D1F022C030C031C238900340
:10101000CFE4F0A37478F0E91250499003CEF012B7
:101020004FEAD238D031D03022C030C0318930A21E
:101030003B50077A007B7812927AE530125049F9DA
:101040009003CEF012931C80DB24B7F582E4346E5B
:10105000F583E49322EEC0E09002C4E0FE79001232
:10106000455812C67FEEF9124558D0E0FE2274E3CF
:1010700045E6FA78A9E6640170038AE62274FD5A0F
:10108000F5E622EEC0E012D5804004790080647459
:1010900005655C700C12D4AAE9FE12528EEEF9803E
:1010A00052740F655C700874FD55E644E0F5E67413
:1010B0000E655C700C78A9E66401700578B5E67081
:1010C000CA123DC3E960C47410655C700A125055C1
:1010D000755C137901801C740B655C700512506E91
:1010E000800F7402655C70099002ECE06003755C2F
:1010F000037902D0E0FE2212D444E9FA701690057A
:101100003EE004F0C39433500474058002740190EF
:101110000526F02274026A60F4E490053EF0E5EDE5
:1011200060E722900526E0F922900526E0604FA2B4
:101130003F500312525AD23A90053FE06006124FD8
:10114000B6124F82C2A8C2AC75E80475E70075EE0E
:101150000075EF0053AD7FE49005261251876005BE
:101160001252467005125251801112524C600712F1
:10117000524C64017005D2F01245D412933CE490B5
:101180000525F022900525F012524C640222C03051
:10119000C031C032C033129273E490053EF0125D4C
:1011A000AC1252C112D5B750159003D4C3E09411BC
:1011B000A3E0940040047900803F7402801312B7CA
:1011C00010E9646070F01252C112D2AB50E81252B2
:1011D00002125184600512524670057900125C0CAF
:1011E000D2ACD2A89089C878301287499005277868
:1011F0003012877E900525E0F9D033D032D031D03F
:1012000030221252B443AD8000740122900526E0D2
:1012100064057005740212526622C23A1251886047
:10122000051252467008125CC67900125C0CA2A826
:10123000C2A8740290052612526692A8A2394005EF
:10124000D2F0124F972212524C640322125D3DE9F4
:101250002212B1657901125C0C22124F82791012B0
:10126000DEF322900526F043AD80002278F48A82D6
:101270008B8312877E088A828B83A3A3A3A3128702
:101280007E22E6FA08E6FB08E6FC08E6FD2278D8AE
:1012900012528212B715900527EAF0A3EBF0A3ECE7
:1012A000F0A3EDF022900527E0FAA3E0FBA3E0FC19
:1012B000A3E0FD2212B3F378DC125282790102C15D
:1012C0003DE4F9FAFBFCFD024670900526E0FA7455
:1012D000026A600574046A70031250F722EEC0E0DF
:1012E000EFC0E01225035003D380157404C0E01250
:1012F000BAF0D0E0F97C427D4812824CE960E9C343
:10130000D0E0FFD0E0FE22C0E0C0D075D008C0829F
:10131000C083C0F0C08BC0865386C0C084C0851215
:10132000D3AE43AD8000D085D084D086D08BD0F0B2
:10133000D083D082D0D0D0E0327582FB7583FF128B
:10134000888DE0F8A3E0F9A2F0501CC3E89AE99B6D
:101350004007C3EC9AED9B4005E8FAE9FB2274FFD5
:101360002A1A74FF3BFB22C3EA98EB995007C3EAA1
:101370009CEB9D5005ECFAEDFB2274012A0AE43B3C
:10138000FB22538BEF438B01795412F65EE9FA90FE
:1013900005B8E0600D740C4AFA795512F66B7401C9
:1013A0008001E4900572F02243BB01539CDF903032
:1013B0004CE0C2E2F0E0C2E1F0E0C2E0F074049080
:1013C000304FF075D188227C0C7D0079007AE07B6B
:1013D0000212821E7C057D0079007ADB7B0212827C
:1013E0001E742490300CF0903050E0D2E6F0903033
:1013F00056E0D2E0F075D18D74049002E0F0125303
:10140000A874029002E0F043BE0CE5BE74FF903079
:1014100057F022E5D1A2E75002C322E5D49002E1C1
:10142000F0D3229002E1E0FAC39420500FE490053B
:10143000BCF09005BDE0703074FFF0229005BCE078
:10144000FBEAC394A0500E74016B601C7401F0E4BD
:101450009005BDF022EAC394B1400D74026B6008A0
:101460007402F0E49005BDF0227A009002E7E0FB00
:1014700080010AEAC333F8E433F9E8240BF582E982
:101480003456F583E493C39B40E8A3E493F9227AAE
:10149000009002E8E0FB80010AEAC333F8E433F984
:1014A000E82421F582E93456F583E493C39B40E8B0
:1014B00080D8795412F65EE9A2E1501474019005C7
:1014C00088F0790F900589E0FA70127401F08012AB
:1014D0007402900588F0900589F079002274016A01
:1014E0007002790022EEC0E07E0012541340030225
:1014F00055E69002E0E01289190207E6550D5552B3
:101500005527553B55E655E65574558F55125423CE
:101510007E00EE700C74049002E0F075D18D0255DF
:10152000E675D1880255E69002E1E09002E4F0749D
:10153000059002E0F075D18E0255E69002E1E09050
:1015400002E5F074039002E0F075D189126F330266
:1015500055E61254B2E9FEEE600C74039002E0F01E
:1015600075D1890255E674089002E0F043D22075E7
:10157000D18980729002E1E09002E7F0125469E9AB
:10158000FE74099002E0F043D22075D18A80579012
:1015900002E1E09002E8F012548FE9FE740290023A
:1015A000E0F053D2DF75D188EEC3940B402F740B5B
:1015B0006E7008740190057EF0802B740C6E7008BC
:1015C000740290057EF0801E740D6E700874039096
:1015D000057EF08011740090057EF08009EE7006A3
:1015E000740090057EF0EE70051254B2E9FEEE60D4
:1015F00016EEF912DE8F9005BCE0600B748F6E70F2
:1016000006740A9005BDF0D0E0FE220D00290146C7
:101610000262037E049A05B706D307EF08FF09FFAD
:10162000002A007E0BD30CFE0DFF0043BD1043BD0E
:101630000843BD0243BC8043BC0443BC0243BC011D
:101640002212562BE49002D8F0227B057A00796EA4
:1016500012DEED227884E6086024E64572F5720811
:10166000E6FA740C5A600908E6F56E08E6F56F2292
:1016700074035A602908E6F57008E6F57122E6F46D
:101680005572F57208E6FA740C5A6007756E0075AB
:101690006F002274035A6006757000757100227421
:1016A000021288A090056BE0C394064008E4F09015
:1016B00002D8E004F09002D8E0C394074002E4F0BE
:1016C0001256541257BA90056BE0FA9002D8E06AAD
:1016D000700690056BE004F07530018E319002D8F1
:1016E000E0783012884EAA30753001F53190056BE4
:1016F000E0783012884E9002D8E02473F8E5305636
:101700004AFEEAFF12562BEEA2E0500EEFA2E05086
:1017100004D2B48002C2B453BDEFEEA2E1500EEF8A
:10172000A2E15004D2B38002C2B353BDF7EEA2E2ED
:10173000500EEFA2E25004D2B18002C2B153BDFDFF
:10174000EEA2E3500EEFA2E35004D2A78002C2A79C
:1017500053BC7FEEA2E4500EEFA2E45004D2A2806C
:1017600002C2A253BCFBEEA2E5500EEFA2E550046C
:10177000D2A18002C2A153BCFDEEA2E6500EEFA2A0
:10178000E65004D2A08002C2A053BCFE90056BE0DC
:1017900004F09002D8E0C39403500A90056BE06413
:1017A000047012800DE06405700B90056BE0640519
:1017B00070037406F07F020288B6C2AF7B077A001E
:1017C000797312DEED756EFF756FFF7570FF7571C1
:1017D000FF7572FF4374014375014376014377013E
:1017E00043780143790143750243730E4376024304
:1017F00077024378024374044376044377044378C2
:10180000044379044377084378084379084375080B
:10181000437840437720437808437630437740430A
:101820007520437320437802437310437548437413
:1018300040D2AF22EEC0E0C030C031EAFCEBFD7E0A
:1018400002ECF8EDF97A0A7B001287CEEA24B4F5AF
:1018500082EB3458F583E493C0E0746E2EF8D0E048
:10186000F6ECF8EDF97A0A7B001287CE88308931E0
:10187000AC30AD311E74FF6E70C7757100D031D0C1
:1018800030D0E0FE22C0309005B0E0FA7B00125864
:1018900034756E3ED03022125D3DE970044372080B
:1018A00022125D3DE96402700343720422757240A6
:1018B000125897223F065B4F666D7D077F6F777CDE
:1018C000395E79716F76061E703854373F736750F2
:1018D0006D783E3E1C366E5B1818762C087601D269
:1018E00040227881760380F074041288A08E30EA5A
:1018F0002530F582EB3400F583E493F530746E2ED9
:10190000F8E530C394304017E530C3943A5010E501
:10191000302484F582E43458F583E493F6804385DB
:101920003032E53224BEFCE43458FDE530C3944146
:101930004011E530C3945B500AEC24BFF582ED34CE
:10194000FF80D5E530C39461400CE530C3947B50F3
:101950000FEC249F80E674206530700476008002CE
:1019600076400E74046E70857572007F040288B62E
:101970007C2A7D0079007A407B0512821E742890B3
:101980000544F0900549F0743C900562F07428908D
:10199000054EF0900553F0900558F090055DF090DD
:1019A0000567F022EEC0E0E9FE12E00D5003D3809F
:1019B0000FEEF912DFF84003C38005EEF91259C7A4
:1019C000D0E0FE22790922EEC0E0C030C031E9FE4D
:1019D000600574016E701B1243D340398E3075312F
:1019E00000C030C0317AAA7B46128E20D0E0D0E011
:1019F000801674026E701E125B0E7900125C55E93F
:101A0000FA70081244264008C3802374026A60F802
:101A10007901125C0CEEF912E0227530017531008B
:101A2000EE783012884E900540E04530F0D3D0314A
:101A3000D030D0E0FE22EEC0E0EFC0E0C030753024
:101A4000007E00EEF912DFF85014EEF91263B8EEE2
:101A5000F91259A45008EE90051BF07530010EEEF6
:101A6000C3940440DE125D3DE9FF90051BE064FF76
:101A7000703274FF6F602D12E00D4028EFF9126391
:101A8000B87530027E000FEFC3940440027F00EF70
:101A9000F912E00D5007EF90051BF080070EEEC322
:101AA000940340E2A930D030D0E0FFD0E0FE229095
:101AB00002D2E07006900550E0F922900555E0F959
:101AC000229002D2E0701EE9900550F074026990F5
:101AD00005407005E0D2E2F022E0C2E2F0E97005D4
:101AE0007900125C0C229002D2E07011900550E057
:101AF000FA74026A600574036A7011D32290055566
:101B0000E0FA74026A60F474036A60EFC32222C3CD
:101B1000E9F5F0C0F01259C4D0F0E5F09940057A2B
:101B2000007B0022E5F075F005A42442FAF582E579
:101B3000F03405FBF583D322740165467005E9C3D3
:101B40003304F9E9903000F022900500E07017E9C5
:101B5000900546F07402699005407005E0D2E0F00F
:101B600022E0C2E0F02264017016E990054BF074A7
:101B700002699005407005E0D2E1F022E0C2E1F098
:101B800022900500E07006900546E0F9226401709D
:101B90000690054BE0F92279002212DB4022E96031
:101BA000057401697003125BCAE9900500F0221206
:101BB0005BCA43BB1043BB04903011E0D2E2F0E0BB
:101BC000D2E4F053BBF753BBF722903056E0C2E7A4
:101BD000F0E0D2E6F0229002D2E0700479028002B6
:101BE000790312DFE92243F7209051F9E064037092
:101BF00005790212408612EA659051F9E06403709B
:101C0000057902124086790612DFE922E96009129D
:101C10005AE6500474808001E490051CF022E9909B
:101C200030576005E0D2E2F022E0C2E2F022E96043
:101C30000543DC10800353DCEF787DEAF60876007C
:101C400022125C2E75FC0A227A0280F57A03125C5D
:101C50002E75FC052274041288A089329002D2E00D
:101C6000F533125D3DE9FAE5336532604585333081
:101C700074022530FEE43400FF8A82858230EE65EE
:101C8000307001EF700CA2A89200C2A812B16512C8
:101C90005CF1E532125CB9500479018017EE6530D1
:101CA0007001EF7009E533125CB9A20092A87902C5
:101CB000800279007F040288B69002D2F0E0F91227
:101CC0005C1E124426229002D2E0700FA230501601
:101CD000C230125CE7700F7401F022A2315007C2CB
:101CE00031125CE760F12212A3A9900550E0640272
:101CF000229002D2E07004D2308002D23112A3D6F8
:101D0000229002D2E07012900550E06402701B1223
:101D10005CF17401900550F022900555E06402706A
:101D200009125CF17401900555F0229002D3E0F99C
:101D3000125C4C229002D2E0F9125C482290051A03
:101D4000E0F922E490051EF074FF90051BF0E99085
:101D5000051AF0C394045007E490051DF0D32274D3
:101D60000290051DF0C32290051BE0FA74FF6A6023
:101D70003474026A600574036A700974FE2AF912E9
:101D80005C558019EA600574016A70111244791279
:101D9000447890051BE0F9125B9E12414C90051BA4
:101DA000E0F9125D43227401784CF22279087A81BD
:101DB0007B0212B41C2253C9FB43D602E490300BC1
:101DC000F043D60175D5FF227A0A001AEA70FB2289
:101DD00053D6DF89D5E5D6A2E750FA2243D620753F
:101DE000D5FFE5D6A2E750FAA9D52274081288A03B
:101DF0008A348B358A308B318C328D337410783045
:101E000012853EA93012612D853531A93112612D1F
:101E1000853430A93012612D025E64EEC0E012619B
:101E200009790512612D126129E9FE126119EEF995
:101E3000D0E0FE22EEC0E07E0F80091E125E1BE99C
:101E4000A2E0500E43F720125DC8EE70EEE490025F
:101E5000EDF0D0E0FE22D0E0D033D032D031D0301F
:101E6000221261197F080288B643D620EB90300910
:101E7000F0EA903008F0EDC313EC131490300AF040
:101E8000E5D6A2E750FA2274081288A08C308D3172
:101E90007582EE7583FF12888D783412873AEAFED8
:101EA000EBFF125E341261097903125F198003128D
:101EB0005F28EE54036008E5307002E53170F0C32E
:101EC000E5309404E53194004044C3E5309400E5E6
:101ED0003194024008753200753302800C74FC5551
:101EE00030F53274FF5531F533AC32AD33EEFAEFE5
:101EF000FB125E69EE2532FEEF3533FFC3E5309508
:101F000032F530E5319533F53180B4125F28E53094
:101F10007002E53170F5025E6112612DAA34AB35B5
:101F2000AC36AD37125DEB22126129E98E828F83C8
:101F3000F0A3AE82AF83E53024FFF530E53134FF06
:101F4000F53122C030C031C032C033740412886110
:101F50008A308B318C328D3378301288CD7C04FD01
:101F60007582F77583FF12888DAA82AB8312613F59
:101F700074FC1288757582FB7583FF12888D78302A
:101F800012873AAA30AB31AC32AD3374FC1288758B
:101F9000025E5874081288A09089C8783012874968
:101FA0009002CD783012877E89308E318E328E331A
:101FB00074037830128557AA30AB31FCFD125F43B1
:101FC0008A348B358C368D379002C5783412877EF3
:101FD00090469E78301285A5AA30AB31AC32AD3335
:101FE000125F438A308B318C328D339002C9783046
:101FF00012877E7F080288B674081288A09002CDEE
:10200000783412873A9002C9783012873A7830795A
:10201000341283734004C30260B79002C574087819
:1020200034128557783412858F78341288CDFC7D30
:102030000212613F74FC1288759047FE7830128757
:10204000499002CD78301285D8900525E064027061
:10205000659046A27830128749795B78301285EE18
:10206000900575E0F530A3E0F5318E328E337408BB
:102070007830128557783079341283734038900560
:1020800073E0FCA3E0FDECCDCE9002C5F0A3EDF033
:10209000A3EEF0A3E4F09002CD783012873A9002DC
:1020A000C978301286519089C878301287499002D9
:1020B000CD783012877ED3025FF3C030C031C0329A
:1020C000C0339089C878301287499002CD78301299
:1020D000877ED3D033D032D031D03022903058E008
:1020E000C2E4F075D61053BBDF53BBBF53BB7F12A6
:1020F0005DB62275880022790012DFE94007790178
:1021000012DFE95003758801229005BEE01289199B
:10211000010018611661C297229005BEE01289196C
:10212000010028612661D29722125DDC22125DD067
:102130002274FC128875D033D032D031D03022C016
:1021400030C031C032C0337582F57583FF12888D7F
:10215000783012873A78301288CD125E8780D27438
:10216000091288A07404128861E9FE9089C8783445
:1021700012874912610974906E600574AB6E70131A
:10218000EEF9125DD07900125DD07900125DD07940
:10219000008002EEF9125DD0753800853830758206
:1021A000FB7583FF12888DE5822530FEE5833400C0
:1021B000FF126129E98E828F83F0740878341285CA
:1021C00057E0F53075310075320075330078347999
:1021D000301285790538E538C3940440BE12611980
:1021E000AA34AB35AC36AD3774FC1288757F090262
:1021F00088B674041288A043BB4043D62074019073
:1022000005BEF0C2008E30E5302446F582E4344845
:10221000F583E493F912615F8A308B318C328D3310
:102220009048517830128327601D9089C878301209
:102230008327601390485578301286947830128343
:10224000276004D200800E0EEEC3940440B77A4A91
:102250007B48128E20A2007F040288B6125F932270
:102260008003126BB2126C26124F82126EF1C23AC8
:10227000E57AC3940C50097409657A6003857A7B0A
:10228000E57A12891906039B6262629B62966291EB
:10229000621266DA80CF12654B80CAE57B1289191B
:1022A0000000B162A6629002EDE06005757A0680DA
:1022B000B4757A0080AFA2704003790022C2701218
:1022C0005A36229005B0E0FAE912894F01AEAF2DDF
:1022D000630A8625638A29638F3763A62563B12540
:1022E00063CF2D63E1F262E30663EAF262EB066319
:1022F000AE6374FF1263AF9005B0E07003126EE737
:102300007AF47B46801B74011263AF9002E6E0C34F
:1023100094C850099005B0E06003126EEB7AF87B28
:1023200046128E2022757A0C22126E9922757A0935
:1023300074019005B9F02290057EE004F0900579D3
:10234000E0700E90057EE0640460067401900579EB
:10235000F090057EE0F582758300C082C0837AFC30
:102360007B46128E20D0E0D0E090057EE0640170C4
:1023700008752901752A00800BE06402700A75292E
:1023800000752A01752B0022E06403700A7529008C
:10239000752A00752B0122E06404701275290075FE
:1023A0002A00752B00E4900579F090057EF0222A32
:1023B000F9126E4B1258E222EEC0E0E9FE125D3DCA
:1023C000E96E7003125129D0E0FE22EEC0E0E9FE72
:1023D00090057DE06005E4F043F720126CFAC2AF8F
:1023E00090057BE02401F0A3E03400F0D2AF90052B
:1023F000BBE064017006857A7B757A0674016E70A5
:10240000191262B6E9FA74016A7005757A008028BB
:1024100074026A7023125D67801E74026E7019A2C6
:1024200070500E790012DFF840E1790212DFF840B7
:10243000DA790112DFF840D3D0E0FE22C030C0319B
:10244000C020A2F09200926AD26890059B12890186
:102450009005971289017A0F7B47128E2074FC1227
:1024600088759005AEE01289190000A0646F649031
:10247000059BE024FFF8A3E034FFF9E8C0E0E9C0E1
:10248000E07C007D00900597E0FAA3E0FBA20092BB
:10249000F0125339D0E0D0E0900597EAF0A3EBF0CA
:1024A000D020D031D03022740C1288A01252A58ACC
:1024B000348B358C368D379089D4783012874978B3
:1024C000347930128429853430853531853632852A
:1024D00037339089E8783812874978307938128410
:1024E00029E53090059EF09089E878301287497888
:1024F000347930128429E53090059FF07F0C0288F2
:10250000B6C030C031C032C033A2F050137AA07BC5
:102510000512526C1295F19005A8EAF0A3EB801E0B
:102520009089C878301287499005A4783012877E48
:102530009005A0783012877E9005A8E4F0A3F012F1
:102540006E25D033D032D031D030227AAC7B4712D6
:102550008E20E4900585F080061262C3126CE97447
:1025600008657A705779011263CB12DEB790058542
:10257000E0640F7015752900752A00752B00757AB7
:10258000097A9C7B47128E2080D2E912894F012064
:10259000259C6502AFB165CFB16559657AA57B47CA
:1025A000128E20E4900578F090056CF0757A068024
:1025B000AB757A0974019005B9F080A0227A01798F
:1025C0005A12F66B75F73D7A007B20128ADF80ED98
:1025D0009005B4E0606D752900752A00752B007AAE
:1025E000B77B47128E207A0C795512F66B43CB10CD
:1025F000C2AF903058E04460F012564174FF903002
:102600001AF0903012F075A00075BC0078BD7965A5
:102610007A007B007C1488828983E4938A828B838E
:10262000F0A3AA82AB8388828983A3A882A9831C92
:10263000EC70E374FC55CB4401F5CB53CCF3E5CC03
:102640001200002279A112F65EE9FA43CD8074BF30
:102650005A441CFA795B12F66B22EEC0E080034309
:10266000F720900588E060F779411292187EFA7998
:102670000112DEF343F720793C1292181EEE70EF40
:10268000740190058AF07AC77B47128E207AD47B3A
:10269000471258E8D0E0FE2243F720126CFA90056A
:1026A00088E0FA74026A70031265D022E91289196F
:1026B000AE01C266B866B8667AD87B47128E2085AE
:1026C0007B7A22D2CA90058AE0600B7AE27B4712BD
:1026D00058E843F7202212564A227AE67B47128EA8
:1026E000201266C3800C12DEB71266AC126CDC12CC
:1026F00066987409657A60EE2274081288A09005C5
:102700007FF0A3F09089C878341287497834128812
:10271000CDFC7D047A007B0C12613F74FC1288753D
:10272000F8F9F530E85407FA74046A70028E30E85C
:102730002400F582E9340CF583E0423074076A70B6
:1027400012E530601F90057FE02401F0A3E0340023
:10275000F08E30E8240108E93400F9C3E89400E978
:10276000940440C090479478341285A59047987897
:102770003012874978307934128373408F1267851D
:102780007F080288B690057FE0FAA3E0FB2274017F
:102790009002ECF053BBDF53BB7FEAF912625C128C
:1027A000518EE990059DF064016002C322D322801E
:1027B0000812521A126E02C269A268502274019065
:1027C000053FF0125129C268900597126B4340E112
:1027D000A26A5007D2F012643C80DEC2F080F72279
:1027E000C26AD2689005AEE064026005C2F012646D
:1027F0003C2274041288A089308982AE82E960216B
:102800009002EAF0FA9002E9E06A7003026898EA3E
:10281000F0C0E0E4C0E07A207B47128E20D0E0D008
:10282000E0EE12894F01010A3668037E5B68865626
:1028300068B156689368EEC0E0E4C0E07A287B4750
:10284000128E20D0E0D0E0D2F012643C900597EEDA
:10285000F0A3E4F08042757A0C803D90059BE0F88F
:10286000A3E0F9758305758297C3E098A3E09940CA
:1028700007900597E4F0A3F012699912873A900542
:10288000A4783012877E7C087AA07B05790A128BA7
:102890000D8005A9301262C37F040288B6C030C023
:1028A00031C032C0339002EDE060047902800279D9
:1028B000011263CB12520CA2705009790012DFE9A9
:1028C0004002C270A2704008900577E0A2E1502C4F
:1028D000E4900577F0125129432D09126999128766
:1028E0003A9005A4783012877E7C087AA07B05791F
:1028F0000A128B0D126E02757A0C80067406657AC8
:10290000600B125129E49002ECF0026990A26B5026
:1029100003126E0E1267AFA26B5010C26B126B32B5
:1029200012873A9002CD783012877E1264A7900207
:10293000CD783012873A900581783012830F600885
:10294000900581783012877E9002C9783012873ADC
:102950007583027582CD783012839940339005AE2D
:10296000E0640260051267E08026A26940227A30A6
:102970007B47128E209089C878301287499002CD0B
:10298000783012877E125123E9C394025002D26834
:10299000D033D032D031D030227AA07B0512526CA5
:1029A0009002CD78302274041288A0F9124CC8121B
:1029B00060F31260DC1261F2E492E09002EDF070DC
:1029C00003026B1174019002ECF0E490056AF09040
:1029D0000587E0700E125897793212DEF374019079
:1029E0000587F07900126E88C23CE490053FF0D272
:1029F0003BF91250297C177D0079007A977B0512EC
:102A0000821EC269432D091266F990059BEAF0A364
:102A1000EBF090059B1289017A4C7B47128E20D0F7
:102A2000E0D0E0E49002EEF09005B7F0126E0E9068
:102A30000597E0F8A3E0F975830575829BC3E098DC
:102A4000A3E0995009C26B900597E4F0A3F0789049
:102A50007601A26B4008900577E0A2E05024126B4B
:102A60003212873A78301288CD9005A078301287DC
:102A70003A78301288CD7A567B47128E2074F8123D
:102A80008875C268900597126B43500812521AC29B
:102A900069126E997C027A977B057912128B0D90E0
:102AA0000577E0F5828E83C082C0837A667B471209
:102AB0008E20D0E0D0E0A26B4008900577E0A2E045
:102AC000501FC26B9005A4783012873A9002CD78DF
:102AD0003012877E7C067D0079007ACB7B031282E0
:102AE0001E789076017900125008126EFE7C1A7BD7
:102AF000647A20790A12DFAC7E3C790112DEF3128F
:102B0000520C1EEE70F49005B0E0F9125008026805
:102B100098790112E00D4015790112E00D400E7A0E
:102B20003D7B47128E207A487B471258E8757A0C15
:102B300080DC7C087AA07B05790A126D869005A45A
:102B400078302212678812678E22C030C031C032BE
:102B5000C03374019005C0F0740C657A6019126975
:102B60009912873A9005A4783012877E7C087AA063
:102B70007B05790A128B0D7A777B47128E207401C0
:102B800090053FF0125129C23C791412DEF3124F26
:102B9000B6124F827900126E41792812DEF3126E5E
:102BA000F19002EDE060031260F7E49002ECF002B5
:102BB00069907A887B47128E201269A6800C126871
:102BC0009D12DEB71267F2126C747406657A700695
:102BD000900578E060E8126B4A7409657A600375C5
:102BE0007A08227882E67014788AE669700508E629
:102BF0006A6009788AE9F608EAF6D24022787FE628
:102C0000700208E6600B787FE624FFF608E634FFE2
:102C1000F67883E6600A16E6646470090876002296
:102C200076C8087601227884760008760008760057
:102C300078817600D24022787FE6700208E6700F35
:102C40007881E6640270047889760178817600786C
:102C500081E6FA08E66A6004EAF6D240227882E663
:102C600012891903006C6C696C1258852212564146
:102C700012564A22126C3790059FE0FA90059EE0AA
:102C8000F9126BE3A2405053C2407882E6128919D0
:102C90000001D86C986CCA6C90058BE07028A26912
:102CA000401C7406657A900597700AE02401FAA327
:102CB000E034008004E0FAA3E0FB125834227AFAF0
:102CC0007B471258E82212564A22788CE6FA08E628
:102CD000FB1258341258AD22126C5D22126C37A2CE
:102CE000405005C24012564A22126C37A240500989
:102CF000C2407AF57B471258E822900571E06401E2
:102D00007010E4F0900570E0A2E15006C2E1F0120C
:102D10006DD7125D3DE990056FF02274189005B0F3
:102D2000F0E49005B5F0900597F0A3F07401126DF2
:102D300045E4126D45126DD7126E1A74029005AEFD
:102D4000F0126DCC2290056FF0C2F0126501126D89
:102D5000ED22126DB35021126DE2E49005B5F07CC6
:102D6000017AAE7B057922126D869005AEE0640291
:102D70006006E060037402F022900571E0C39402E3
:102D80004003E014F022E9CEC0E0ECCFC0E08A823C
:102D90008B83EEF9128B30E9F00EA3DFF5D0E0FE65
:102DA000D0E0FF22EAC0E0AA81AB9B7C01128B0D30
:102DB000D0E022900572E060117AEE7B46128E2000
:102DC000E4900572F0126D1BC322D3229005AEE091
:102DD000FA7922126DA4229005B0E0FA7921126DE1
:102DE000A4227921128B30E99005B0F0227C027A7E
:102DF000977B0575F00A90056FE0A42408F9128B03
:102E00000D227C027A977B057912128B0D227C02AF
:102E10007A977B057912126D86229005B5E0FA79D2
:102E200020126DA42290056FE06403700479148071
:102E30000675F00AE0A4F97C087AA07B05128B0DD8
:102E400022E9C3941F500312500822EEC0E0E9FEAD
:102E50009005B0E06E7003C3801C126E41EEC39407
:102E60001F5012EE9005B0F074FF900571F09005C0
:102E700070E0D2E1F0D3D0E0FE22EEC0E0E9FE1235
:102E800095DFEEF9D0E0FE22126E7AE9FAC39406DD
:102E90005005EA9005AFF0D322A2395013126EFE0E
:102EA000740C5527640C600EA23B92F0124F9722CF
:102EB000124FB6126EF122000A1114171A1C1E21AD
:102EC00023242526292A2C2D2E2F30313233343538
:102ED000363738393A3C53BAFE43BA011260DC2225
:102EE00053BAFE43BA012243BA012253BAFEC2804A
:102EF00022A2394008D239740190057AF022A23911
:102F00005008C239740190057AF02290057AE06089
:102F10001CA239500643BA01E4F02290058DE070FE
:102F200009126EEBE490057AF02214F022E4900589
:102F30008DF0229002E4E0F8900593C3E098A3E0BE
:102F400094005008900593E8F0A3E4F09002E5E0C7
:102F5000FA9005C1E0F8A3E0F9C3EA98E4995008B3
:102F60009005C1EAF0A3E4F0900592E004F0C39468
:102F70003250030270B8900593E0F8A3E0F9E875C9
:102F8000F07BA4F8AAF075F07BE9A42AF91270B9D5
:102F900075F096A4FAACF075F096EBA42CFBC3E8A0
:102FA0009AE99B50177404900595F0740190058F71
:102FB000F0900590F07890760202703E1270B9752C
:102FC000F0A0A4FAACF075F0A0EBA42CFBC3E89A37
:102FD000E99B50187407900595F074019005BAF0BC
:102FE0009005BBE064FF7056741E80511270B97575
:102FF000F0DCA4FAACF075F0DCEBA42CFBC3EA988F
:10300000EB995007741090059580327401900595E6
:10301000F074FF9005BBF0E49005BAF0900590E0E5
:103020006401700CA26978905004760380027601E6
:10303000E4F090058FF090058EF090058BF09005F0
:10304000C174E8F0A37403F0900593E4F0A3F0904A
:103050000592F0900596E0FA900595E06A600BE025
:10306000900596F0E49005918005900591E004F0BC
:103070009005B4E07009900595E09005B4F02290B9
:103080000591E0C39405400AE4F0900595E09005B1
:10309000B4F09005B4E06404701E90058EE0640105
:1030A00070167409657A6010757A0974019005B913
:1030B000F07A377B48128E20229005C1E0FAA3E017
:1030C000FBEA22FFFFFFFFFFFFFFFFFFFFFFFFFF06
:1030D000FFFFFFFFFFFFFFFFFFFFFFFFFFFFFFFF00
:1030E000FFFFFFFFFFFFFFFFFFFFFFFFFFFFFFFFF0
:1030F000FFFFFFFFFFFFFFFFFFFFFFFFFFFFFFFFE0
:10310000FFFFFFFFFFFFFFFFFFFFFFFFFFFFFFFFCF
:103FF000FFFFFFFFFFFFFFFF0000000000000000C9
:00000001FF
