:10000000027FED024CA2FFFFFFFFFFFFFFFFFFFF9C
:10001000FFFFFFFFFFFFFFFFFFFFFF024ABCFFFFE5
:10002000FFFFFF025315FFFFFFFFFFFFFFFFFFFF73
:10003000FFFFFFFFFFFFFFFFFFFFFFFFFFFFFFFFD0
:10004000FFFFFFFFFFFFFFFFFFFFFFFFFFFFFFFFC0
:10005000FFFFFFFFFFFFFFFFFFFFFFFFFFFFFFFFB0
:10006000FFFFFFFFFFFFFFFFFFFFFFFFFFFFFFFFA0
:10007000FFFFFFFFFFFFFFFFFFFFFF024550FFFFF6
:1000800002427B02923B0248F00245FB0245FD0220
:10009000922B025B8A02B76002466202467002B887
:1000A000B902B8FD02B9AD02B83002C00D02C03AC3
:1000B00002BF4102C06922000022000002B44D02CA
:1000C000B6BD02D31A023DB102509102D34D02C710
:1000D000E702D44F02D4A302D56B02216302249A13
:1000E00002245B0224620224F40223FB022A90020F
:1000F00029DD0252EB025C5102A460025DAF02A650
:100100005A02B0C102AA0A025B2A025B3C2200002A
:1001100022000002A8ED02A8FF02A79302A7FD0299
:10012000A47E02ABDB02AC9602AB7C02AA8702A6DD
:10013000BD02AC6302AD0E02AEB502ADC102B31892
:1001400002B2AD02B1A102B165220000025C15024B
:10015000DC9002D98E0245D4025BB302DC1702DDCB
:10016000C0025C2A025BFC025BC402D8A902A3178E
:100170000244410244C202A29002A1F7025E21227F
:10018000000022000002A2EB2200000243B0024362
:10019000B40243B80243BC0243BF0243C20243C598
:1001A0000243C80243900243A20243CB0243D1025E
:1001B0005C61025DA60245F22200002200002200DE
:1001C0000002F3F702E6EE02E55F0245F30245F5B1
:1001D0000245F402F38F02F3F60245F60245F702F8
:1001E00045F902448A02EB2D02EB6C0245FA02EE5D
:1001F0003412428AB90003024278E479477806B89B
:1002000000028004F709D8FCE4790878F8B8000205
:100210008004F709D8FCE49000007801791180028D
:10022000F0A3D8FCD9FA9005BFAA82AB83904861AD
:10023000780579018015E493A3AC82AD838A828B23
:1002400083F0A3AA82AB838C828D83D8E9D9E7900F
:100250000280AA82AB83904861780179018015E41D
:1002600093A3AC82AD838A828B83F0A3AA82AB83F3
:100270008C828D83D8E9D9E712490775D000758142
:1002800000759B017500FF0241F17901221242E4E1
:10029000907FF7E493540F903061F0907FF5E493F2
:1002A000903063F0907FF6E4931242AD229030627A
:1002B000F043CE09E5CE7A057B00128ADF53CFFCEE
:1002C000E5CF1242D27A051242DD7A407B06128ACD
:1002D000DF2243CF80903058E0D2E5F02212433045
:1002E000D2E6F022125D7C43CB20790112DF144369
:1002F000CB03E5CB53CCF3E5CC53CEFE22E933332D
:1003000054FCC0E074F355CCFAD0E04AF5CC53CCA1
:10031000EF743F55CC4480F5CC74FC55CB4402F5CA
:10032000CB12432EC2E6F012432EC2E5F0227A50E1
:100330007B00128ADF903058E02243A3049030649F
:10034000E04430F075440512428D79011242FD758A
:10035000443075460022900500E07015790012DFE8
:10036000E9500BA2A89232C2A8D2F01245D47588E7
:100370000022900500E07017790012DFE9500D7936
:1003800000125C2A758801A23292A8227588002288
:10039000124356903011E0D2E2F0E0D2E4F053BBC9
:1003A000EF22903011E0D2E4F043BB1012437222EE
:1003B00053BBFB2243BB042253BBEF22D29222C287
:1003C0009222D29422C29422A29222790A12DEFDB3
:1003D0002280F874011288A0E9FE125DB8E9FF904E
:1003E0000500E0F530EE6F6011EFC39402500BA2F0
:1003F000A89200C2A8D2F01245D4EEF9125C1912EC
:10040000414C5006125137D38017EE6F6012EFC384
:100410009402500CA930125C1912414CA20092A80F
:10042000C37F010288B6EEC0E0E544FE7544301299
:100430005D4112A9D38E444003C38001D3D0E0FEB6
:100440002274081288A08A308B318C328D33129638
:10045000DD8A348B358C368D37785AE260159048BA
:100460005D78301285A5783479301282DF6004E43B
:10047000785AF27F080288B62222C230C231740153
:10048000784CF274FF9002C4F022EEC0E012EAF061
:10049000E9FE74046E7025900500E0700B7901127E
:1004A000DFE9500479018011900500E06401700CCF
:1004B000790012DFE950057900125C19EEF9D0E0FD
:1004C000FE2274041288A08A308B318C328D331254
:1004D0002AA9E9FE70739089C87830128327706961
:1004E0007848E224BEF58208E23401F583E06480B6
:1004F0006003E07054A3A3A3A3A3A3A3A378301223
:10050000873A9089C8783012832770047900803B3D
:10051000AA30AB31AC32AD33122AA9E9FE7017789C
:1005200048E2F58208E2F583E0FA74EB6A6007744A
:10053000E96A60027E019089C87830128749AA3042
:10054000AB31AC32AD33122AA9EEF97F040288B682
:10055000C08B538BFB0202C1A2AF92F0C2AF75AA4F
:10056000009002C4E9F064FF6038E9543F2323900F
:10057000469A2582F582E43583F583740293C0E0C0
:10058000740393C0E0E493F9740193903042F0E96E
:10059000F09002C17402F0A3D0E0F0A3D0E0F075B7
:1005A000AA02A2F092AF22D08B75E906D0E0D0E08B
:1005B00074B4C0E074C6C0E03290048CE06404609F
:1005C00003029E1574081288A08931FF7E077532D8
:1005D00044029F10C020A2F092007902125BB3A2E5
:1005E0000092F012DD0292007900125BB3A200D0FB
:1005F00020222222222222D3222222D32222740447
:100600001288A0EAFEEBFF129B90E9FA90056AE0DF
:10061000601B8E828F8378007902E06463F0A3E828
:1006200024FF18E934FFF9E87001E970EDEA602968
:100630009005AEE06402600C90059BE064017002DE
:10064000A3E0701B9047F67830128749AA30AB318F
:10065000AC32AD337900129CEFD37F040288B6C36D
:1006600080F89002ECE06004126073221245FE22D2
:10067000C030C031C032C0339002ECE0600512617E
:1006800035800E129CEFE96004D2F08002C2F0A225
:10069000F0D033D032D031D03022B1C6A7450400DB
:1006A00000000002000000010102736420256420A4
:1006B000696E6974206661696C0A0076636D6275A3
:1006C000665F666C61673A2025640A00316D696E69
:1006D0000A006D696E3A2025640A00636F756E74B6
:1006E0005F6C65645F6F66663A2025640A00465059
:1006F0004F4E0A00762D0A00762B0A00706F776540
:10070000725F6B65795F636E743A2564200A006ED0
:10071000756D3D25642C746F74616C3D25640A0011
:10072000463A253032785F004B65793A25640A00F5
:1007300053494E474C45204C6F6F700A004E6F2056
:100740004465766963652100206F6E00546F7461A3
:100750006C3A25640A00427265616B20256C642C3A
:1007600020256C640A006465766963655F63686769
:10077000203D2025640A007461736B20666C6173F0
:100780006820657869740A007461736B5F666C61D8
:1007900073680A0000040000000800006C65645FD4
:1007A0006F66660A00416761696E0A007461736B67
:1007B0005F69646C650A00736F66745F706F77655C
:1007C00072646F776E0A00706F776572206F6E2E9D
:1007D0002E2E0A00416761696E206F6E0A006F66F7
:1007E00066007461736B5F706F7765726F66660A1F
:1007F0000069646C65000200000069727463207017
:100800006F776572206F6E0A0073746172740A00EC
:100810006E6F742066726973740A007379735F6314
:10082000746C2E766F6C756D653A2025640A0061D4
:1008300064635F63683A2025640A00B5CDB5E7B903
:10084000D8BBFA2E0A00524946469F90AB15457216
:10085000726F720A00FFFFFFFFFFFFFF0001000041
:10086000000101E803CAC0E0E493A3C582CCC582BD
:10087000C583CDC583F0A3C582CCC582C583CDC554
:1008800083DAE5D0E0CA22C0E0E8C0E0E9C0E0EAEF
:10089000C0E0EBC0E0C082C083E581C39409F5826B
:1008A000E4E59B940054034400F583E0F8A3E0FAE8
:1008B000A3E0FBA3E0F9C3E5829403F582E583940A
:1008C00000F583EAF0A3EBF0A3E9F0A3E8F0E582FA
:1008D0002406F582E43583F583D083D082D0E0FB13
:1008E000D0E0FAD0E0F9D0E0F8D0E0A2E7D0E02202
:1008F000A2AF500FA2AB500B7401299005B6F0E0E7
:1009000070FD2212DF142243F72012494E1262DBDF
:1009100080FE795412F65EE9FAE490058CF0EAA2C2
:10092000E4502574EF5AFA795512F66B740190056C
:10093000B8F07AFA7B47128E20740190058CF0751E
:100940007A09792A12921822E49005B8F022EEC0B2
:10095000E012433A1292027A097B48128E20D28921
:10096000790112DF1475880012447A1292A37A106A
:1009700079B212DE7C126C90752700752F0074011D
:10098000900280F0E49005B4F09005AFF07401900F
:10099000051BF090051AF0757B00E4900571F0904E
:1009A0000586F0900588F0900589F09002ECF07CC7
:1009B00003FDF97AEC7B0212821E126ED2128B4773
:1009C000E4903029F0742F903028F012491212531D
:1009D0009074FF9005BBF0752C0A9005BDF0126E67
:1009E000C8126CC71253D51266C212616E126157DB
:1009F00012626DE492E09002EDF01261721259EB16
:100A0000D2AF740190056FF0C2F012657FE49005DB
:100A10006FF0C2F012657F126DA51266D853BAFE50
:100A2000C28053BAFED280124E8C43F7207E0779E3
:100A3000011264461EEE70F7126D447890760190B4
:100A400002EDE0602E90058CE0640160267A107B58
:100A500048128E20757A067401900586F0F529F506
:100A60002AF52B799612DEF3752900752A00752B6D
:100A700000801B790212E00D400E790012E00D405B
:100A800007790112E00D50067401900586F0741E7E
:100A90009005B0F0F9126E339005AFE0F9126E6C6C
:100AA0009005B0E0F582758300C082C0837A1B7B1D
:100AB00048128E20D0E0D0E0D0E0FE22C0E0C0D0CE
:100AC00075D010C082C083C0F0C08BC0865386C072
:100AD000C084C08553C27F054C1256D67403554C52
:100AE0006003024C85054B754C00E54BA2E05003BA
:100AF000024C850548754B009005B6E06003E01494
:100B0000F0E548A2E04003124EF8A2C1401990055A
:100B1000BFE064017011E4F0C0E0C0E07ABB7B4646
:100B2000128E20D0E0D0E0E54875F00584E5F06055
:100B300003024C85E54560041545E545126C6712D6
:100B40005515126EFD0547E547A2E04019754800AE
:100B5000126D6B90056EE004F0C394974008E4F0CA
:100B6000740190057DF0E54775F06484E5F0700E42
:100B70007401652D7005752D008003752D0174C8F5
:100B800065476003024C8575470090058FE064015E
:100B9000701090056DE004F06404700B7401900512
:100BA0008EF0E490056DF09005BDE0FA74FF6A6088
:100BB00005EA600214F09005BBE0FA74FF6A600574
:100BC000EA600214F00549E54975F03C84E5F060FF
:100BD00003024C85054AE54A943C4003754A007877
:100BE0008BA64A7ACC7B46128E20754900900579F7
:100BF000E0606D792D12921890056CE004F090057C
:100C00007EE06401700D90056CE0640F702F7941F7
:100C1000124C9890057EE06402700D90056CE064C3
:100C20001E701A7942124C9890057EE06403700D94
:100C300090056CE0643C70057943124C9890056C0B
:100C4000E0C3943D4002E4F0E0F582758300C08289
:100C5000C0837AD27B46128E20D0E0D0E075490066
:100C6000900585E004F0F582758300C082C0837A28
:100C7000DB7B46128E20D0E0D0E0900585E0C39467
:100C8000104002E4F0D085D084D086D08BD0F0D054
:100C900083D082D0D0D0E0321292187401900578BF
:100CA000F022C0E0C0D075D008C082C083C0F0C0C0
:100CB0008BC0865386C0C084C08553AD7F43F72068
:100CC0001252D8D085D084D086D08BD0F0D083D0AB
:100CD00082D0D0D0E03274021288A0E54669606C00
:100CE0008946A2AF5004D2008002C200C2AFE9120E
:100CF00089190000FB4CF84C8E300EE5CEEEF9124F
:100D000042FD74035530790024A6F582E43446F59B
:100D100083E4932EFEE4903029F0742F903028F075
:100D20007407C39EFA74F855E24AF5E274F855C2A6
:100D30004AF5C27530338931EE783012882BE530B0
:100D4000F5C575C670125BB3A20092AF7F02028830
:100D5000B675D91075E8067C44E5EFA2E750FAEACB
:100D6000F5EDEBF5ED1CEC70F0790112DEF3227479
:100D70004C903052F074E2903053F0903059E0D201
:100D8000E3124E687AFF7B7F124D51903053E0D2D0
:100D9000E2F07A05124E78124E3450FB7A007B80D6
:100DA000124D517A05790412940A7AFF790312944C
:100DB0000A7A7F790212940A124E3450FB790B1290
:100DC0004E58D2E3F0903059E0C2E3124E52C2E2E4
:100DD000F07A007B00124D51903053E0C2E5F0E014
:100DE000C2E1F0790112DEF3903052E0C2E6F0E0A9
:100DF000D2E7124E52D2E0F07903124E58C2E3F01D
:100E0000E0D2E5F0793412DEF3124E4CD2E1124E0C
:100E10005D124E3D79061293FAE9A2E150F6903048
:100E200052E0C2E4F0C23B74419003CCF0124FC4D4
:100E3000124F902279021293FAE9A2E7227A0579F9
:100E40000512940A7A01790612940A22903052E02F
:100E5000D2E6F0903053E02212DEF380F6F09030CC
:100E600052E0D2E4F0024D69F09030A1E0D2E0F01F
:100E70007A09790012940A22790412940A7A007984
:100E80000312940A7A00790212940A2253C97F123B
:100E90009590124D6F229003CCE070089003D1E042
:100EA0005403600B74809003D1F0E49003CDF022E2
:100EB0009003D1E054036008A23B5018124F8422E3
:100EC0009003CEE09003CDF0A23B500280077481E6
:100ED0009003D1F02274839003D1F022790312930E
:100EE000FAE9700A79021293FAE964806005124FF8
:100EF000E9C322124E96D322C030C031A238507FAF
:100F00009003D1E0A2E7502D9003CCE0FA9003CDFE
:100F1000E06A600D1292BB9003CCE0F912931C8042
:100F20005E9003D1E064837003124F849003D1E09C
:100F3000C333F0804AA23D504685D930740F5530F6
:100F4000F5307531007407783012884EAC30AD3111
:100F50002CF874023D13F9E813F87A0F7B0012871E
:100F6000CEE8F9E49CFA74119DFB12DF7212DFDE09
:100F7000E96007D23E124EB08005C23E124EDCD070
:100F800031D030229003CFE0FAA3E0FB12927A2214
:100F9000900280E0600E43F7209003D1E0A2E7408A
:100FA000F843F72022A2F0900280E06016923BA264
:100FB0003C500974BF55274420F52722C238124EF1
:100FC000B0D23822900280E0601E5327DEA23B5050
:100FD00012124FE9800343F72079021293FAE9A233
:100FE000E750F3124E96D238227A00790312940A0F
:100FF0007A00790212940A229003D1E0540360151A
:101000009003CEE09003CDF0A23B5003024ED57486
:10101000819003D1F022C030C031C2389003CFE4B8
:10102000F0A37478F0E91250579003CEF0124FF805
:10103000D238D031D03022C030C0318930A23B50BC
:10104000077A007B7812927AE530125057F99003B4
:10105000CEF012931C80DB24A9F582E4346EF58374
:10106000E49322EEC0E09002C4E0FE7900124558FD
:1010700012C67FEEF9124558D0E0FE2274E345E631
:10108000FA78A9E6640170038AE62274FD5AF5E64F
:1010900022EEC0E012D580400479008064740565BA
:1010A0005C700C12D4AAE9FE12529CEEF9805274C4
:1010B0000F655C700874FD55E644E0F5E6740E6556
:1010C0005C700C78A9E66401700578B5E670CA1208
:1010D0003DC3E960C47410655C700A125063755CAE
:1010E000137901801C740B655C700512507C800FB5
:1010F0007402655C70099002ECE06003755C037932
:1011000002D0E0FE2212D444E9FA701690053EE0C7
:1011100004F0C394335004740580027401900526D2
:10112000F02274026A60F4E490053EF0E5ED60E7B9
:1011300022900526E0F922900526E0604FA23F505C
:1011400003125268D23A90053FE06006124FC41273
:101150004F90C2A8C2AC75E80475E70075EE007543
:10116000EF0053AD7FE490052612519560051252B1
:1011700054700512525F801112525A600712525A6F
:1011800064017005D2F01245D412933CE490052519
:10119000F022900525F012525A640222C030C0316C
:1011A000C032C033129273E490053EF0125E2712F3
:1011B00052CF12D5B750159003D4C3E09411A3E0D9
:1011C000940040047900803F7402801312B710E944
:1011D000646070F01252CF12D2AB50E8125210126B
:1011E0005192600512525470057900125C87D2AC9E
:1011F000D2A89089C8783012874990052778301294
:10120000877E900525E0F9D033D032D031D030221E
:101210001252C243AD8000740122900526E064059D
:101220007005740212527422C23A1251966005126D
:1012300052547008125D417900125C87A2A8C2A8BE
:10124000740290052612527492A8A2394005D2F079
:10125000124FA52212525A640322125DB8E92212DB
:10126000B1657901125C8722124F90791012DEF37A
:1012700022900526F043AD80002278F48A828B8389
:1012800012877E088A828B83A3A3A3A312877E2260
:10129000E6FA08E6FB08E6FC08E6FD2278D81252DA
:1012A0009012B715900527EAF0A3EBF0A3ECF0A39A
:1012B000EDF022900527E0FAA3E0FBA3E0FCA3E019
:1012C000FD2212B3F378DC125290790102C13DE4A1
:1012D000F9FAFBFCFD024670900526E0FA74026AFA
:1012E000600574046A700312510522EEC0E0EFC07D
:1012F000E01225035003D380157404C0E012BAF045
:10130000D0E0F97C467D4812824CE960E9C3D0E028
:10131000FFD0E0FE22C0E0C0D075D008C082C083FC
:10132000C0F0C08BC0865386C0C084C08512D3AEC7
:1013300043AD8000D085D084D086D08BD0F0D083D0
:10134000D082D0D0D0E0327582FB7583FF12888DB9
:10135000E0F8A3E0F9A2F0501CC3E89AE99B40072B
:10136000C3EC9AED9B4005E8FAE9FB2274FF2A1AC8
:1013700074FF3BFB22C3EA98EB995007C3EA9CEB4E
:101380009D5005ECFAEDFB2274012A0AE43BFB2296
:10139000538BEF438B01795412F65EE9FA9005B84E
:1013A000E0600D740C4AFA795512F66B74018001F5
:1013B000E4900572F02243BB01539CDF90304CE077
:1013C000C2E2F0E0C2E1F0E0C2E0F0740490304F1D
:1013D000F075D188227C0C7D0079007AE07B0212C6
:1013E000821E7C057D0079007ADB7B0212821E74EE
:1013F0002490300CF0903050E0D2E6F0903056E07F
:10140000D2E0F075D18D74049002E0F01253B674FE
:10141000029002E0F043BE0CE5BE903057E044C0BD
:10142000F022E5D1A2E750239002E0E0F582758337
:1014300000C082C0837A2F7B48128E20D0E0D0E09B
:1014400074049002E0F075D18DC322E5D49002E1DE
:10145000F0D3229002E1E0FAC39420500FE490050B
:10146000BCF09005BDE0703074FFF0229005BCE048
:10147000FBEAC394A0500E74016B601C7401F0E48D
:101480009005BDF022EAC394B1400D74026B600870
:101490007402F0E49005BDF0227A009002E7E0FBD0
:1014A00080010AEAC333F8E433F9E82442F582E91B
:1014B0003456F583E493C39B40E8A3E493F9227A7E
:1014C000009002E8E0FB80010AEAC333F8E433F954
:1014D000E82458F582E93456F583E493C39B40E849
:1014E00080D8795412F65EE9A2E150147401900597
:1014F00088F0790F900589E0FA70127401F080127B
:101500007402900588F0900589F079002274016AD0
:101510007002790022EEC0E07E00125422400302E5
:10152000561D9002E0E012891902071D563D5577BD
:10153000554C5560551D561D56A055C45512545353
:1015400074049002E0F075D18D02563E9002E1E005
:101550009002E4F074059002E0F075D18E02563EE0
:101560009002E1E09002E5F074039002E0F075D1A2
:1015700089126F2502563E1254E2E9FEEE600C74A9
:10158000039002E0F075D18902561D74089002E0C4
:10159000F0903057E044C0F043D22075D189807D6F
:1015A0009002E1E09002E7F0125499E92401FE7400
:1015B000099002E0F0903057E044C0F043D220752B
:1015C000D18A80599002E1E09002E8F01254BFE91C
:1015D000FE74029002E0F053D2DF75D188EEC3941E
:1015E0000B402F740B6E7008740190057EF0804ED6
:1015F000740C6E7008740290057EF08041740D6E5C
:101600007008740390057EF08034740090057EF0BD
:10161000802CEE7029740090057EF08021EE70051C
:101620001254E2E9FEEE6016EEF912DE8F9005BC70
:10163000E0600B748F6E7006740A9005BDF0D0E008
:10164000FE220D002901460262037E049A05B706B8
:10165000D307EF08FF09FF002A007E0BD30CFE0D15
:10166000FF0043BD0243BD0843BD1043BC8043BCE3
:101670000443BC0243BC0122125662E49002D8F03B
:10168000227B057A00796E12DEED227884E608600E
:1016900024E64572F57208E6FA740C5A600908E609
:1016A000F56E08E6F56F2274035A602908E6F570B6
:1016B00008E6F57122E6F45572F57208E6FA740C44
:1016C0005A6007756E00756F002274035A600675C4
:1016D00070007571002274021288A090056BE0C33F
:1016E00094074008E4F09002D8E004F09002D8E0BB
:1016F000C394074002E4F012568B1257CE90056B4C
:10170000E0FA9002D8E06A700690056BE004F0758C
:1017100030018E319002D8E0783012884EAA3075B0
:101720003001F53190056BE0783012884E9002D888
:10173000E02473F8E530564AFEEAFF125662EEA244
:10174000E0500EEFA2E05004D2B18002C2B153BD0E
:10175000FDEEA2E1500EEFA2E15004D2B38002C22E
:10176000B353BDF7EEA2E2500EEFA2E25004D2B4A2
:101770008002C2B453BDEFEEA2E3500EEFA2E350DD
:1017800004D2A78002C2A753BC7FEEA2E4500EEFA2
:10179000A2E45004D2A28002C2A253BCFBEEA2E596
:1017A000500EEFA2E55004D2A18002C2A153BCFDAD
:1017B000EEA2E6500EEFA2E65004D2A08002C2A034
:1017C00053BCFE90056BE004F07F020288B6C2AF06
:1017D0007B077A00797312DEEDE56EA2E0500343D9
:1017E0007840A2E15003437740A2E25003437640A1
:1017F000A2E35003437540A2E45003437440A2E5C2
:101800005003437340A2E65003437720E56FA2E004
:101810005003437920A2E15003437910A2E2500320
:10182000437908A2E35003437904A2E450034379C7
:1018300002A2E55003437901A2E65003437810E584
:1018400070A2E05003437610A2E15003437510A24A
:10185000E25003437410A2E35003437310A2E45018
:1018600003437508A2E55003437408A2E6500343FE
:101870007308E571A2E05003437708A2E1500343E7
:101880007704A2E25003437702A2E35003437701B7
:10189000A2E45003437604A2E55003437602A2E695
:1018A0005003437601E52D7003437806D2AF22C082
:1018B00020A2AF5004D2008002C200C2AF75F00A6D
:1018C000788AE68412590DF56E125906FA8A6F75F8
:1018D000F00A08E68412590DFB8B70125906FC8C35
:1018E000717572107886E6FD740C5D600708A66E4F
:1018F00008EA800A74035D600608EBF608ECF6A2BD
:101900000092AFD02022E675F00A84E5F0242FF58E
:1019100082E43459F583E49322125DB8E9700443FC
:10192000720822125DB8E964027003437204223F18
:10193000065B4F666D7D077F6F777C395E79716FCF
:1019400076061E703854373F7367506D783E3E1CE4
:10195000366E5B1818762C087601D2402278817694
:101960000380F074041288A08E30EA2530F582EBF3
:101970003400F583E493F530746E2EF8E530C394AB
:10198000304017E530C3943A5010E53024FFF5821B
:10199000E43458F583E493F68043853032E532240D
:1019A00039FCE43459FDE530C394414011E530C3BE
:1019B000945B500AEC24BFF582ED34FF80D5E5300E
:1019C000C39461400CE530C3947B500FEC249F809E
:1019D000E67420653070047600800276400E740450
:1019E0006E70857572007F040288B67C2A7D00794E
:1019F000007A407B0512821E7428900544F0900501
:101A000049F0743C900562F0742890054EF0900502
:101A100053F0900558F090055DF0900567F022EEC8
:101A2000C0E0E9FE12E00D5003D3800FEEF912DFA3
:101A3000F84003C38005EEF9125A42D0E0FE227945
:101A40000922EEC0E0C030C031E9FE600574016ECD
:101A5000701B1243D340398E30753100C030C03115
:101A60007AAA7B46128E20D0E0D0E0801674026EF7
:101A7000701E125B897900125CD0E9FA700812447A
:101A8000264008C3802374026A60F87901125C87DB
:101A9000EEF912E022753001753100EE78301288CF
:101AA0004E900540E04530F0D3D031D030D0E0FE4C
:101AB00022EEC0E0EFC0E0C0307530007E00EEF9ED
:101AC00012DFF85014EEF9126433EEF9125A1F5077
:101AD00008EE90051BF07530010EEEC3940440DE55
:101AE000125DB8E9FF90051BE064FF703274FF6F70
:101AF000602D12E00D4028EFF91264337530027E3C
:101B0000000FEFC3940440027F00EFF912E00D5084
:101B100007EF90051BF080070EEEC3940340E2A987
:101B200030D030D0E0FFD0E0FE229002D2E070064C
:101B3000900550E0F922900555E0F9229002D2E09C
:101B4000701EE9900550F07402699005407005E040
:101B5000D2E2F022E0C2E2F0E970057900125C877F
:101B6000229002D2E07011900550E0FA74026A608F
:101B70000574036A7011D322900555E0FA74026A65
:101B800060F474036A60EFC32222C3E9F5F0C0F089
:101B9000125A3FD0F0E5F09940057A007B0022E52B
:101BA000F075F005A42442FAF582E5F03405FBF562
:101BB00083D322740165467005E9C33304F9E990C3
:101BC0003000F022900500E07017E9900546F074AF
:101BD00002699005407005E0D2E0F022E0C2E0F03A
:101BE0002264017016E990054BF07402699005407B
:101BF0007005E0D2E1F022E0C2E1F022900500E0C1
:101C00007006900546E0F9226401700690054BE0ED
:101C1000F92279002212DB4022E960057401697023
:101C200003125C45E9900500F022125C4543BB10AD
:101C300043BB04903011E0D2E2F0E0D2E4F053BBB9
:101C4000F753BBF722903056E0C2E7F0E0D2E6F05F
:101C5000229002D2E0700479028002790312DFE957
:101C60002243F7209051F9E0640370057902124095
:101C70008612EA659051F9E064037005790212401A
:101C800086790612DFE922E96009125B615004746B
:101C9000808001E490051CF022E99030576005E057
:101CA000D2E2F022E0C2E2F022E9600543DC1080DB
:101CB0000353DCEF787DEAF608760022125CA97502
:101CC000FC0A227A0280F57A03125CA975FC0522CF
:101CD00074041288A089329002D2E0F533125DB804
:101CE000E9FAE5336532604585333074022530FE0C
:101CF000E43400FF8A82858230EE65307001EF7037
:101D00000CA2A89200C2A812B165125D6CE5321255
:101D10005D34500479018017EE65307001EF700971
:101D2000E533125D34A20092A87902800279007F27
:101D3000040288B69002D2F0E0F9125C99124426AF
:101D4000229002D2E0700FA2305016C230125D62B3
:101D5000700F7401F022A2315007C231125D62602F
:101D6000F12212A3A9900550E06402229002D2E071
:101D70007004D2308002D23112A3D6229002D2E077
:101D80007012900550E06402701B125D6C7401903B
:101D90000550F022900555E064027009125D6C74E4
:101DA00001900555F0229002D3E0F9125CC7229011
:101DB00002D2E0F9125CC32290051AE0F922E49005
:101DC000051EF074FF90051BF0E990051AF0C3940E
:101DD000045007E490051DF0D322740290051DF015
:101DE000C32290051BE0FA74FF6A603474026A60D3
:101DF0000574036A700974FE2AF9125CD08019EA2E
:101E0000600574016A701112447912447890051BC0
:101E1000E0F9125C1912414C90051BE0F9125DBE0D
:101E2000227401784CF22279087A817B0212B41C68
:101E30002253C9FB43D602E490300BF043D6017520
:101E4000D5FF227A0A001AEA70FB2253D6DF89D521
:101E5000E5D6A2E750FA2243D62075D5FFE5D6A2F3
:101E6000E750FAA9D52274081288A08A348B358AE3
:101E7000308B318C328D337410783012853EA9301E
:101E80001261A8853531A9311261A8853430A93095
:101E90001261A8025EDFEEC0E01261847905126172
:101EA000A81261A4E9FE126194EEF9D0E0FE22EEE0
:101EB000C0E07E0F80091E125E96E9A2E0500E433C
:101EC000F720125E43EE70EEE49002EDF0D0E0FEFB
:101ED00022D0E0D033D032D031D030221261947F82
:101EE000080288B643D620EB903009F0EA9030081B
:101EF000F0EDC313EC131490300AF0E5D6A2E750CE
:101F0000FA2274081288A08C308D317582EE7583A8
:101F1000FF12888D783412873AEAFEEBFF125EAF2B
:101F20001261847903125F948003125FA3EE54035D
:101F30006008E5307002E53170F0C3E5309404E5E7
:101F40003194004044C3E5309400E53194024008E8
:101F5000753200753302800C74FC5530F53274FF15
:101F60005531F533AC32AD33EEFAEFFB125EE4EEF1
:101F70002532FEEF3533FFC3E5309532F530E531DC
:101F80009533F53180B4125FA3E5307002E531700E
:101F9000F5025EDC1261A8AA34AB35AC36AD37125F
:101FA0005E66221261A4E98E828F83F0A3AE82AFB7
:101FB00083E53024FFF530E53134FFF53122C030C0
:101FC000C031C032C03374041288618A308B318CC6
:101FD000328D3378301288CD7C04FD7582F775839D
:101FE000FF12888DAA82AB831261BA74FC128875C5
:101FF0007582FB7583FF12888D783012873AAA307C
:10200000AB31AC32AD3374FC128875025ED3740808
:102010001288A09089C878301287499002CD783014
:1020200012877E89308E318E328E3374037830126F
:102030008557AA30AB31FCFD125FBE8A348B358CDC
:10204000368D379002C5783412877E90469E783060
:102050001285A5AA30AB31AC32AD33125FBE8A30E7
:102060008B318C328D339002C9783012877E7F0895
:102070000288B674081288A09002CD783412873A8C
:102080009002C9783012873A7830793412837340DD
:1020900004C30261329002C57408783412855778FF
:1020A0003412858F78341288CDFC7D021261BA74A7
:1020B000FC1288759047F678301287499002CD78E7
:1020C000301285D8900525E0640270659046A278AC
:1020D00030128749795B78301285EE900575E0F50E
:1020E00030A3E0F5318E328E337408783012855784
:1020F000783079341283734038900573E0FCA3E0A4
:10210000FDECCDCE9002C5F0A3EDF0A3EEF0A3E47C
:10211000F09002CD783012873A9002C9783012865A
:10212000519089C878301287499002CD7830128753
:102130007ED302606EC030C031C032C0339089C8D7
:1021400078301287499002CD783012877ED3D03311
:10215000D032D031D03022903058E0C2E4F075D681
:102160001053BBDF53BBBF53BB7F125E3122758858
:102170000022790012DFE94007790112DFE95003FC
:10218000758801229005BEE01289190100936191C2
:1021900061C297229005BEE01289190100A361A1D6
:1021A00061D29722125E5722125E4B2274FC128873
:1021B00075D033D032D031D03022C030C031C032AF
:1021C000C0337582F57583FF12888D783012873A97
:1021D00078301288CD125F0280D274091288A07400
:1021E00004128861E9FE9089C87834128749126127
:1021F0008474906E600574AB6E7013EEF9125E4BD2
:102200007900125E4B7900125E4B79008002EEF984
:10221000125E4B7538008538307582FB7583FF126E
:10222000888DE5822530FEE5833400FF1261A4E944
:102230008E828F83F074087834128557E0F53075FC
:1022400031007532007533007834793012857905A4
:1022500038E538C3940440BE126194AA34AB35AC5F
:1022600036AD3774FC1288757F090288B674041283
:1022700088A043BB4043D62074019005BEF0C20045
:102280008E30E530244AF582E43448F583E493F94E
:102290001261DA8A308B318C328D33904855783028
:1022A000128327601D9089C87830128327601390AD
:1022B0004859783012869478301283276004D2000F
:1022C000800E0EEEC3940440B77A4E7B48128E20E7
:1022D000A2007F040288B612600E228003126C39BD
:1022E000126C90124F90126EE3C23AE57AC3940CCE
:1022F00050097409657A6003857A7BE57A12891939
:1023000006031663DD62166311630C63126758805F
:10231000CF1265C980CAE57B12891900002C6321A0
:10232000639002EDE06005757A0680B4757A0080EE
:10233000AFA2784003790022C278125AB1229005E8
:10234000B0E0FAE912894F01AEAFA8630A86A06334
:102350008AA4638FB263A6A063B1A063CFA863E130
:102360006D63E38163EA6D63EB8163296474FF123B
:10237000642A9005B0E07003126ED97AF47B46802F
:102380001B740112642A9002E6E0C394C8500990BD
:1023900005B0E06003126EDD7AF87B46128E2022D3
:1023A000757A0C22126E8B22757A0974019005B928
:1023B000F02290057EE004F0900579E0700E900523
:1023C0007EE0640460067401900579F090057EE07B
:1023D000F582758300C082C0837AFC7B46128E2012
:1023E000D0E0D0E090057EE06401700875290175A9
:1023F0002A00800BE06402700A752900752A0175B5
:102400002B0022E06403700A752900752A00752BE1
:102410000122E064047012752900752A00752B00F2
:10242000E4900579F090057EF0222AF9126E3D12B3
:10243000595D22EEC0E0E9FE125DB8E96E7003124C
:102440005137D0E0FE22EEC0E0E9FE90057DE0606D
:1024500005E4F043F720126CEC1258AFC2AF9005C0
:102460007BE02401F0A3E03400F0D2AF9005BBE0A4
:1024700064017006857A7B757A0674016E70191294
:102480006331E9FA74016A7005757A008028740274
:102490006A7023125DE2801E74026E7019A2785079
:1024A0000E790012DFF840E1790212DFF840DA79A4
:1024B0000112DFF840D3D0E0FE22C030C031C0208E
:1024C000A2F092009272D27090059B128901900541
:1024D000971289017A0F7B47128E2074FC1288753F
:1024E0009005AEE012891900001E65ED6490059B11
:1024F000E024FFF8A3E034FFF9E8C0E0E9C0E07CA5
:10250000007D00900597E0FAA3E0FBA20092F01294
:102510005347D0E0D0E0900597EAF0A3EBF0D0204D
:10252000D031D03022740C1288A01252B38A348B6E
:10253000358C368D379089D4783012874978347944
:1025400030128429853430853531853632853733EC
:102550009089E8783812874978307938128429E5EB
:102560003090059EF09089E8783012874978347968
:1025700030128429E53090059FF07F0C0288B6C0A8
:1025800030C031C032C033A2F050137AA07B0512A4
:10259000527A1295F19005A8EAF0A3EB801E90897B
:1025A000C878301287499005A4783012877E90054C
:1025B000A0783012877E9005A8E4F0A3F0126E1781
:1025C000D033D032D031D030227AAC7B47128E203B
:1025D000E4900585F0800612633E126CDB7408659A
:1025E0007A7057790112644612DEB7900585E0646F
:1025F0000F7015752900752A00752B00757A097AF8
:102600009C7B47128E2080D2E912894F0120251A27
:102610006602AF2F66CF2F66D7657AA57B47128EED
:1026200020E4900578F090056CF0757A0680AB7523
:102630007A0974019005B9F080A0227A01795A12C2
:10264000F66B75F73D7A007B20128ADF80ED9005EE
:10265000B4E0606D752900752A00752B007AB77B90
:1026600047128E207A0C795512F66B43CB10C2AF0D
:10267000903058E04460F012567874FF90301AF0B1
:10268000903012F075A00075BC00783B79667A0036
:102690007B007C1488828983E4938A828B83F0A3F5
:1026A000AA82AB8388828983A3A882A9831CEC7049
:1026B000E374FC55CB4401F5CB53CCF3E5CC1200CD
:1026C000002279A112F65EE9FA43CD8074BF5A4424
:1026D0001CFA795B12F66B22EEC0E0800343F72010
:1026E000900588E060F779411292187EFA7901121C
:1026F000DEF343F720793C1292181EEE70EF74015E
:1027000090058AF07AC77B47128E20788A760B086C
:102710007600D0E0FE2243F720126CEC900588E0B2
:10272000FA74026A700312664E22E9128919AE0128
:102730004067366736677AD47B47128E20857B7A6E
:1027400022D2CA90058AE0600B7ADE7B4712596379
:1027500043F72022125681227AE27B47128E201202
:102760006741800C12DEB712672A126CCE12671610
:102770007409657A60EE2274081288A090057FF0D3
:10278000A3F09089C8783412874978341288CDFC38
:102790007D047A007B0C1261BA74FC128875F8F91A
:1027A000F530E85407FA74046A70028E30E82400A9
:1027B000F582E9340CF583E0423074076A7012E563
:1027C00030601F90057FE02401F0A3E03400F08E1C
:1027D00030E8240108E93400F9C3E89400E99404DE
:1027E00040C090479478341285A59047987830126D
:1027F000874978307934128373408F1268037F08D9
:102800000288B690057FE0FAA3E0FB2274019002F3
:10281000ECF053BBDF53BB7FEAF91262D712519C35
:10282000E990059DF064016002C322D32280081262
:102830005228126DF4C271A2705022740190053FAB
:10284000F0125137C270900597126BCA40E1A27224
:102850005007D2F01264BA80DEC2F080F722C27252
:10286000D2709005AEE064026005C2F01264BA2234
:1028700074041288A089308982AE82E960219002B6
:10288000EAF0FA9002E9E06A700302691FEAF0C018
:10289000E0E4C0E07A207B47128E20D0E0D0E0EE6A
:1028A00012894F01010AB468037EE26886DD68B1CF
:1028B000DD681A69EEC0E0E4C0E07A287B47128E3A
:1028C00020D0E0D0E0D2F01264BA74FF2EF874FF8A
:1028D0003400F9900597E8F0A3E9F08042757A0C8E
:1028E000803D90059BE0F8A3E0F97583057582971C
:1028F000C3E098A3E0994007900597E4F0A3F01295
:102900006A2012873A9005A4783012877E7C087A74
:10291000A07B05790A128B0D8005A93012633E7FDA
:10292000040288B6C030C031C032C0339002EDE03E
:10293000600479028002790112644612521AA27868
:102940005009790012DFE94002C278A2784008906D
:102950000577E0A2E1502CE4900577F0125137435F
:102960002E09126A2012873A9005A4783012877EC9
:102970007C087AA07B05790A128B0D126DF4757AAA
:102980000C80067406657A600B125137E49002ECF5
:10299000F0026A17A2735003126E0012682DA27320
:1029A0005010C273126BB912873A9002CD78301270
:1029B000877E1265259002CD783012873A90058186
:1029C000783012830F6008900581783012877E90EE
:1029D00002C9783012873A7583027582CD78301239
:1029E000839940339005AEE06402600512685E8012
:1029F00026A27140227A307B47128E209089C878B7
:102A0000301287499002CD783012877E125131E919
:102A1000C394025002D270D033D032D031D03022A1
:102A20007AA07B0512527A9002CD7830227404127B
:102A300088A0F9124CD612616E12615712626DE4D1
:102A400092E09002EDF07003026B9874019002EC3A
:102A5000F0E490056AF0900587E0700E125919793C
:102A60003212DEF37401900587F07900126E7AC29B
:102A70003CE490053FF0D23BF91250377C177D00C3
:102A800079007A977B0512821EC271432E09126764
:102A90007790059BEAF0A3EBF090059B1289017AF1
:102AA0004C7B47128E20D0E0D0E0E49002EEF09014
:102AB00005B7F0126E00900597E0F8A3E0F9758372
:102AC0000575829BC3E098A3E0995009C2739005F5
:102AD00097E4F0A3F078907601A273400890057710
:102AE000E0A2E05024126BB912873A78301288CDF8
:102AF0009005A0783012873A78301288CD7A567BCC
:102B000047128E2074F8128875C270900597126B68
:102B1000CA5008125228C271126E8B7C027A977BBF
:102B2000057912128B0D900577E0F5828E83C082B5
:102B3000C0837A667B47128E20D0E0D0E0A273403B
:102B400008900577E0A2E0501FC2739005A478308A
:102B500012873A9002CD783012877E7C067D00790C
:102B6000007ACB7B0312821E789076017900125096
:102B700016126EF07C1A7B647A20790A12DFAC7E22
:102B80003C790112DEF312521A1EEE70F49005B079
:102B9000E0F912501602691F790112E00D40157913
:102BA0000112E00D400E7A3D7B47128E207A487B61
:102BB00047125963757A0C80DC7C087AA07B057912
:102BC0000A126D789005A478302212680612680CFB
:102BD00022C030C031C032C03374019005C0F074DF
:102BE0000C657A6019126A2012873A9005A4783031
:102BF00012877E7C087AA07B05790A128B0D7A7782
:102C00007B47128E20740190053FF0125137C23C71
:102C1000791412DEF3124FC4124F907900126E3302
:102C2000792812DEF3126EE39002EDE06003126188
:102C300072E49002ECF0026A177A887B47128E20C9
:102C4000126A2D800912692412DEB71268707406A8
:102C5000657A7006900578E060EB126BD1740965B7
:102C60007A6003757A0822787FE6700208E6600BC6
:102C7000787FE624FFF608E634FFF67883E6600AFC
:102C800016E6646470090876002276C80876012288
:102C90007884760008760008760078817600D24045
:102CA00022787FE6700208E6700F7881E664027091
:102CB0000478897601788176007881E6FA08E66AF8
:102CC0006004EAF6D2402212567812568122126C23
:102CD000A1A2405005C24012568122126CA1A2400E
:102CE0005009C2407AF17B4712596322900571E086
:102CF00064017010E4F0900570E0A2E15006C2E1BA
:102D0000F0126DC9125DB8E990056FF02274189049
:102D100005B0F0E49005B5F0900597F0A3F07401CC
:102D2000126D37E4126D37126DC9126E0C74029079
:102D300005AEF0126DBE2290056FF0C2F012657FF5
:102D4000126DDF22126DA55021126DD4E49005B5ED
:102D5000F07C017AAE7B057922126D789005AEE0A9
:102D600064026006E060037402F022900571E0C323
:102D700094024003E014F022E9CEC0E0ECCFC0E0C2
:102D80008A828B83EEF9128B30E9F00EA3DFF5D047
:102D9000E0FED0E0FF22EAC0E0AA81AB9B7C0112FA
:102DA0008B0DD0E022900572E060117AEE7B461226
:102DB0008E20E4900572F0126D0DC322D32290058F
:102DC000AEE0FA7922126D96229005B0E0FA7921F0
:102DD000126D96227921128B30E99005B0F0227C99
:102DE000027A977B0575F00A90056FE0A42408F934
:102DF000128B0D227C027A977B057912128B0D22A1
:102E00007C027A977B057912126D78229005B5E0E5
:102E1000FA7920126D962290056FE06403700479B0
:102E200014800675F00AE0A4F97C087AA07B0512EC
:102E30008B0D22E9C3941F500312501622EEC0E0FE
:102E4000E9FE9005B0E06E7003C3801C126E33EE95
:102E5000C3941F5012EE9005B0F074FF900571F00E
:102E6000900570E0D2E1F0D3D0E0FE22EEC0E0E9C0
:102E7000FE1295DFEEF9D0E0FE22126E6CE9FAC385
:102E800094065005EA9005AFF0D322A239501312F0
:102E90006EF0740C5527640C600EA23B92F0124F3A
:102EA000A522124FC4126EE322000A1114171A1C35
:102EB0001E2123242526292A2C2D2E2F3031323372
:102EC0003435363738393A3C53BAFE43BA011261C9
:102ED000572253BAFE43BA012243BA012253BAFE23
:102EE000C28022A2394008D239740190057AF022BA
:102EF000A2395008C239740190057AF02290057AFF
:102F0000E0601CA239500643BA01E4F02290058D1E
:102F1000E07009126EDDE490057AF02214F022E4EC
:102F200090058DF0229002E4E0F8900593C3E098BC
:102F3000A3E094005008900593E8F0A3E4F0900219
:102F4000E5E0FA9005C1E0F8A3E0F9C3EA98E49956
:102F500050089005C1EAF0A3E4F0900592E004F077
:102F6000C3943250030270AA900593E0F8A3E0F9ED
:102F7000E875F07BA4F8AAF075F07BE9A42AF912B1
:102F800070AB75F096A4FAACF075F096EBA42CFB40
:102F9000C3E89AE99B50177404900595F07401906A
:102FA000058FF0900590F0789076020270301270E4
:102FB000AB75F0A0A4FAACF075F0A0EBA42CFBC3A9
:102FC000E89AE99B50187407900595F074019005F4
:102FD000BAF09005BBE064FF7056741E8051127009
:102FE000AB75F0DCA4FAACF075F0DCEBA42CFBC301
:102FF000EA98EB995007741090059580327401900F
:103000000595F074FF9005BBF0E49005BAF09005CB
:1030100090E06401700CA2717890500476038002F5
:103020007601E4F090058FF090058EF090058BF01E
:103030009005C174E8F0A37403F0900593E4F0A345
:10304000F0900592F0900596E0FA900595E06A60A0
:103050000BE0900596F0E49005918005900591E0D5
:1030600004F09005B4E07009900595E09005B4F087
:1030700022900591E0C39405400AE4F0900595E0A4
:103080009005B4F09005B4E06404701E90058EE0E5
:10309000640170167409657A6010757A097401907C
:1030A00005B9F07A3B7B48128E20229005C1E0FAE8
:1030B000A3E0FBEA22FFFFFFFFFFFFFFFFFFFFFF91
:1030C000FFFFFFFFFFFFFFFFFFFFFFFFFFFFFFFF10
:1030D000FFFFFFFFFFFFFFFFFFFFFFFFFFFFFFFF00
:1030E000FFFFFFFFFFFFFFFFFFFFFFFFFFFFFFFFF0
:1030F000FFFFFFFFFFFFFFFFFFFFFFFFFFFFFFFFE0
:103FF000FFFFFFFFFFFFFFFF0000000000000000C9
:00000001FF
